:0200000407FCF7
:10000000A864FC072501FC072D01FC074501FC073E
:1000100000000000000000000000000000000000E0
:100020000000000000000000000000005D01FC076F
:1000300000000000000000005F01FC07E915FC075C
:100040007D12FC07AD4BFC07A526F007ED15FC075C
:10005000C114FC076301FC074D12FC076301FC0798
:100060005912FC076301FC078513FC078F13FC077B
:100070009913FC07A313FC07AD13FC079515FC07A8
:100080003116FC076301FC076301FC076301FC07F1
:100090006301FC076301FC076301FC076301FC07C4
:0800A000000000008E070E00B5
:0200000407FCF7
:100110000348854601F088F8004800477D36FC0713
:10012000A864FC070F4880470F4800470420714629
:10013000084203D0EFF309800C490847EFF3088029
:100140000A49084704207146084203D0EFF30980AA
:1001500007490847EFF3088005490847FEE7FEE72F
:10016000FEE7FEE78155FC071101FC07D114FC07EF
:100170004114FC073EB50D4D6D1E14D002880A4295
:10018000FAD16D1E0FD002880A42FAD0084A1368CD
:100190000124234313606D1E05D002880A42FAD160
:1001A000044A10683EBD00203EBD0000C0C62D00C0
:1001B00010E000E018E000E0F8B507460120002359
:1001C000024600901946032049F71CF90446022113
:1001D00080300170FF4DFE482A6843881146FF3188
:1001E000F7310B8680884886FB48066A0123DB06C8
:1001F0009E431E430662FF320020FF323832508297
:100200009082D0821D200882F4484884F448C88235
:10021000F448088300204882384649F733FC0146F9
:100220002868FF30F730C28B920992010A43C283DB
:10023000ED48416800208847002C02D0204648F74E
:10024000CAFC2046F8BDFFB58BB0064616980027BD
:10025000022821D00D9801881498814278D37188A2
:10026000084640383F2802D8159855F7C7FC0C9827
:10027000361D0088149A80190E995EF73DFF0C9880
:100280000188149808180C9908800D980188149812
:10029000081A0D9908805CE100200E9D079069788E
:1002A0002C78090221433180E978AC780902214396
:1002B00071808C46403904242D1D024603468E462B
:1002C000402900D32878614604291FD0052914D07D
:1002D000062918D070463F283DD8159855F78EFC52
:1002E0000006000E04D0C148008D0006C00F30D0BB
:1002F00002230120BE4A002712E0697800290FD0AE
:10030000BC4A17230CE0BC4A0F2309E0522802D054
:10031000D22802D002E0142000E01520B74A1F23A3
:10032000002A1AD0984218D2800010580490002851
:1003300013D000200890059070884038402803D3DF
:100340002878052430716D1C701D00900498B5E06C
:10035000FEE03027F0E03327EEE07088042872D109
:100360000627E9E0522862D00CDC4B283FD004DCA1
:1003700041286AD0422858D111E04C2820D050287A
:1003800053D140E0632830D004DC572818D06128CE
:100390004BD19BE06C2864D0772846D109E00098C7
:1003A000297801700098641C401CA4B26D1C009058
:1003B00081E00498401C04900178089881427AD129
:1003C0000098A41C401C41084900881C00906878D3
:1003D0002A780002104308800599AD1CA4B20029B8
:1003E00069D008900020059065E00120FBE710220D
:1003F000294600985EF780FE009810341030A4B2B1
:100400001035009057E02046403014990390884200
:100410000BD84022294600985EF76EFE00984030C7
:1004200000900398403584B245E0342743E0082229
:10043000294600985EF760FE009808340830A4B2A0
:100440000835009037E068E0FFE70622294600986B
:100450005EF752FE0098A41D801DA4B2AD1D009051
:1004600029E01498001B80B203903088001B001D07
:1004700081B2012007900498401C04900098401C11
:100480004008400000900498007857281CD042286B
:10049000CBD100980170090A417000982946801C50
:1004A0000090039A5EF728FE03980399201884B2FF
:1004B0000098401800900498401C04900078002890
:1004C0001ED0002F17D01BE04908E2E71498001B4C
:1004D00081B200980391401C400840000090012028
:1004E0000A460790294600985EF706FE03996018B1
:1004F00084B20098DDE70D990988A14200D331E765
:100500000D980088A04208D304990978002904D1E5
:100510000799002903D1A04201D034270CE00D999E
:10052000001B08800C9801880098801B001F081889
:100530000C99002F08800CD07088042809D0062858
:1005400007D04038402804D30E984079707100E0FD
:10055000342738460FB0F0BDFFB581B01F461646B0
:100560000C4610465CF78CFC00257F2802D02189C0
:10057000062909D03B4632462146019855F7D1FE5F
:100580000546284605B0F0BDC00601D50225F8E7AE
:1005900020780028F5D1300AA11D42F75AF8F0E77B
:1005A000F1B598B0189842F752FA04461898052108
:1005B0000079134A4006C00F099068460184618B98
:1005C00008460A38904276D2E08A062873D319E0AA
:1005D00030BCFC074CB9FC07C00000401080000094
:1005E000294100007671000058BFFC0748BEFC0797
:1005F0003803F2074003F2079C03F207D803F2071F
:10060000770C00001922D201904254D8228BFF238C
:10061000F5339A424FD8521C9300D2184243521CD1
:100620000A23521059438A4245DC217F00290CD10C
:10063000617F002909D1A17F002906D1E17F00292E
:1006400003D12021095DC90635D0274620377978A6
:10065000C906C90E491F0C292DD2A18A81422AD868
:10066000E17C002927D0421E082A01D9082000E099
:10067000401E81421FD8684646F7AAFA00281AD1C0
:10068000FE4D0622286221460AA85EF735FDA879AC
:100690002E46803E00287DD06079800901280BD04D
:1006A0000AA809994CF763FD010003D03820405C8B
:1006B000002870D09BE008E1F06A807A012808D019
:1006C000042806D00AA84CF7BFFD286200284ED0A7
:1006D00054E0686A06220AA932305EF731FD00282C
:1006E00006D00AA84CF7B0FD2862002802D012E01C
:1006F000686AF9E700210AA84CF7BCFD2862F16A94
:10070000897A012905D18B071A6849068A430A4369
:100710001A60002811D0F16A286A062225301031AB
:100720005EF70EFD002808D1286AF16A2030C07AF1
:10073000C97B884201D1286A1EE0D148D14900888E
:10074000C96880B206225043081842F785F901466D
:1007500014A8062202305EF7CFFC13AA00213C2029
:1007600042F747FC0121B06D47F76EFEA9E011A9E1
:100770000AA84CF77FFD2862002838D001462531B1
:1007800006220FA85EF7B8FC286A08AA2030C17AB2
:100790000FA801E041E024E04CF7CCFB002812D088
:1007A000286A2030C07A002809D16846B649008CF2
:1007B0004BF733FB08AA0121B3484CF7BBFB684653
:1007C0000AA9008C0AE008AA012111A84CF7B2FB83
:1007D00000280CD0296A6846008C32314BF733FB75
:1007E00005E00A18527D002A08D010286DDBF06A57
:1007F000407A022806D0032804D00EE0401C1028BE
:10080000EFDBF4E76846008C052806D308AA0AA89F
:1008100009994CF78FFB002857D0002269462046E3
:100820004CF731FC002850D1F06A407A02280BD0F6
:10083000032809D00023684602880AA809994CF7C2
:1008400043FC002802D02FE00123F4E7E18A684648
:100850000181218B4181618B818178780622410958
:10086000684681757878C106C90E6846417521468B
:100870000E305EF741FC189800794006C10F6846BB
:1008800001750388214602A8B26D47F783F9014636
:10089000B06502A842F7FBFB0020B0652146684620
:1008A0001C31008846F7E7F949F766FA734C2034A3
:1008B000207A002805D0002109205CF724FC0020C4
:1008C0002072002108465CF7C6FA19B0F0BDF8B5F1
:1008D0006E4C064685000F4660594C21095C242960
:1008E0000ED140691022791D2E305EF705FC61594A
:1008F00025204031087300221146304654F7D1FAC2
:1009000060594C21095C0C291FD140691022791DC6
:100910002E305EF7F1FB60595F214069095C0907E1
:100920002DD401462E3110221E305EF709FC00281E
:100930000CD06059092140300173304654F7CEFF86
:1009400001460022304653F72BFEF8BD04216846CD
:1009500001706A460521304653F7CCFF684601789E
:100960006020014368460170304654F7B7FF0146E6
:10097000684602780123304653F727FFF8BD30461A
:1009800054F7ACFF012809D06059072140300173AA
:1009900000221146304654F784FAF8BD6159002010
:1009A0004969C031887160590421426930461E325C
:1009B00053F7A0FF605941694031897F002907D072
:1009C0001A21403001730021304654F7F4FAF8BD83
:1009D0001B2140300173304654F742FBF8BDF8B597
:1009E0002A4C05468600A0594C22125C192A11D1C6
:1009F00040224D30491D5EF77FFBA059402224491B
:100A00004D305EF79DFB002805D02149284620394E
:100A10005BF701FDF8BD0B21684601706A460521B0
:100A2000284653F767FF684601786020014368460F
:100A30000170284654F752FF0146684602780123A8
:100A4000284653F7C2FEF8BDFFB581B003980C46A7
:100A5000060A00255CF714FA002827D0132825D0B1
:100A6000142823D00B48B700C0592030407BC00663
:100A700037D503985CF704FA15280DE030BCFC0765
:100A800068B9FC0760BBFC0750F5F1073CBEFC07EA
:100A9000FCBDFC0778BBFC070CD0A07941F7CAFF6E
:100AA000304647F765F8032806D015E0A07941F7EE
:100AB000C1FF1FE002251DE03948C0592030407BAE
:100AC000400704D53D21304642F7B2FC04E03D2208
:100AD0000021304642F7BBFC3D21304646F790F8F6
:100AE00008E0204610382F490181468120464EF704
:100AF00079FD0125284645E52B48522200686430DF
:100B00008188C37E5143294A12688918FF225F32C7
:100B1000525AFF31120AD21A01310B8CD2B2DB0BBE
:100B200009D00B8C5B045B0C0B84002A03D18088FA
:100B30001F4A012111547047FFB51746140A81B0AE
:100B4000174A0298A100515840780026184D0029F4
:100B500007D0295D002905D0002803D1204643F79E
:100B6000CBFE2E553A46049B0299019844F755FE58
:100B700008E510B518220F490F485EF7BDFA0D4B76
:100B80000E480C3B0ECB0EC00B480D49A030016047
:100B90000C49416008490C482039086010BD704775
:100BA00078BBFC070608000084BBFC074CB9FC07B7
:100BB000A864FC071456FC0720000840C000FC078E
:100BC0000459F007490C00BF0700100010B50F4989
:100BD00003205CF70EF9002103205CF73CF910BDFF
:100BE00010B5044601230A4A00210A485BF702FFB8
:100BF00009498C4201D1032103E008498C4201D10B
:100C0000002101704EF7EEFC10BD00002C56FC07D1
:100C100011FC000001080000A5A5A5A5C3C3C3C31E
:100C200010B53248016B402291430163016B3823B8
:100C3000994330310163016B06239943091D016318
:100C4000016B031419430163016B0723DB02194392
:100C50000163016B03235B0299430315C918016308
:100C6000016B130419430163016B0723DB049943F0
:100C700003231B05C9180163016BDB1099431303A0
:100C8000C9180163016BC30599430163016B072315
:100C9000DB0619430163016B03235B0699431305CC
:100CA000C918016311492031898A016B0123194355
:100CB0000163036B81150B430363036B84132343AD
:100CC0000363036B0C042343036309480160BFF310
:100CD0004F8FBFF36F8F074803681B0A1B02134334
:100CE000036003488038016010BD000080100040A0
:100CF00080E100E008E400E010B50C460123FE4A64
:100D00000021FE485BF776FEFD4A21781170002134
:100D100001704EF767FC002010BD10B5F64A0C4676
:100D20000123521E0021F5485BF764FEF54A217845
:100D30001170002101704EF755FC002010BD10B558
:100D4000ED4A0C460123921E0021EC485BF752FE4F
:100D5000ED49A2884A800A462388403AD387E28830
:100D60008A8062880A80002101704EF73BFC0020D7
:100D700010BD10B51A4682230021E0485BF73AFE09
:100D8000112101704EF72EFC002010BDDA4A10B57B
:100D90000123413A0021D9485BF72CFE1121017053
:100DA0004EF720FC002010BDD34A10B50123403A75
:100DB0000021D2485BF71EFE112101704EF712FC94
:100DC000002010BD10B51A4602230021CB485BF766
:100DD00011FE112101704EF705FC002010BD10B569
:100DE0001A4601230021C5485BF704FE112101705A
:100DF0004EF7F8FB002010BD10B51A460123002164
:100E0000BE485BF7F7FD112101704EF7EBFB0020A8
:100E100010BD10B51A4682230021B8485BF7EAFDE1
:100E2000112101704EF7DEFB002010BD10B51A46EF
:100E300082230021B1485BF7DDFD002141701121C3
:100E400001704EF7CFFB002010BD10B51A460123EC
:100E50000021AA485BF7CEFD112101704EF7C2FBBD
:100E6000002010BDA44A10B50823333A0021A3483E
:100E70005BF7C0FD0446031DC21C811C401C5BF7D0
:100E800091FB0146002000290BD0112121706070D8
:100E9000A070E070A080E08020464EF7A3FB002009
:100EA00010BD2070F7E77FB5084610385BF7E7FD07
:100EB0005BF78DFD00246D46039020465BF781FDB6
:100EC00061004919641CE4B24880042CF5D38A4AB5
:100ED0001023313A002189485BF78CFD6D461ECD09
:100EE0001EC00021103801704EF77CFB012004B0B9
:100EF00070BDF8B5804A0F4608230A3A00217F48A2
:100F00005BF778FD814D0446286B6E12B043304389
:100F100028637F493888496A88476060286BB043F6
:100F20000021286338886080217020464EF75AFBE4
:100F30000020F8BDF8B5704A0D460423093A002197
:100F40006E485BF757FD714E0446306B7712B8431D
:100F5000384330636E4A2888926A69689047306BDC
:100F6000B8430021306328886080217020464EF706
:100F700039FB0020F8BD70B518460D465E4A0146A3
:100F80000123323A5D485BF735FD04462878002896
:100F900002D0012805D101E05E4800E05E4841F73B
:100FA000E5FB1220207020464EF71CFB002070BD90
:100FB00010B518460C46504A01460823133A4F48CC
:100FC0005BF718FD218801229207891809684160A2
:100FD00021884180002101704EF704FB002010BDE4
:100FE00010B518460C46444A01460423123A4348B9
:100FF0005BF700FD228801239B07D218616811600E
:1010000021884180002101704EF7ECFA002010BDCC
:1010100010B51C4608464BF7FFFF374A0123113A2B
:10102000214636485BF7E6FC002101704EF7DAFAFC
:10103000002010BD70B50C8818461646032C00D34E
:101040000324CA788B78150252225443334A1D4335
:101050001368E318FF3301335D830B79116861185E
:10106000FF3101318A8B120A12021A438A83224A03
:10107000014601230E3A21485BF7BCFC00210170B8
:101080004EF7B0FA002130465BF7E5FE002070BD58
:1010900010B588781C46002801D0012200E000220B
:1010A0000888114645F7F0FD134A01230D3A214601
:1010B00012485BF79FFC002101704EF793FA002065
:1010C00010BD70B518460C460B4A014601230C3A78
:1010D0000A485BF78FFC227852214A430F490023CC
:1010E0000D685219FF3241325382227852256A43E9
:1010F0000D685219FF3213E043FC000001080000A4
:10110000B0B9FC07D9B9FC0730BCFC07400000406F
:1011100058BFFC07C3C3C3C3A5A5A5A54CB9FC070D
:101120004132938222785224096862435118FF3178
:101130004131CB82002101704EF754FA002070BD7E
:1011400070B518460C4601460123334A33485BF715
:1011500051FC227852214A43314900230D6852192B
:10116000FF3241329381227852256A430D68521929
:10117000FF324132D38122785224096862435118E8
:10118000FF3141310B82002101704EF72BFA002014
:1011900070BD70B5184616460D461F4A014601231C
:1011A000D21C1E485BF726FC04462888032800D37F
:1011B000032047F725FD002805D000212170A978DC
:1011C0006430C17701E01220207020464EF70AFA01
:1011D000002130465BF73FFE002070BDF8B50E469B
:1011E00010491C4615460020C2008A5AA24209D165
:1011F000C00040184768002F07D02A4631461846DD
:10120000B84702E0401C1928EED322463146284652
:1012100002F09EF8F8BD000038FC00000108000054
:101220004CB9FC073C56FC07064C0125064E05E070
:10123000E36807CC2B430C3C98471034B442F7D3F7
:10124000FEF76AFFF05CFC07105DFC070148012116
:10125000018070470E150050E048074909880A07C9
:1012600005D48A0707D4C90705D00E3000E0103036
:101270000188491C01807047B4100040B0B5BE4BD6
:1012800008201880052000070188302211430180C2
:10129000048803210C4304801C896407FCD4038860
:1012A0009343038003888B430380BE4C238B43808E
:1012B000638B9D1E184B5D8007251D800588154397
:1012C000058005880D4305801D886D07FCD40388C3
:1012D0009343038002888A4302804289920702D0A6
:1012E00042898A434281018980220A430281018A1C
:1012F000042291430182818A8907FCD541F711F8C4
:10130000A06A0649086006480168490700D500BE82
:1013100001684907FCD5B0BD001600500802004026
:1013200010000040F8B500250095134E1349716078
:10133000B560316804220A433260EFF3108401275C
:1013400087F310883946814089B20D48FEF712FFB5
:1013500000903068B8433060002C02D087F31088CA
:1013600001E085F310880098414241419B4A117188
:101370000249081AF8BDC04610E000E0FFFFFF0078
:101380000030005080B50A2000F038F880BD80B5EC
:101390000B2000F033F880BD80B50C2000F02EF853
:1013A00080BD80B50D2000F029F880BD80B50E20ED
:1013B00000F024F880BD000070B54001084C049D89
:1013C000002D03D001258D40055303E0251801268B
:1013D0008E406E801343201849004018838070BDF2
:1013E0000230005081400122824003480388934329
:1013F0000B4303807047C0461E30005070B5C0B22A
:1014000003460A3B01210A469A4093B20A4C1C1932
:101410005C406608094B1C880025360402D06D1C10
:10142000760CFAE79443AAB20D46954025431D80F9
:1014300081405048016070BDFFFF01000E14005054
:10144000F8B5044601273E0205200507688DC00552
:1014500006D51B2003F004FF48480188394301806A
:101460008036288840013040698A454A0A40024354
:101470006A8221681148016061684160A1688160E9
:10148000E168C1602169016161694161A1698161AE
:10149000E169C16104623C490A6842624A68826249
:1014A0008A68C2624A690263CA68426309698163E1
:1014B000A88AC00600D4FEE700BEF8BD0090FC0775
:1014C000024800882B481021016070472C130050FF
:1014D000F8B5044605200507288A0421014329821E
:1014E0002889402101432981224801270760224899
:1014F000082101803E02688DC00506D51B2003F03F
:10150000AFFE1E480188394301808036288840019B
:101510003040698A1A4A0A4002436A82216819489F
:10152000016061684160A1688160E168C160216912
:10153000016161694161A1698161E169C16104621F
:1015400011490A6842624A6882628A68C2624A69CC
:101550000263CA68426309698163A88AC00600D42D
:10156000FEE700BE688A094908404018001D6882ED
:10157000F8BDC04680E200E000330050800000501B
:101580007FFE00005090FC0728ED00E0FC7F00008B
:101590007047000080B5F748406A002801D003F08A
:1015A000C1FE80BDD88EFC07B5494A6A002802D02A
:1015B000824200D9486A8A6A904200D9886A084AF9
:1015C0001080C8780221814006484843002803D093
:1015D00000BF00BF401EF9E77047C0462C5DFC0706
:1015E00002000050F10600007047000010B50F4CDB
:1015F000A1880F200840022806D004280BD00C2810
:101600000CD00128F4D110E02088022188432080EA
:101610002088802106E003F0BBFEE9E703F0B8FE76
:101620002088012188432080E2E710BD041100508A
:1016300005210807028830239A4302800288032389
:101640009A430280828812050DD5184A13880B40F0
:10165000052B08D110880421014311801088012135
:101660008843108070478188C90606D510498A884A
:10167000D20702D00A88120610D48088C0060CD582
:101680000B488188890708D50188C90505D502213D
:1016900081800188074A0A400280704701208880C3
:1016A00008888022904308807047C046000200509E
:1016B00000010050FFFE0000F8B56B49694A5388ED
:1016C0001B0706D412880E46520606D44A36483105
:1016D00005E00E4650364E3101E0463644310D4DA0
:1016E00068430027C95F4C1921465DF78BFC0090C9
:1016F000F05F684321465DF79BFC0099091AA942F7
:10170000084600D32846044A914200D80746B8B29A
:10171000F8BDC046FFFF0000FEFF0100FCB5E74931
:1017200000220A800323DA01144690344C804025BD
:101730008D804C244C4E345B8C818C892C4330271B
:10174000BC438C81494C2560BFF34F8FBFF36F8F33
:10175000002800D181E0019300920C88AC43067808
:10176000B70127430F80CB887024A34347783A0101
:101770001A43CA80002E05D1CA8807239A433B0921
:101780001343CB800A880427BA43C3789B001343D2
:101790000B80027912028B88DBB29A188A80CA8881
:1017A0002240334C402A304A13D15220105A00288C
:1017B00000D13248009B324A9081012000030A8800
:1017C00002430A806320C043002829D000BF401C88
:1017D000FAE70A88274B13400B808578102D00D339
:1017E00000BE4A88244B13406A021A434A804A8842
:1017F000019B9A43437913434B808379002B01D09B
:10180000009B80330A8822401A430A80C079082846
:1018100000D300BE40344A882240800110431BE0C0
:10182000184680300A8802430A80088828430880C6
:101830004888384348804888124A02404A800F202E
:1018400040024A8802434A80403448882040184376
:1018500048804888019A90434880088801220243C2
:101860000A80FCBD00150050C08BFC0780E100E041
:10187000FFFD0000FFEF0000FFE1000040760000E8
:101880002C5DFC07FF1F000010B50168002911D571
:1018900001229207046803686400074C05D40068BD
:1018A000000C20401043038004E00068000C20403E
:1018B00010430370C80F10BDFF3F0000B0B50C46C9
:1018C0000025202D04D041F71AF860556D1CF8E76B
:1018D0000020B0BD10B504460548064970225DF7EA
:1018E0000BFC0548001B054908801430488010BDDA
:1018F00070A0FC07AC59FC07B8A0FFFF78A0FC075C
:1019000010B507480188074A1368114C234059183D
:1019100011604088516821400818506010BDC046D1
:10192000183000408CA0FC0710B507480188074A12
:101930001368074C234059181160408851682140B2
:101940000818506010BDC0463830004098A0FC0711
:101950000000FFFFDF481E214180018803220A4367
:101960000280018804220A430280B54801210170E7
:101970007047C046D88EFC0780B50D480078C00778
:1019800008D105205BF77CFA00280FD12A200A49EC
:10199000085C04E00748417D012907D1007D4142F0
:1019A0004141C21E50425041084380BD002080BDCD
:1019B000FDB9FC0788BDFC0730BDFC07074801687E
:1019C0009F4AD27C002A04D0064A1140064A891850
:1019D00001E0034A114001607047C046B810004062
:1019E00077F7FFD577F7FFC08808002A704780B5E2
:1019F0005DF770FB80BD80B55DF775FB80BD0000B5
:101A0000F0B585B00E46D048294A022519462B4626
:101A10005AF7F0FF019033782648029005220620FD
:101A2000002B114600D00146002B00D01046654A1D
:101A30001288D20500D5014602A841701E490391C3
:101A4000FFF76CFE2720C0430126370200280CD088
:101A500000BF00BF00BF00BF00BF00BF00BF00BF8E
:101A600000BF00BF00BF401CF0E7144C2088284393
:101A7000208020888007FCD4E681208AFFF71CFEA6
:101A8000C03761883940B94201D1002104E0618842
:101A9000C905490F0622511A2288B2432280C84044
:101AA0000199088008464DF79DFD002005B0F0BD66
:101AB0001AFE000001050A00000301010015005094
:101AC00010B51946A048044A002423465AF792FF4D
:101AD0004DF788FD204610BD07FE0000FEB51C46F0
:101AE0000F469948234A022321465AF783FF0446AA
:101AF00079780120002201910C29034600D3134676
:101B00003D78694269411940FE780C2E034600D3A6
:101B10001346BF787A427A411A400A4042402280F6
:101B200020464DF75FFD2088002821D10024029433
:101B300011480299814203DC0299491C0291F8E79D
:101B40003F48017CC07B009422462346FFF734FCCB
:101B50003B48817C407C009422462346FFF72CFCC6
:101B6000284601993A46334603F096FC03F034F9CF
:101B70000020FEBD09FE0000CF070000B0B51D46E5
:101B80000C46D7480E4A012329465AF733FF002155
:101B900001702278511E13468B412949CB740949A3
:101BA0000B88DB0507D4531E9A4192024B8D064CDD
:101BB0001C40A2184A854DF715FD0020B0BDC04657
:101BC0001CFE00002A000050FFF90000B0B51D46C1
:101BD0000C467F204202F548042329465AF70AFFA3
:101BE00021785F2904D0332903D10449098800E012
:101BF0005F2101604DF7F6FC0020B0BD02000050EF
:101C000010B51946E9480D4A08235AF7F3FE044671
:101C1000E948007A02280ED103F044FA0848816DA1
:101C20002180416E6180016EA1806821405AE08070
:101C300020464DF7D7FC002010BDC0460DFE000029
:101C4000D88EFC0770B51946FB48204A012423466C
:101C50005AF7D0FE1E490A8822400CD10B88234334
:101C60000B800B8828251D4350239D430D800B8836
:101C700006251D430D800B88DB0701D1FF231BE0E8
:101C8000144B5D885C801D880826B5431D801D8827
:101C900002262E43A6431E801D8804262E431E8046
:101CA00000251E88760703D56E1C642D3546F8D3B3
:101CB0001B885B031BB2DB130370002A02D10A8866
:101CC000A2430A804DF78EFC002070BD16FE000076
:101CD000220000500016005070B51946F0480C4A1A
:101CE00042235AF787FE044610250570801C094ED2
:101CF00031462A465DF700FA6570204622303146AB
:101D00002A465DF7F9F920464DF76CFC002070BDBE
:101D100008FE0000E05CFC07B0B50D46E0480B4A49
:101D20000124194623465AF765FE2A780B2A04D85F
:101D300007490988D140214000E0FF2101704DF79B
:101D400051FC0020B0BDC0460108000013FE000099
:101D500000300050F0B587B00E46F848614A0124C3
:101D6000194623465AF746FE0490357800210B2D7C
:101D7000204600D808467268F37A0593B37A039335
:101D8000777A337A0693032A0ED8930001A6F35884
:101D90000E469F46B71DFC07A51DFC07AD1DFC07A1
:101DA000B31DFC07012305E0204604E001235E0289
:101DB00001E003231E020296012F234600D80B46A2
:101DC000120A022A264600D80E46059A642A22469E
:101DD00001D833401A46069B012B234600D80B46F8
:101DE000002A214600D11946002900D10446FF26C9
:101DF000002C6CD1284601F027FA284601F042FA5F
:101E00000398002818D0012F29D0002F049C5FD1FF
:101E10003748418B0122914341835002AA40334904
:101E20000A806A00511848800699481E8141284658
:101E3000FFF7D8FA00264BE0781E4142414100915D
:101E4000029882B20026304629463346FFF7B4FA9C
:101E50000699481E81412846FFF7C4FA37E0224C14
:101E600001273846A8402149088068004018032609
:101E70003102173141800699481E81412846FFF7FB
:101E8000B1FA4F480188082211430180018831438B
:101E90000180174D688B10436883688B0421884349
:101EA0006883E93403984443124821465DF7AAF851
:101EB000401E2880288800266E80411C05984843D3
:101EC00064215DF79FF8E881688B38436883049C40
:101ED000267020464DF786FB002007B0F0BDC046B7
:101EE0000108000012FE0000FF0200000430005054
:101EF0000834005080841E00FEB50E46B9482C4AB6
:101F0000012519462B465AF775FD04467778367831
:101F1000304601F099F9002E01D1264805800B2E9C
:101F20003DD8022F3BD20294234C002001906072D6
:101F3000A672E772A570607AA17A009503273E0227
:101F400010233246FFF738FA607AA07AE17A4A1E07
:101F50009141FFF747FAE943184802880A40028096
:101F6000174A938B0B409383118808230B431380EC
:101F700011883943118001990180FF210906114A16
:101F800013688B43E90759181160E836468086804C
:101F90000D49C180018829430180029802E0FF2099
:101FA000207020464DF71EFB0020FEBD01080000FA
:101FB00017FE0000000300502C5DFC0700340050A9
:101FC000040000500CE400E0FFFF0000FEB51C46DA
:101FD0000D468448194AF22321465AF70BFDAC7886
:101FE0001221002C22D03C2C20D82A88FF21C904A1
:101FF00055180190471D0094002C14D002AE042205
:102000002846314602F088FAF81E02990170B81E7F
:1020100071780170781EB1780170F0783870641EA4
:102020002D1D3F1DE8E700210198009C44700170C0
:102030004DF7D8FA0020FEBD0108000004FE0000A4
:10204000BCB51C460D466748164A072321465AF779
:10205000D1FC044628782070032807D002281AD122
:10206000611C1248062202F057FA14E06879A97937
:1020700009020818019028790006E978090408186F
:10208000A978090240186978401800900648694606
:10209000022202F053FA20464DF7A4FA0020BCBDFC
:1020A0000108000003FE0000D47F0000D47FF80781
:1020B000F0B585B01C460D464A48214A0223214608
:1020C0005AF798FC0195AE781221002E28D03C2EAC
:1020D0002CD800900198078800242546B54221D2CB
:1020E0003819019909198A7912064B791B049A1833
:1020F0000B791B02D218CB78D21802928A7A120678
:102100004B7A1B049A180B7A1B02D218C979511802
:10211000039102A9012202F011FA0834AD1CDDE797
:10212000002603E00198867800210098467001702F
:102130004DF758FA002005B0F0BDC0460108000078
:1021400005FE000010B5194626480A4A0124234618
:102150005AF750FC002101704DF744FA0648082157
:102160000180064844800521018001880906FCD1D0
:10217000002010BD1DFE0000023300500031005051
:1021800010B519461748044A002423465AF732FC72
:102190004DF728FA204610BD0AFE0000B0B51D46D6
:1021A0000C461048104A082329465AF723FC002100
:1021B000417022780270032A10D861687A4412793B
:1021C0005200974401030609096803E0A2680A6007
:1021D00004E00988416001E0A2680A804DF702FA34
:1021E0000020B0BD0108000006FE0000F0B591B06F
:1021F0001C460D46ED48EE4A022321465AF7FAFBEB
:1022000004462878EB4F3A7D012800D199E0002858
:1022100000D0FCE0A878002800D0F6E0E8780B2891
:1022200000D9F2E02979002900D0EEE069790B2984
:1022300000D9EAE0A979002900D0E6E0E9790B2984
:1022400000D9E2E0297A002900D0DEE0697A0B2982
:1022500000D9DAE0697B002907D0A97B002900D0EA
:10226000D3E0E97B0C2900D3CFE00C92D24EB047EB
:102270006879B047E879B047687AB047687B00284A
:1022800002D0E87B00F0E0FFA878002802D1E878CF
:1022900000281AD02879002802D16879002814D0A3
:1022A000A879002802D1E87900280ED0287A0028E1
:1022B00002D1687A002808D0687B002809D0A87B62
:1022C000002806D1E87B002803D10120387502F0F0
:1022D00023FDE8780022B9490B28134601D84000B5
:1022E000435A68790B280B9202D84000405A0B9051
:1022F000E8790B280A9202D84000405A0A90687A7E
:102300000B28164601D84000465A03930296E87BF4
:102310000B2801D84000425AEFF310800E9001269E
:1023200086F31088B002A64B1988099001431980E2
:102330000E9800280492079600D143E186F3108896
:1023400043E12879002860D168790B285DD8A97805
:1023500000295AD1E9780B2957D8697B002905D083
:10236000A97B002951D1E97B0C294ED20C9200F0B7
:102370006BFFE87800F068FF687B002802D0E87BFC
:1023800000F062FF2879002802D1687900280ED079
:10239000A878002802D1E878002808D0687B0028B7
:1023A00009D0A87B002806D1E87B002803D10120B2
:1023B000387502F0B1FCE8780023EC490B281A4686
:1023C00001D84000425A68790B281F4601D84000C6
:1023D000475A08920A94A87B0B2801D84000435A18
:1023E000297BE3480180EFF31081012484F31088F6
:1023F000E048028820260D96324302800029099386
:1024000007970FD084F310880FE0FF2020803A75E3
:1024100002F082FC02F0AAFC20464DF7E3F800200F
:1024200011B0F0BD002181F31088D14BD24F398813
:102430000E94A14339803988C907FCD1CF4E0020C2
:102440000B9030864821B1824F2131830821B1831E
:102450001721318431880622914331801F21C943DD
:10246000B28F0A40B287328F0A403287198830888B
:102470000E9C2043308030884022024332803088D6
:102480000D9A104330803288102082433280BC4A3B
:10249000521CB38813400B43B380398821433980E1
:1024A0003988C907FCD0B7490A68802313437F22C3
:1024B00093430B60B4490860A8784001AB4BC01847
:1024C000E97849000922425228794001C018697907
:1024D00049000A2242520E984402687B002806D026
:1024E000E97BA87B0B9B00932246FEF765FF68788B
:1024F00001280DD1E87AA97ABA885207FCD5318231
:1025000020433082B8884007FCD5B8888006FCD4C8
:1025100002F0C0FEA87AB9884907FCD530820C9A2F
:102520000A9CB8884007FCD5032000023082B88995
:102530008006FCD0308AC0B22080687B00288B4B9C
:102540000E9E13D00B980F907D2080000F99814232
:1025500003DA0F99491C0F91F8E7A87B400118187E
:10256000801F0088E97BC84030402080E8780B2835
:1025700002D840000899C15268790B2802D840005F
:102580000799C152A87B0B2802D840000999C15273
:102590003888B04338803888C007FCD1F9490888AA
:1025A0000D9B98430880924F31E7C0460108000018
:1025B00011FE0000D88EFC074932FC07063000509F
:1025C00004000050002080F31088704A20200D90F5
:1025D000108090881C2106910843602188439080D8
:1025E00090880321059188439080908880239843A8
:1025F0009080387BFE2101403973002696810E962B
:102600001089089318431081387BF1210140881C00
:102610003873108907210143782081431181108884
:1026200040218843108010880D9988431080E978F4
:10263000A8780096059A12020592554F069BB84756
:102640006979287900961A233246514FB847E979BB
:10265000A87900961B23059F3A464D4EB047697AEC
:10266000287A079E00961D233A46494FB847687B53
:10267000002806D0E97BA87B0E9B00937202FEF730
:102680009BFE6878012811D1E87A0690AF7A02F0B3
:102690007FFD384602F022FD069802F01FFD0E98DD
:1026A0003A49888408880D9A1043088002F0F2FDA8
:1026B000AF7A02F06DFD08980743384602F00EFD30
:1026C0000E9F384602F00AFD304A978411880D9B10
:1026D00019431180C0B22080687B0028C64F0C9A35
:1026E000224B13D00E9810907D20800010998142CB
:1026F00003DA1099491C1091F8E7A87B40011818DB
:10270000801F0088E97BC84030402080E8780B2893
:1027100002D840000399C15268790B2802D84000C2
:102720000B99C152E8790B2802D840000A99C1528E
:10273000687A0B2802D840000299C152A87B0B2866
:1027400002D840000499C152EFF3108086F310883C
:102750008C4B1988099DA9431980002802D086F363
:10276000108854E60E9880F3108850E6063000502A
:10277000285DFC07040000506C130050001300504B
:10278000FFFBFFFF04E400E000E100E00012005066
:10279000B913FC07B0B51D460C46EA48084A0123A8
:1027A00029465AF727F905462078EC49087502F0C2
:1027B000B3FA00242C7028464CF714FF2046B0BD15
:1027C0001EFE0000B0B51D460C46EF48074A012327
:1027D00029465AF70FF9002505704CF703FF2078BA
:1027E000DE4948733FF72CFF2846B0BD1BFE0000B2
:1027F000D88EFC0710B51946E348054A01235AF75D
:10280000F9F8002404704CF7EDFE204610BDC046D8
:1028100018FE0000FEB50E465648574D01241946D5
:102820002A4623465AF7E6F8002707704CF7DAFEE7
:102830004BF78AFB3078022816D0012807D00028F1
:1028400000D094E05648C770584807708FE002F0F7
:10285000A7FD4B480770B07871780A4602435ED1F5
:102860004F480221017165E002F09AFD43490820BA
:10287000088043490F7072B6424EB28904210A4360
:10288000B281B28880239A43B280B28840230293F7
:102890001A43B2803C4A118032883C4B134033804B
:1028A000FA433B4B1A60328AD206FCD47E35F28959
:1028B0002A40F281E243374B9D8815409D80364D7A
:1028C0002F680F432F60B58A25430227BD43B58289
:1028D000B58A0D4301908543B582B58A10202843FF
:1028E0002025A843B082B0892043B08118881040C9
:1028F00018800F2080029A8A02439A82A0039A8A43
:1029000002439A82F08C254A1688C00517D46020AD
:1029100006431680988A03220243029F17E0204A4A
:102920001471204A4A4319218901414388181E49DC
:10293000096848621A48C4701C48047017E02E43A6
:102940003846029FBE4316809A8A0243A2439A8267
:10295000988A019A10439882988A88439882188BA3
:102960003843A843188300BF00BF00BF30BF00201A
:10297000FEBDC0460208000001FE0000003300500A
:102980001C8CFC070400005000020050FFF7000000
:1029900080E200E00C03005010ED00E05200005017
:1029A00054BAFC070077010058B9FC07B4BAFC0719
:1029B000BCB51C460D46B5480E4A002321465AF7C1
:1029C00019F804462878B64DA871287A00280BD14A
:1029D0006248583012215CF7A8FBA97901A8017060
:1029E00048F7D4F80220287220464CF7FBFD00205F
:1029F000BCBDC0460CFE0000D88EFC07B0B5194621
:102A0000A2480A4A0024234659F7F4FF0546A44881
:102A1000007A052808D102F003FC02F043FB9F482E
:102A2000046028464CF7DEFD0020B0BD10FE00001B
:102A30007CB51C460D4695481D4A0023214659F792
:102A4000D9FF04462878964EB07168787071307A54
:102A5000002828D101AD25206870B07928707079E0
:102A6000A870FEF7ABFF284648F703F80120C20321
:102A70008A490B6813430B6082030B6893430B6016
:102A800002030B6893430B600A680A4B13400B6008
:102A90000521317200027F490860BFF34F8FBFF3F9
:102AA0006F8F02F085FB20464CF79CFD00207CBD1B
:102AB0000FFE000000FEFFFF80B50878784A907195
:102AC0004878D07188785071C87809790902081857
:102AD000508202F0C9FA002080BDC0467CB50C4689
:102AE0001848194A012519462B4659F783FF2178C2
:102AF0000026052900D8354605704CF773FD4BF7C5
:102B000023FA01960198C82803DA0198401C019025
:102B1000F8E700202056062804D20CA1095C0DA27B
:102B2000105C01E00B2108200C4A917550750322BE
:102B30003FF7BCFD002420463FF714FE3FF7DAFDC7
:102B400020467CBD0108000015FE00000301060BB5
:102B50000001000068341108011A0000D88EFC073B
:102B600070B50C46CF48094A642519462B4659F7DB
:102B700041FF064621462A465CF7BEFA30464CF72E
:102B800031FD002070BDC0460108000014FE0000A9
:102B9000F8B50E46C3483E4A002519462B4659F75C
:102BA00029FF0446307854282CD0522812D04F28C0
:102BB0006AD102F035FB3A4E307A062854D0072805
:102BC00058D102F06FFA0120C00734490A688243E5
:102BD0000A604FE0012000022E490860BFF34F8FCA
:102BE000BFF36F8F7578FEF7E9FE6846057047F70B
:102BF000CDFF2948401C29490A6802430A60284839
:102C000007212DE00120000222490860BFF34F8F09
:102C1000BFF36F8F7678FEF7D1FE224D2846FEF780
:102C200033FE0C20071D342F05D02818FEF72CFE8C
:102C300000283846F6D13820071D582F05D028180F
:102C4000FEF722FE00283846F6D1174803214170CE
:102C500016483018164A10601648016010480621C0
:102C6000017202F0A5FA0CE0124805600E4802213C
:102C700081700580012000020F4908600F4908603B
:102C8000357220464CF7AEFC0020F8BD010800006C
:102C90000EFE000080E100E0FFFFFF7FE00000404B
:102CA0002C5DFC0770A0FC070410004000016209C5
:102CB00004300040AC10004000E100E080E200E0A1
:102CC000F0B58DB01A460D467648774F022311466F
:102CD0003A46079359F78EFE0446297807291CD8EF
:102CE0006878AA78120212187944097949008F4449
:102CF00016191C2F3A4503036C49FE2802465DD184
:102D00000E46891D00200C2853D00A880F2313403B
:102D1000012B51D0891C401CF5E70027D4E1644801
:102D2000008830E0624802802CE06148018A01227C
:102D3000120280320A40802A06D1418AC906FCD498
:102D40007D37018A3940018203200002401D17E0CF
:102D5000264690B2FF210C1A55490B8800209C4250
:102D60000ADB9A1807E0264651490B8894B20020E6
:102D7000A34201D39A1A0A80344604E0012040029B
:102D80004A4908820020208000274A4A117CD07BD3
:102D9000537C984204D1927C914201D10026BFE13C
:102DA000002216460092032212020223FEF704FBC1
:102DB000B6E10C22FF2000E002463146C6B20027F1
:102DC0000C2E01D3384602E070000818801D0B2E2F
:102DD00006902CD8039507880292D5B2284600F0B9
:102DE00033FA284600F04EFA002D0BD1E748C17B9C
:102DF000002907D1007C002804D10120E249888005
:102E00004002C880049401221002069908800399A8
:102E1000897800230C930B9301930A93002908D01F
:102E2000012949D1AF218C00DA4B114603E004207F
:102E300048E1D74BFA24D84D0A226A62AC622B6370
:102E40006A631422AA636E22EA636A6A6A64AA6ADF
:102E5000AA64E970E96BE9620B2E2DD8B10001A2DA
:102E600051588F46952EFC07C32EFC07D32EFC0726
:102E7000E32EFC07F32EFC07032FFC07132FFC07A0
:102E8000232FFC07332FFC07432FFC07532FFC078E
:102E9000632FFC0703210902BB4BDA888A430243F4
:102EA000DA8065E00108000002FE000000300050FA
:102EB00002000050D88EFC07039D049C029A0198E2
:102EC00000E103210902B04B1A898A4302431A81A7
:102ED0004EE003210902AC4B5A898A4302435A81CE
:102EE00046E003210902A84B9A898A4302439A814A
:102EF0003EE003210902A44BDA898A430243DA81C6
:102F000036E003210902A04B1A8A8A4302431A823F
:102F10002EE0032109029C4B5A8A8A4302435A82BB
:102F200026E003210902984B9A8A8A4302439A8237
:102F30001EE003210902944BDA8A8A430243DA82B3
:102F400016E003210902904B1A8B8A4302431A832D
:102F50000EE0032109028C4B5A8B8A4302435A83A9
:102F600006E003210902884B9A8B8A4302439A8325
:102F7000049CE86AFEF718FB3046FEF7D3F90A9086
:102F80000A98296B884205D30A98296B401A696B05
:102F9000884219D90A98296B884205D2286B0A9968
:102FA000401A696B88420FD90A98296B884214D954
:102FB000A86C0890A86CFEF7F7FA3046FEF7B2F955
:102FC0000C900020099013E02C35029A2868411CCF
:102FD00076D0801C039D60D071E7686C0990686CA6
:102FE000FEF7E2FA3046FEF79DF90B9000200890BC
:102FF000002405970A9A2B6BE86A0A999A4202D92B
:103000000B91099001E00C91089035466248006BE5
:103010000B9B0BA90CAA0C9FBB420B4600D313467B
:103020001B680B9F0C9EB74200D811460A68D11A44
:10303000121A099E0898801B50435BF7F9FF80190C
:10304000554FF862F86AFEF7AFFA2E463D46304615
:10305000FEF768F90A900A98396B8842059F05D3F4
:103060000A98296B401A696B88420DD9601C0A992D
:103070002A6B914205D2296B0A9A891A6A6B91428E
:1030800002D9092C0446B5D32879002807D000209E
:10309000FEF78AFA039D049C029A079812E00A98A8
:1030A000296B6A6B891A8842049C05D30A98296B9C
:1030B0006A6B5118884255D90020FEF775FA029ABA
:1030C0000120039D20802978FE200840062816460E
:1030D00023D1022038431F21014003291DD104942C
:1030E000D1B20120884028492D4A13460C8820423D
:1030F00004D05B1CFAD301E0521C02D20B881842A8
:10310000FAD000200C902748049C32460C9981424A
:1031100003DA0C99491C0C91F8E7100600D134E64B
:1031200020464CF75FFA2878FE210140062916D187
:10313000022038431F210140032910D1F1B20120A0
:103140008840194A10490B88184203D1531E1204B3
:103150001A46F8D10698002801D00698078000206A
:103160000DB0F0BD0D4800882864286C696A88425B
:10317000029A02D8286C0028A2D1286CA96A884239
:103180009ED2403522E7C04600300050D88EFC0762
:1031900000127A00007C92002C5DFC0702000050B7
:1031A000E708C9FF120E0000B68C000081B0254868
:1031B0000021016000910098FF2803DC0098401C6A
:1031C0000090F8E71D4800781F2149011A4A13684A
:1031D0008B43C006800DC018106001B07047C04618
:1031E00081B01748022101700020009000980B2840
:1031F00002DA0098401CF8E701B0704781B00E4831
:1032000001688905C90E0D4A11701F214901026824
:103210008A4302600A48012101700A4801680322BA
:103220000A430260002000900098FF2802DC00980A
:10323000401CF8E701B070474C120040105DFC07DD
:1032400006100040AC1000400C490A8802280DD03E
:10325000D205920F052801D1012A07D0012801D1FA
:10326000022A03D00A2808D1032A06D14888C006BA
:10327000FCD40888024A02400A80704712000050BD
:103280007FFE000080B5002814D1F148017D02299D
:1032900010D0017CC27B13460B4301D1022303757E
:1032A000437C934204D1827C8A4201D10121017581
:1032B00001F032FD80BDC046FEB51446002916D08F
:1032C00005460127002B15D02288002D17D008783D
:1032D00028706E1C0220002A0ED0022B0BD3029203
:1032E0004A783270029A012A0DD8AE1C04E00021FF
:1032F000084602E02E463846711B2180FEBD01269D
:10330000022B3046F8D3C8180290881C49788906E9
:103310000B0E0090C1180191AE1C029901988842D1
:10332000E9D80099002D0CD0A818029030461F460D
:103330001A465BF7E1FEF0190299884204D8002092
:1033400003E000201F4601E001204000F619D3E70A
:1033500070B51346024600200C4C102804D0255AA4
:103360009D420BD00830F8E70020094C0546F02DAF
:103370000BD0665B9E4203D00835F8E7201800E0CA
:103380006019001D04681846A04770BD985CFC07D2
:10339000285AFC07FEB51446002905D00546012031
:1033A000022B04D22E4641E0002088213FE0CE18B7
:1033B000002D12D0029627880A784E786E702A70F7
:1033C000AE1C0222022F06D3032B2FD38B7833702F
:1033D000022F11D8EE1C104628E0032B01D2022642
:1033E00024E08A789206170EC919C91CB14201D986
:1033F00003261BE0002017E0C91C9A06120E01915B
:103400008918EE1C029B994210D8E81902903046A8
:10341000019917465BF770FEF0190299884201D8AE
:10342000002000E001204000E919CE1C711B218022
:10343000FEBD000070B5EFF31085012484F3108801
:1034400005200007028880210A4302804B4A136846
:103450000726B343136053685B07FCD5484B1361E1
:10346000484B536102888A430280408DC0050DD5C8
:103470007F48002141723F4E307801F0F1FE7078B4
:10348000002803D13C480188A1430180002D02D0CF
:1034900084F3108870BD002080F3108870BDC04692
:1034A000FEB50446164E30680727384002A908705A
:1034B0000878A04222D0134D2888C00517D5A01E39
:1034C00040B211A1085C019001F0C0FE0199884250
:1034D00002D2084601F0C4FE27480188C90706D178
:1034E000018801220A43028028884007FCD5306801
:1034F000B8432043306070684007FCD5FEBDC0462D
:103500000000F4072A0000500B130B0B0B00000007
:1035100070B5EFF31085012484F3108805200607A9
:10352000708DC00509D55248447201F08FFE1149D3
:10353000087011480088204048703088802101437D
:1035400031800E48016807229143016041684907B4
:10355000FCD53188090600D400BE0949016109493A
:103560004161002D02D084F3108870BD002080F3EB
:10357000108870BD2C5DFC07800000500000F4072F
:103580000F009909090404A4B0B50D4604460520AE
:1035900000070088000600D400BE1046FFF780FF39
:1035A000FF20C004A90008582168091A4842484170
:1035B000B0BD0000F8B51B4FBC68204600F034F8E1
:1035C0002B4D296B00222A630E180C4930465BF7FD
:1035D00019FD78610A494143881902D00749081A40
:1035E00080B238613868082101433960E86A0028F0
:1035F00002D0A04200D200BEF8BDC0467102000059
:103600008FFDFFFF80B506480021016001F0F6FC48
:103610000120C00703490A6882430A6080BDC04692
:10362000A8B9FC073000004080B50246C00B09D0A5
:103630000F48006C00210B465BF70EFD8905800AE0
:10364000401880BD0A48006C4243900A80BDC046C5
:10365000D88EFC0780B5FFF7E7FF80BD80B5044931
:10366000896B41430348081803495BF7CBFC80BDD5
:10367000D88EFC0720A1070040420F0000B597B08C
:103680008B48082505808B4F388812AC2080208815
:10369000C046C04620880422D1430842119202D07D
:1036A0000020388003E0B88901218843B8810F23C6
:1036B0009802B98B0143B9837F4E3088284330800C
:1036C000F08D06229043F085012010908003B98B85
:1036D0000143B9833088794901403180708805926F
:1036E0001043A843708005202C460C900507698D77
:1036F000734AFF32F08D10400F931A03109BC905D7
:10370000099408921AD57D21C90018310843F08523
:10371000F08D6C490140D8030818F085B88B204320
:10372000B883B88B11998843B883F08D98430C46C1
:10373000F085B88B40218843B88319E00321490202
:103740000843F085F08D1043F085B88BA043B88313
:10375000B88B04218843B88370885B49014071802D
:10376000F08D01210143F185119C688D4007FCD546
:10377000B88B032100910843B8833088202210437E
:103780004021C94308403080388C069210430840DD
:103790003884E88A8022079210430840E882288E05
:1037A000FF2188432886288F0999084314218843DC
:1037B000288746480480A88845490140A980109E72
:1037C000300444490860FFF7A3FE02200B90FFF786
:1037D00067FE41480068C1B20C20AA29014600D00A
:1037E00021462A88824388182880C046C0463B4824
:1037F000008848273A49C8533A48006858243A4B49
:10380000002211921A5348643046C046C046374BD6
:10381000181F00683649884200D06CE10D940F985B
:103820000407042000210A910E970F9406461918E8
:10383000081F1A46EC32904200D32AE10068139028
:10384000139B234009200407139AA34265D1139BBD
:103850001C0AE7B2D2B2921F112A00D9DFE092000F
:1038600001A39A58214B9746F538FC078D39FC0780
:10387000433AFC07433AFC07433AFC07433AFC0748
:10388000433AFC07433AFC07433AFC07433AFC0738
:10389000433AFC07B539FC07DD39FC07073AFC075A
:1038A000233AFC07433AFC072D3AFC07353AFC075C
:1038B000003300500403005052000050FFBF0000CE
:1038C00000F0FFFFFF0F0000FFF9000000020050B2
:1038D000FFF7000080E200E0D07FF807D87FF8070C
:1038E000D88EFC07D47FF807C08BFC07D47EF8077E
:1038F000A5A5A5A5C74A0D98105CC0001018BA0070
:103900005BF7FAFB0D99C34A505C00195054C0B2E2
:10391000052800D283E000BE81E0900F10D01398FC
:10392000BD4988420CD83046083029462831139AC0
:103930008A421FD1B94BF158B94A51800F9C75E7A3
:1039400013980F9C204007210907884203D10020CB
:10395000C046C0460BE0139820400121C9078842A9
:1039600005D0139820400C99490788426FD1301D2B
:10397000AA4B5BE7A91C139A8A42A84B0F9C6FD1F4
:10398000F1585622A34B9952A44B4FE75922049267
:10399000A04B985CC00018181030BA005BF7ACFB65
:1039A00004999C4A505C00195054C0B20D2836D37B
:1039B00000BE34E0F1584843F258120C801A00B2AD
:1039C000C0084623934CE052944B88B2101A8108E9
:1039D000944A11400818401C442112E0F158484311
:1039E000F258120C801A00B2C0084A23894CE052E7
:1039F0008A4B88B2101A81088A4A11400818401C64
:103A00000E9960521DE00A9CA00014AA1018BA007A
:103A10005BF772FB3C190A94032C00D300BE7F4B6A
:103A20000FE0F05852217B4A50520AE0F058794991
:103A3000086406E0F0585421764A5052000400D140
:103A400000BEB8003018001D0E9F0F9CEEE61398C4
:103A50002040032149078842704B0AD1301DE5E61A
:103A600029462431139A8A4209D1F1586C4A91802F
:103A7000DCE61398401C0CD000BE3046D6E6294642
:103A80002031139A8A4200D0D0E6F158644AD1809E
:103A9000CCE64C2014995F4C2152092015994843DB
:103AA0000A0C801A00B2C0085023E05288B2101AE3
:103AB00081085C4A11400818401C4E2160520D9A42
:103AC000A05CC10701D000BEA05C4008A0545920F2
:103AD000215CCA07109E01D000BE215C4908215418
:103AE0005420225A002A03D17D22D200494B1A5277
:103AF000042900D000BE56204649085A00284A4BE7
:103B000006D14A480068C0B2AA28079800D06E20A3
:103B100032021883A98CB143A98411991491149984
:103B2000142902DA1499491CF8E70D926989314386
:103B30000B9A9143698169894906FCD5688011987F
:103B40001490E120C0001499814202DA1498401CBC
:103B5000F6E7688900998843688168890006FCD582
:103B60007F205870FFF766FC314C27683148324996
:103B70005BF7DBFA07200A90010230485BF7D5FAC1
:103B80002760FDF70CF82E482E4901602E482F497A
:103B90002A225BF7B1FA2E481199C17181714171E6
:103BA0000171C170817041703F21049101702948F9
:103BB00029A140220E925BF79FFA4B2082003648E3
:103BC00036495BF799FA1720C043354900280BD0D6
:103BD000314A121851239B00D2180B181833D0CB3E
:103BE000D0C2109E0C30F1E7512080002A490818FD
:103BF0002C4A1E21002957D013460F910146044636
:103C0000C1CBC1C408460F99109E491E0C300C321E
:103C1000F0E7C046C08BFC074C420050D47EF8074A
:103C2000A000FC07FF3F0000D88EFC07D07FF807FC
:103C30005CBAFC0700A0FC07AC14000000B9FC074C
:103C400060BAFC072C57FC0700BAFC077CFCF107A4
:103C5000DAB9FC07B0BCFC072000800000C00000FF
:103C60000000840000002822000000000000040082
:103C700000F7FFFF7F00000030F0FF0F00000000A2
:103C80000004000000000000000000000000000030
:103C90000000000000000000208CFC0738FBF1074A
:103CA000805CFC07185BFC073A20BE494885BE488B
:103CB000C862BE480670BE48BE490160BE48BF49E2
:103CC0000160BF49BF480860BF480A210170BF4872
:103CD00011990170BE48322103910170BD480C99C1
:103CE0000160BD480660BD480160BD48059901609E
:103CF000BC480A990160BC48099C0460BB4FBC48A1
:103D000038600D98801DBB490860BB49086000F011
:103D100067FC30463EF7F9FD288930218843288129
:103D20002889079908432881288920432881288CDD
:103D3000B0432884688918218843688128890E99AE
:103D400008432881288A04210F9188432882A88A61
:103D50008007FCD50899FF31E88C08400B21090247
:103D60000143E984E88C109C2043E8846889099920
:103D7000084310210A9188436881688CA0436884B5
:103D80000E98C1430C91288908402881E3483730B8
:103D9000A207089211680140116004984002E04AAD
:103DA00011688143600308181060DE48411C0591CA
:103DB00010680843106038683EF74CFADA4F119EDD
:103DC0003E71FE70089A10680D9908431060FDF767
:103DD000C1FD204600F08CFCD4490E720B9848714E
:103DE0008E712520C87103984882FE70D0480670F5
:103DF0000E82D048583012215BF797F9C8490868FD
:103E0000059A10430860E88A079908430C9908400E
:103E1000E882FFF7F7FB2046FCF702FFE0030C9077
:103E2000C548C6490818C64940188008401E059074
:103E3000089C069E2889000600D4E6E0206B0C99B9
:103E4000084200D0E1E0B8480088C00700D0DCE0BC
:103E500059F7D3FA0027384600F04AFCB548807B72
:103E6000042873D1109800F043FC139713A8042181
:103E700049F764FE0028AF4A68D01098B14908603D
:103E800008680028FCD1E069D169884201D2D76175
:103E90003946411AC909192958D3D061AA4C20883A
:103EA000049060880390A0880290E08801901597A4
:103EB000A648149014A8FDF731FC20880B990843FC
:103EC000208020888007FCD41098E081208A9749C0
:103ED0008989401A7D21C9004143002804DC9C4A9D
:103EE0008918C017084001E09A4808189A495BF7FA
:103EF0009FF8840919348F4A50787F281BD0201AE4
:103F000041B2C9114018484040B2082814DB106A79
:103F1000401C106200F01AFC00F0A6FA00F078FFD6
:103F200001F0A2FA00F02AFCFDF7EAFC814A0B98A6
:103F30008A4988700F8054708348039941800299A0
:103F400081800199C18004990180089C8448806D1A
:103F5000764A117A012905D1002803D1177201F0A0
:103F600083F8724A108A518A88420DD3107A012848
:103F70000AD117827B4839467B4A3B4658F73AFDBF
:103F80004BF730FB01F08EF859F737FA0B98C04326
:103F900067490978C91E814230D864207349086096
:103FA00048E7C04600BAFC07208CFC07FDB9FC07B7
:103FB00050B9FC07603FF20754B9FC074457FC07AF
:103FC00058B9FC07C058FC07B0B9FC07B1B9FC07E9
:103FD000D9B9FC075CB9FC0760B9FC0764B9FC07F8
:103FE00068B9FC076CB9FC0770B9FC074CB9FC0751
:103FF00000A0FC0748B9FC0744B9FC075B4A1068FD
:10400000411E1160002800DD14E7FDF7B5FC002813
:1040100000D10FE772B6444800790228119802D007
:104020003D480068406A1490E9480089C007119F24
:1040300000D0A3E058F7ADFA0028119F00D19DE011
:104040003948C0780028109F00D197E0A88AC0079F
:1040500000D0B3E1E64800880028109F00D08DE032
:10406000E648806A002803D0DD480068406A149062
:1040700000F0C4FFDE48817814A859F782F80028C0
:10408000109F00D17AE020694006109F00D575E0AE
:10409000D748817814A849F751FD0028109F00D116
:1040A0006CE04BF7CDFC0028119F00D166E04AF789
:1040B00047F90028119F00D160E0CD48817814A80D
:1040C00059F75FF800281FD0206940061CD4C84863
:1040D000817814A849F732FD002815D0C84A108805
:1040E000C84908400D9908431080149A002A00D14D
:1040F00005E1206ABB494018DA28EB4B00D902E100
:10410000521E04921492FFE0B4480078C0072FD1E9
:104110003EF7D8FA31E0C04658B9FC07C8FEFFFFA9
:1041200000020040FFFF1F0054BAFC072C5DFC0793
:10413000B4BAFC07D88EFC07085C00001001FC072D
:10414000030004F8FC0000400015005001040000CA
:104150002BFDFFFFD5020000AA050000041000405F
:10416000B0BBFC07010800000BFE0000145DFC075B
:1041700000203EF7F7FA3EF7BDFA109F954AB81EA9
:1041800002282CD2288A0F9908432882022F30D087
:10419000032F54D1984B18680F9908431860108961
:1041A000109EB0431081688A0A9C20436882688A06
:1041B00008436882FFF7ACF9688A20436882059853
:1041C00095490860EFF3108086F310882988079AD4
:1041D0009143298000281AD086F310881AE0012F15
:1041E00000D08AE0FDF7C8FB002800D185E030BF91
:1041F00083E0814B18680F99084318601089109963
:1042000088431081688A0A998843688215E00020F3
:1042100080F310880D99688D08426E4A069E089CAE
:104220000BD00020B84948720B2001F019F8694AF8
:104230006949C88D109B1843C88500202883688D64
:104240000D99084205D1644908880E9B1843B04374
:104250000880108C0E990843B0431084B80716D517
:10426000A88C10998843A8840020149014991429CC
:1042700003DA1499491C1491F8E76989109B1943D2
:104280000B9B9943698169894906FCD56880A88A96
:10429000C00602D509984E49088030BFA88A554803
:1042A000007802280AD1688AC005800F5B4908801F
:1042B000288D4880A88C8880288CC880688D0D99AE
:1042C000084209D14448C08DC00705D0424908883A
:1042D00030430E9B98430880108C30430E998843DE
:1042E000108400F07DF900204149C87041490870F0
:1042F000414A10680F998843106062B69AE5002021
:104300000490EB4B00E00492588BEC4A916908183A
:10431000D061E06B3C4F38400843E063E06B3B49C1
:104320000840116A89020143E163E06B2F490840AC
:10433000D16949050818E0633548049A824200D3E0
:1043400000BE186D596D1F4600235AF785FE0903FC
:10435000000D4018411ED948006A421C914200D00D
:104360000846F862224909794A1E914145F7FCFA4C
:104370002848C06A80470C99206B0842FCD00D99F0
:10438000194F38680842FCD038680799884338606C
:104390000F484089452805D846210D4A5181081A01
:1043A000E74908633DF791FFB868E54988623868D6
:1043B0000006FCD528890799884328810D48007894
:1043C00001280B9F034A00D1D9E6009FD7E6C046DB
:1043D000003300500403005052000050FDB9FC07A8
:1043E00058B9FC07C8FEFFFF00020040FFFF1F0096
:1043F00054BAFC07B4BAFC0710ED00E074BEFC0729
:1044000038300050FFFC000000FCFFFFFF03E0FF1E
:1044100040420F0058BFFC072000F407A000FC0733
:1044200080B54AF72AF800F09FFF80BD80B54BF7B2
:1044300032FA00F099FF80BD7CB514460D46064661
:10444000BF488178012908D1017A007900220092C1
:10445000032212020223FCF7AFFF30462946224610
:1044600049F789FD7CBDC046F0B559212548415C1E
:104470001030B34A527B00230D4E8B4212D2476854
:104480000A2A3C4606D33D46084C2540214C246868
:1044900064042C430568B54200D127462F600830DC
:1044A0005B1CEAE7F0BDC046D88EFC07FFFF01FCAD
:1044B00038300040F0B558211248415CA04A527B88
:1044C0000023124D134E8B421AD290C80838AC42CA
:1044D00012D1FC01640C2C460ED00A2A2C460BD3B8
:1044E000032424023C403F04BF0E3C192C60C488C6
:1044F000074F3C40346000E0276008305B1CE2E777
:10450000F0BDC046C08BFC07D88EFC074C100040A5
:10451000FF010000245DFC0770B514460D460646F9
:10452000FEF7F6FF0220FEF7BBFF28463146224683
:104530005AF7E2FDFEF77EFF70BD0000F0B585B0D2
:10454000039202910546052007070024234E019798
:104550000398844240D0FEF7DBFF3888000600D481
:1045600000BE3888000600D400BEA000E90B00D0D1
:1045700000BE02990F180495AD080320FEF790FFC6
:10458000002228463946D20709D10A68B260706015
:1045900032689207FCD5401C091D0122F3E7306800
:1045A000C007FCD0042238462946FEF7EDFF00285C
:1045B00010D0052238462946FEF7E6FF002809D02C
:1045C0000320FEF76DFFFEF735FF641C049D2D1DD3
:1045D000019FBDE7FEF72EFF05B0F0BD0400F40714
:1045E000FEB5574800250575324E358001200290F2
:1045F0000002019005200707788DC0051AD55048A4
:10460000407A012803D100F021FE1B2812D82A4C41
:104610002088C00400D4308CFF201C30D249088090
:104620001B2000F01DFEE08D02990843E085788D87
:104630004007FCD522480188802631430180FCF7E1
:1046400098FA388830218843388038880324A0437A
:1046500038801C4808220280B8883043B88001990D
:104660008031388840010840798A174B0B4003435A
:104670007B82164807210180154EB5803580832046
:1046800030812F4B587D002801D0997D03E00B210C
:1046900099755A75104622463EF708F8348100F0A5
:1046A00065FB04498889029A10438881FEBDC04693
:1046B000D88EFC0700030050520000502C5DFC0710
:1046C00000150050003300507FFE0000881000509D
:1046D0000410005003480188034A11408918091D3D
:1046E0000180704712000050FC7F00007047704747
:1046F000B0B5E54D2978012921D11249002803D010
:1047000008884007FCD402E00888400717D400233B
:104710002B70C8888988000444181F20400649214E
:1047200022465EF79DFE2865696564214143080CB9
:10473000A86305486043800B401C40082864B0BD56
:10474000D88EFC07001600501111010082B0D3482A
:104750000821017000210191019A102A05DA019ABD
:10476000521C0192F8E70099491C00910099102908
:10477000F9DB0321417002B07047C046F0B585B047
:10478000774803230370774D2846143801681422B4
:104790000A436B218A430260A86A73494861002674
:1047A000F043A86228683F218843286028686F4F3B
:1047B0003840286068686E490840012101918C02E8
:1047C00000196860686840210143302081436960B6
:1047D000A869684908400B2149064018A861A869E2
:1047E00065490840029359024018A861A869182138
:1047F000014327208143A96143202871FEF7F0FC83
:10480000FEF7FCFC039604960498A04203DA049891
:10481000401C0490F8E75248029901705748066816
:10482000FEF7C4FC039804900498102802DA049858
:10483000401CF8E7286852490840F10540182860F4
:10484000403728683840490C0143296041200090D6
:10485000287168684649084020436860FEF7C0FC3C
:10486000FEF7CCFC039804900498A04202DA049866
:10487000401CF8E73A480299017040480668FEF784
:1048800095FC039804900498102802DA0498401CC0
:10489000F8E728683A490840F10540182860B00157
:1048A0003849084029683940014329600098287137
:1048B00068682F49084020436860FEF791FCFEF7C6
:1048C0009DFC03980490284E0498A04203DA0498B3
:1048D000401C0490F8E722480299017027480068BC
:1048E0002968274A1140C20589182960296839407A
:1048F000254C0440A001084328606868019988435A
:1049000068607069A86228681C21014323208143E4
:1049100029602868154908402860A8691549084099
:10492000072189060143A961A869134908400F219D
:10493000C9010143A961A8691E21014321208143C6
:10494000A961FEF733FC0398049004980F2802DC59
:104950000498401CF8E75620345205B0F0BDC0461C
:1049600005100040183000402C5DFC07FF7FFFFF62
:10497000FFF9FFFFFFFFFFC03FF0FFFF883000405F
:10498000FFFF7F00C07F0000FF01000070470000B4
:10499000F0B58BB03022002181541F221204314B1C
:1049A0001C6894430122550464191C602F4C304D3F
:1049B0004561304D304E314F314BC3610662446228
:1049C000294B8362C5622F4B07604360D004CA4AFB
:1049D000136883431360282903D001A84154491C5C
:1049E000F9E7CB480068403001A928225AF784FB38
:1049F000DA4809214173FFF7A9FEFFF75BFDFFF7D6
:104A000033FD00F005FA00F02FFD00F04DF8FFF740
:104A1000B5FEFCF775FFFCF787FF1C490B881C48A7
:104A200004681C4A1440E31803601B4B1C8885690A
:104A300015402C1984615B88C4691440E318C36174
:104A40004B8A046A1440E3180362898A436A13405C
:104A500059184162AA4802218170002101800BB0DF
:104A6000F0BDC04674000040A54AFC07A14AFC07FF
:104A7000894BFC076D4BFC079115FC07454BFC0768
:104A8000474BFC078D49FC07D88EFC0710300040CF
:104A900088A0FC070000FFFF6430004004100040C5
:104AA00000207047704700000E4908880E4A0240F7
:104AB00001204302D2180A8041058F4A13688B43B4
:104AC0001360810700224A671F2212044B6F934331
:104AD0004004181848670868E02202431020824307
:104AE0000A60704738300050FFFC000010B51F20EE
:104AF00000040124A1074A6F82436004101848672C
:104B000008680722904308600D48018808220A437C
:104B10000280FFF71BFEFFF7CDFCFFF7A5FC00F0BE
:104B200077F900F0A1FCFFF7BFFFFCF7FDFE74482A
:104B300002218170002101802046FCF771F810BD30
:104B400008000050704780B54108732900D3E62063
:104B5000282800D82820F9214A0042437D20C1009E
:104B600010465AF74FFA7F38C0B280BD0548016839
:104B700007220A430260012080045F490A688243D9
:104B80000A60704730000040022902D0012900D09D
:104B900000BE002802D0FF2804D000BE022901D1A7
:104BA0000C2070479948407B7047C046F8B5524882
:104BB0000168C90703D0016802220A430260012488
:104BC0000168490203D5A10502680A430260260272
:104BD00065024A490095084608380768002F00D149
:104BE00089E0380606D58020086048F750FEFCF7BB
:104BF000B1FE4249B8070AD5022008604248006861
:104C0000B021405C00F0E8FB44F73FFD3B4938072A
:104C100027D5082008603D4800686821415A522283
:104C20004A433B490968711889185E22895A090A62
:104C30007F22805C081AC0B200F0CEFBFBF75CFF5D
:104C4000354626460024204644F7D8FC2B4904204C
:104C5000DC4A907302202A4A9070148034462E4613
:104C6000009D374204D00E60012044F7C7FC234961
:104C70002F4203D00D6048F773FE2049780604D513
:104C80004020086044F7B5FC1C49F80604D5102004
:104C9000086043F771F8194978071BD504200860AC
:104CA00018490888A04308801A480078C00702D134
:104CB0003DF708FD04E000203DF754FD3DF71AFDE7
:104CC00058F702FC3DF7BCFCFCF744FE0020E1492C
:104CD00088730A49F80707D00C6058F711FC48F7A9
:104CE000D6FD0649DB488473B80600D473E720205C
:104CF000086000BE6FE7F8BD0002004018000040E9
:104D0000041000400833005058B9FC0784BBFC076E
:104D10004CB9FC07FDB9FC07CE48007D01280ED038
:104D2000002814D10F49002008800F490A88D206B4
:104D300010D1012252020A800949088070470848B0
:104D400001210180074806214180812104E00548B6
:104D5000002101800248012101807047D88EFC07A4
:104D600000030050400000500630005010B5184CB1
:104D70002078002828D117480078062822D8C04675
:104D80007844007940008744031D070B0E1217007A
:104D900000200123014612E00221002003230EE03F
:104DA0000020032105E004210020052307E0002066
:104DB000052102460B4603E0062100200723024698
:104DC00000F06AFB0120207000F006F810BDC0461C
:104DD0001C8CFC07185DFC07BCB5F44DA97C687CF5
:104DE0000024009401232246FCF7E6FA297CE87BA4
:104DF0006A7C904203D1AA7C914200D1BCBD009450
:104E0000032212020223FCF7D7FABCBDD88EFC079E
:104E1000FCB57F200002594A516981430B200002F2
:104E200008185061106880B25549401810609069A8
:104E3000544C044001235803009020189061032033
:104E400001900002146B04431463908F10240443F8
:104E500094879088184390804B484C4A02604C4A93
:104E6000104610384B4DAC8B044015204301E01820
:104E70005030A8836869484C04404848201868614D
:104E8000A869474C0440092040022018A8612868FE
:104E9000444C04404448201828606868434C04404F
:104EA000434820186860A868424C044042482018D3
:104EB000A860E868414C044041482018E860C120DF
:104EC0004001D14C647B240620183F4C2060052013
:104ED00080023E4F3880401DB880388C55260643EE
:104EE000AA2086433E84FF266C363046C93038857A
:104EF000374908460E30B88536483886B986C01D11
:104F0000388735482885A86B34490140344808184B
:104F1000A863344D2E80288F10401F462037C019BB
:104F200028873148018811408919D531018081884D
:104F30001140C918818001891140C91901812136A8
:104F4000AE802A4801881140C91860310180818AE9
:104F500019220A4306218A438282A08F24490140F4
:104F600000980818A08723480168019A1143042279
:104F70009143016020486066FCBDC046203000407F
:104F800000008888FF00FEFF8000004059055C0794
:104F90001FFCFFFF042000400000E0FF09581A003A
:104FA000FEE1FFFFE0E000000809294900000303DB
:104FB000696A686C031FFFFF70600000E0E0E0E0DA
:104FC0000B0A0A08D88EFC07001000402813004086
:104FD000260A000051080000070F00002F64E0FEC1
:104FE000101A0601001200404412004088120040CE
:104FF000FF9F00008010004050015001F8B5542080
:1050000013490E5AF34FBC6B3046604312494018A7
:10501000124959F7F7FF054678833C3666430E4838
:1050200030180E4959F7EEFF001DCB49886128184A
:10503000C01D08620A4A1278022A01D111300862A2
:10504000FEF7F2FA0749401880B258F767FAF8BD40
:10505000C08BFC07D88EFC0720A1070040420F0040
:10506000B4BAFC07E2040000BCB5BB4C207A0028AF
:1050700000D0BCBD00202082A17901A80170E17997
:1050800041706179817045F7F4FC134DA86D0028DB
:1050900005D101A845F7EDFC0028F7D0FEE7012077
:1050A0002072BCBD10B5AC4C207A012808D0207A03
:1050B000022805D0207A052802D0207A072807D1B7
:1050C0000548806D3DF757FB0020014657F7C3FEAA
:1050D0000020207210BDC046B0BBFC0710B532499D
:1050E0008A885206D20E1CD0530813439A081A43DA
:1050F000130913431A0A1A43130C1343DA435308D0
:105100001F4C1C40121B1F4B94081A401C401219C4
:105110001309D2181C4B13401C4A5A43120E1D3A55
:1051200000E003220B881F24A3430B800B8802247A
:105130001C430C800B8804241C430C800B88012426
:105140001C430C80D317D2185A40D2B2022A01D382
:1051500000230B850884088BC004FCD4022A02D3E8
:10516000088D020402E0002A03D00022888B10433D
:1051700001E0888BC0B218228A5E002AFBD410BDE1
:1051800055555555333333330F0F0F0F01010101BF
:1051900005480188202291430180DD49097B0907E8
:1051A000490F81847047C04600120050D88EFC071A
:1051B000B0B5D748C17C002900D0B0BD22490A88CB
:1051C000082313430B800A88032313430B801D49D4
:1051D00006220A80FF2212060C4B1C68944301220F
:1051E000D50764191C600A4B4B800A4B8B800A4B15
:1051F00043627D200001C880D003084B18600888F6
:1052000010430880B0BDC046D88EFC070CE400E017
:10521000204E0000881300002553FC0700E100E049
:105220000120C103F74A1160BFF34F8FBFF36F8FA7
:10523000F3490A8882430A8003480188082291437F
:105240000180704700340050040000500E4801886F
:10525000890918220A4000888004400F801870478E
:1052600010B51F21490282010A4007490B88074CEB
:105270001C4014430C800A88054B13404007800CE7
:105280001818088010BDC04654000050FFF90000F7
:10529000FFC7000010B51248026801218A4302606E
:1052A000FF221206436813400E4C1B1943608368AB
:1052B0001340836003680224A3430360036804244B
:1052C000A343036003680B4303600368DB03FCD55F
:1052D00083681340836002688A43026010BDC04641
:1052E00010E000E02F75000080B51B498989401A45
:1052F0007D21C9004143002804DC074A8918C017F2
:10530000084001E005480818054959F791FE800951
:10531000193040B280BDC0462BFDFFFFD502000012
:10532000AA05000010B50A4C052020600948082194
:105330000170FFF70BFA0848007A401FC1B202293A
:1053400004D840B2800005A10858206010BDC046B6
:10535000AC100040041000402C5DFC070000000071
:105360000300000000000000E0B5694881780129D1
:105370000AD106490A885206FCD5017A0079002232
:1053800000920123FCF718F88CBDC04614100050A1
:1053900002480188012291430180704704110050A6
:1053A000BCB55B4DA97C687C002400942246234652
:1053B000FCF702F8297CE87B6A7C904203D1AA7C46
:1053C000914200D1BCBD009422462346FBF7F4FF76
:1053D000BCBDC046D88EFC07F8B5044668204C4FCB
:1053E0000090385A90211E4A53589421565C210649
:1053F00035D0F1B20A224A4399184988CA060FD01B
:105400007F221140FA6D521CFA65CA0702D07A6EEB
:10541000521C7A6609071DD5396E491C396619E098
:1054200010490968BA6D090B002A0ED080B25043AA
:1054300089B24018551C29461F4659F7E3FD3B46E3
:10544000334F00997852BD6504E00098395201202D
:10545000B8650846641E711C07260E40C7E7F8BDF4
:10546000E0BAFC073820004018B5084801680091F0
:105470000099074A009B1A40FF2424040C40D9B22B
:105480000919044BC9181143016018BD8000004080
:1054900000FF00FF0A000A00F8B51E4617460C463A
:1054A00005460846FDF7D0FE3046FDF7CDFE184B09
:1054B0009E745F741C74DD73187D022811D0304611
:1054C00060403946694001434842484121462943EA
:1054D00001D0002805D0002801D1022000E00020E2
:1054E0001875FFF719FCBD420DD1B4420BD1084825
:1054F0000472057101238370002200922846214620
:10550000FBF75AFFF8BD002001498870F8BDC0467E
:10551000D88EFC0710B51946FD2002020E48022362
:1055200057F768FA90214170002404704AF75AF83E
:10553000204610BD10B519460748084A032357F7FF
:1055400059FAFF21817091214170002404704AF7BB
:1055500049F8204610BDC0460108000001FD0000CA
:1055600002E008C8121F08C1002AFAD1704770472C
:10557000002001E001C1121F002AFBD1704700008A
:105580001C498888072290438880052000078A8963
:10559000D20710D0098800290DD117494A88028501
:1055A0008A888284CA880284428A144B13400988FC
:1055B000C90119434182124906220A800121CA0306
:1055C000104B1A60BFF34F8FBFF36F8F02221A6028
:1055D000BFF34F8FBFF36F8F1960BFF34F8FBFF3D0
:1055E0006F8F41890422914341810021018062B67D
:1055F0007047C04604030050A000FC077FFE000077
:105600000034005080E100E0A105FC07CF08FC0752
:10561000DF09FC07F99DF00700000000E3A1F10796
:10562000000000004FA4F10700000000000000008F
:105630000C57FC07205DFC070100010001FC000085
:10564000730DFC0702FC00008D0DFC0703FC00003D
:10565000A90DFC0705FC0000C50DFC0706FC0000B9
:10566000DF0DFC0707FC0000F90DFC0708FC00003B
:10567000130EFC0709FC00002D0EFC070AFC0000BD
:105680004B0EFC0710FC0000650EFC0739FC000007
:10569000F30EFC073AFC0000350FFC0711FC00007C
:1056A000770FFC0730FC0000B10FFC0731FC000055
:1056B000E10FFC0732FC00001110FC0735FC000074
:1056C0003510FC0736FC00009110FC0737FC000089
:1056D000C310FC0738FC00004111FC073BFC000034
:1056E0009311FC0712FC0000A70EFC0741FC000010
:1056F0003F0DFC0742FC00001B0DFC0743FC0000B3
:10570000F90CFC0705080000DD11FC070457FC0735
:1057100001000000F401222222CAEA80D0070640DC
:10572000643200001457FC071C8FFC0701000001C5
:10573000490AFC0701000002390BFC0700000000C9
:10574000000000009149FC07ED4AFC0793DEF007DA
:10575000F1DEF007F9DEF00749DFF00761DFF0075F
:105760003944FC0799DFF00719E3F007BDE5F007BE
:10577000FDE3F0071DE4F0073DE4F0072144FC07DA
:105780008BE4F007F5F9F007B1F7F007CFF7F00772
:10579000EBF7F00705F8F00719F8F0072D44FC07C0
:1057A000AFF8F007DFCDF10767D0F107DBB9F007FD
:1057B000CD0DF207B10EF207AD0EF207A90EF207FA
:1057C0008D21F007D546FC07B535FC070536FC07EB
:1057D0005D36FC075536FC07B57EF007837DF00784
:1057E000B901FC07599EF107634CF107EF46FC072E
:1057F000D110F207ED46FC07B111F2074112F20792
:105800007912F20700000000CD0BFC07E10BFC074A
:10581000B9C6F007D592F1074702FC075F9DF10773
:105820005F9CF1075905FC07EB72F107B922F107FC
:105830006B04F107ED19FC072BA4F007F1D2F00778
:105840005FBDF007D5BDF00785BEF007DB2DF00783
:10585000752EF0071581F007DF7FF0070937F00795
:1058600000000000EF19FC07F719FC07BD18FC0742
:10587000F3C3F10775C4F10703C5F107D518FC0799
:105880000000000000000000000000000000000018
:105890000000000000000000000000000000000008
:1058A00000000000000000000000000000000000F8
:1058B00000000000000000000000000000000000E8
:1058C00005000000AC64FC07000400005093FC07D6
:1058D000AC020000448FFC07000400000896FC079F
:1058E000700500002003000000A60E000500000067
:1058F000D2000000320000003C0000000100000067
:10590000010000000200000002000000040000008E
:10591000030000000600000000000000020000007C
:105920000200000000000000000000000300000072
:105930000300000005000000050000000600000054
:105940000A0000000A000000C8000000B80B0000B8
:1059500002000000B80B0000B80B000010000000AF
:10596000D4010000CC010000700200006A000000B9
:105970000400000001000000200000000A000000F8
:1059800001000000E20400008A020000DC050000C3
:10599000AF0000002457FC070000000000000000DA
:1059A0001C5AFC07000000000000000008000490E2
:1059B0000000000000000000030005D08B0035F05F
:1059C00010005CF0000010B0000018B000001AB029
:1059D000030051F0000038B000003AB0000064B09D
:1059E000000066B0000022B0000024B0010005D025
:1059F000000000000A00008008030490000004F08A
:105A0000030006D0000000000A0000800803049094
:105A1000000004F0030006D00000000000000000B9
:105A2000000000000000000000FE0000CD1BFC078D
:105A300001FE00001528FC0702FE0000C12CFC0737
:105A400003FE00004120FC0704FE0000CD1FFC0700
:105A500005FE0000B120FC0706FE00009D21FC07AA
:105A600007FE0000C11AFC0708FE0000D91CFC0755
:105A700009FE0000DD1AFC070AFE00008121FC0778
:105A80000BFE0000B92AFC070CFE0000B129FC0740
:105A90000DFE0000011CFC070EFE0000912BFC0710
:105AA0000FFE0000312AFC0710FE0000FD29FC0754
:105AB00011FE0000ED21FC0712FE0000551DFC0741
:105AC00013FE0000191DFC0714FE0000612BFC07EB
:105AD00015FE0000DD2AFC0716FE0000451CFC0731
:105AE00017FE0000F91EFC0718FE0000F527FC0752
:105AF0001AFE0000011AFC071BFE0000C527FC0768
:105B00001CFE00007D1BFC071EFE00009527FC0705
:105B10001DFE00004521FC0700FE0700C95CFC07D4
:105B2000DE5CFC0701FE0700C45CFC07000000000F
:105B300002FE0700B05CFC07D15CFC0703FE070017
