:0200000407FCF7
:100000000047FC072501FC072D01FC074501FC0703
:1000100000000000000000000000000000000000E0
:100020000000000000000000000000005D01FC076F
:1000300000000000000000005F01FC07050BFC074A
:100040005108FC077533FC07A526F007090BFC07D0
:10005000DD09FC076301FC072108FC076301FC07BD
:100060002D08FC076301FC071509FC071F09FC07A5
:100070002909FC073309FC073D09FC07B10AFC0705
:100080004D0BFC076301FC076301FC076301FC07E0
:100090006301FC076301FC076301FC076301FC07C4
:0800A000000000008E070E00B5
:0200000407FCF7
:100110000348854600F072FB00480047FD26FC07B7
:100120000047FC070F4880470F48004704207146EE
:10013000084203D0EFF309800C490847EFF3088029
:100140000A49084704207146084203D0EFF30980AA
:1001500007490847EFF3088005490847FEE7FEE72F
:10016000FEE7FEE7C538FC071101FC07ED09FC07B7
:100170005D09FC073EB50D4D6D1E14D002880A4284
:10018000FAD16D1E0FD002880A42FAD0084A1368CD
:100190000124234313606D1E05D002880A42FAD160
:1001A000044A10683EBD00203EBD0000C0C62D00C0
:1001B00010E000E018E000E002490020086070470D
:1001C000704700000000084010B50F49032058F7A1
:1001D000DEFE0021032058F70CFF10BD10B50446C9
:1001E00001230A4A00210A4858F7D2FC09498C42E7
:1001F00001D1032103E008498C4201D100210170A3
:100200004CF732FD10BD0000D438FC0711FC000093
:1002100001080000A5A5A5A5C3C3C3C310B53248F6
:10022000016B402291430163016B382399433031C4
:100230000163016B06239943091D0163016B0314DC
:1002400019430163016B0723DB0219430163016B4F
:1002500003235B0299430315C9180163016B13045F
:1002600019430163016B0723DB04994303231B0537
:10027000C9180163016BDB1099431303C9180163AB
:10028000016BC30599430163016B0723DB06194327
:100290000163016B03235B0699431305C9180163CE
:1002A00011492031898A016B012319430163036BD2
:1002B00081150B430363036B841323430363036BB5
:1002C0000C042343036309480160BFF34F8FBFF35E
:1002D0006F8F074803681B0A1B0213430360034820
:1002E0008038016010BD00008010004080E100E017
:1002F00008E400E010B50C460123FD4A0021FD484A
:1003000058F746FCFC4A21781170002101704CF727
:10031000ABFC002010BD10B5F54A0C460123521E5F
:100320000021F44858F734FCF449A2884A800A4670
:100330002388403AD387E2888A8062880A80002135
:1003400001704CF791FC002010BD10B51A468223B5
:100350000021E84858F71CFC112101704CF784FC7F
:10036000002010BDE24A10B50123403A0021E148C7
:1003700058F70EFC112101704CF776FC002010BDDF
:10038000DB4A10B501233F3A0021DA4858F700FC58
:10039000112101704CF768FC002010BD10B51A4601
:1003A00002230021D34858F7F3FB112101704CF7C9
:1003B0005BFC002010BD10B51A4601230021CD487A
:1003C00058F7E6FB112101704CF74EFC002010BDE0
:1003D00010B51A4601230021C64858F7D9FB112150
:1003E00001704CF741FC002010BD10B51A46822365
:1003F0000021C04858F7CCFB112101704CF734FCA8
:10040000002010BD10B51A4682230021B94858F7C4
:10041000BFFB00214170112101704CF725FC002029
:1004200010BD10B51A4601230021B24858F7B0FBA1
:10043000112101704CF718FC002010BDAC4A10B51A
:100440000823323A0021AB4858F7A2FB0446031DAB
:10045000C21C811C401C58F773F90146002000297A
:100460000BD0112121706070A070E070A080E0803E
:1004700020464CF7F9FB002010BD2070F7E77FB550
:100480000846103858F7C9FB58F76FFB00246D4633
:100490000390204658F763FB61004919641CE4B2DD
:1004A0004880042CF5D3924A1023303A0021914819
:1004B00058F76EFB6D461ECD1EC00021103801702E
:1004C0004CF7D2FB012004B070BDF8B5884A0F4646
:1004D0000823093A0021874858F75AFB884D0446FB
:1004E000286B6E12B0433043286386493888496AC6
:1004F00088476060286BB04300212863388860809B
:10050000217020464CF7B0FB0020F8BDF8B5784AC2
:100510000D460423083A0021764858F739FB784EF7
:100520000446306B7712B84338433063754A2888E5
:10053000926A69689047306BB8430021306328881D
:100540006080217020464CF78FFB0020F8BD70B50D
:1005500018460D46664A01460123313A654858F768
:1005600017FB04462878002802D0012805D101E0B5
:10057000654800E0654842F7F9F8122020702046EF
:100580004CF772FB002070BD10B518460C46584A57
:1005900001460823123A574858F7FAFA21880122EF
:1005A0009207891809684160218841800021017003
:1005B0004CF75AFB002010BD10B518460C464C4AAB
:1005C00001460423113A4B4858F7E2FA22880123E6
:1005D0009B07D21861681160218841800021017059
:1005E0004CF742FB002010BD10B51C4608464AF7E8
:1005F000DDF83F4A0123103A21463E4858F7C8FA31
:10060000002101704CF730FB002010BD70B50C8844
:1006100018461646032C00D30324CA788B7815029B
:10062000522254433A4A1D431368E318FF330133FF
:100630005D830B7911686118FF3101318A8B120AD1
:1006400012021A438A832A4A014601230D3A294895
:1006500058F79EFA002101704CF706FB0021304646
:1006600058F7C7FC002070BD10B588781C460028DC
:1006700001D0012200E000220888114645F7F8FF6A
:100680001B4A01230C3A21461A4858F781FA0021E7
:1006900001704CF7E9FA002010BD70B518460C4601
:1006A000134A014601230B3A124858F771FA22788F
:1006B00052214A43164900230D685219FF32413234
:1006C0005382227852256A430D685219FF32413213
:1006D000938222785224096862435118FF314131D4
:1006E000CB82002101704CF7BFFA002070BD0000E2
:1006F00042FC000001080000AAB9FC07FCBBFC0793
:100700004000004000BFFC07C3C3C3C3A5A5A5A507
:100710004CB9FC0770B518460C4601460123334A14
:10072000334858F735FA227852214A433149002399
:100730000D685219FF3241329381227852256A4363
:100740000D685219FF324132D38122785224096850
:1007500062435118FF3141310B82002101704CF787
:1007600083FA0020C2E770B5184616460D461F4AA8
:1007700001460123D21C1E4858F70AFA044628886D
:10078000032800D3032047F774FA002805D000217E
:100790002170A9786430C17701E0122020702046D2
:1007A0004CF762FA0021304658F723FC00209DE701
:1007B000F8B50E4610491C4615460020C2008A5A5C
:1007C000A24209D1C00040184768002F07D02A462E
:1007D00031461846B84702E0401C1828EED322469E
:1007E0003146284601F0A4FEF8BD000038FC0000A8
:1007F000010800004CB9FC07E438FC07064C012551
:10080000064E05E0E36807CC2B430C3C98471034B8
:10081000B442F7D3FFF780FC643FFC07843FFC073A
:1008200001480121018070470E150050B248074968
:1008300009880A0705D48A0707D4C90705D00C30F0
:1008400000E00E300188491C01807047B410004060
:1008500010B5904808210180994C618B208B5EF780
:1008600069FB5CF79AFE10484188890703D04188EC
:10087000032291434180018880220A43028001893A
:1008800004229143018181898907FCD541F749FD03
:10089000A06A0649086006480168490700D500BEFD
:1008A00001684907FCD510BD08000050080200404F
:1008B00010000040F8B500250095134E13497160F3
:1008C000B560316804220A433260EFF310840127D7
:1008D00087F310883946814089B20D48FFF74AFCFA
:1008E00000903068B8433060002C02D087F3108845
:1008F00001E085F31088009841424141D04A91704F
:100900000249081AF8BDC04610E000E0FFFFFF00F2
:100910000030005080B50A2000F016F880BD80B588
:100920000B2000F011F880BD80B50C2000F00CF811
:1009300080BD80B50D2000F007F880BD80B50E2089
:1009400000F002F880BD000010B504465DF72CF8F9
:10095000E0B2012181404E48016010BDF8B5044667
:1009600001273E0205200507688DC00506D51B201E
:100970005CF750FE4848018839430180803628885A
:1009800040013040698A454A0A4002436A82216830
:100990001148016061684160A1688160E168C160DF
:1009A0002169016161694161A1698161E169C16197
:1009B00004623C490A6842624A6882628A68C2628A
:1009C0004A690263CA68426309698163A88AC006EA
:1009D00000D4FEE700BEF8BD0090FC070248008886
:1009E0002B481021016070472C130050F8B50446C5
:1009F00005200507288A04210143298228894021EE
:100A000001432981224801270760224808210180EB
:100A10003E02688DC00506D51B205CF7FBFD1E4815
:100A20000188394301808036288840013040698A36
:100A30001A4A0A4002436A822168194801606168C3
:100A40004160A1688160E168C160216901616169FB
:100A50004161A1698161E169C161046211490A686A
:100A600042624A6882628A68C2624A690263CA68EC
:100A7000426309698163A88AC00600D4FEE700BE0C
:100A8000688A094908404018001D6882F8BDC046C0
:100A900080E200E000330050800000507FFE000044
:100AA0005090FC0728ED00E0FC7F0000704700003C
:100AB00080B5B148406A002801D002F0EFFD80BD4A
:100AC000E08EFC075E498A6A002802D0824200D983
:100AD000886ACA6A904200D9C86A084A1080487871
:100AE0000221814006484843002803D000BF00BFD0
:100AF000401EF9E77047C046B03FFC0702000050B7
:100B0000F10600007047000010B50F4CA1880F20BF
:100B10000840022806D004280BD00C280CD001284D
:100B2000F4D110E020880221884320802088802191
:100B300006E002F0E9FDE9E702F0E6FD2088012188
:100B400088432080E2E710BD0411005080B55CF7B7
:100B500024FD1948018809050CD518490A88052380
:100B60001340052B06D10888042202430A80088816
:100B700001221EE00188C90606D511498A88D207DC
:100B800002D00A88120610D40088C0060CD50C4882
:100B90008188890708D50188C90505D5022181808A
:100BA0000188084A0A40028080BD012088800888A8
:100BB00080229043088080BD040000500002005055
:100BC00000010050FFFE0000F8B59449154A538813
:100BD0001B0706D412880E46520606D45A365831E0
:100BE00005E00E4660365E3101E0563654310E4D5A
:100BF00068430027C95F4C1921465AF7B5FA00909F
:100C0000F05F684321465AF7C5FA0099091AA942CC
:100C1000084600D32846054A914200D80746B8B294
:100C2000F8BDC04600150050FFFF0000FEFF0100A8
:100C300080B5D7490A31794A5DF7F2FF80BDC046D9
:100C4000B03FFC0710B50168002911D501229207B9
:100C5000046803686400074C05D40068000C204059
:100C60001043038004E00068000C20401043037030
:100C7000C80F10BDFF3F0000B0B50C460025202D69
:100C800004D041F736FE60556D1CF8E70020B0BD7A
:100C9000B0B5044609480A4D402229465AF7DEFA03
:100CA00048350848302229465AF7D8FA0648001B2A
:100CB0000649088014304880B0BDC04670A0FC07CB
:100CC000D017F207B0A0FC07B8A0FFFF78A0FC0780
:100CD000D5481E214180018803220A4302800188F1
:100CE00004220A430280AB48012101707047C046CC
:100CF00080B50D480078C00708D1052058F78EF957
:100D000000280FD12A200A49085C04E00748417DE9
:100D1000012907D1007D41424141C21E504250414C
:100D2000084380BD002080BDCDB9FC0734BDFC0761
:100D3000DCBCFC0780B5034801689648401C5CF7A2
:100D400043F980BD843FFC0707480168914AD27C83
:100D5000002A04D0064A1140064A891801E0034AD5
:100D6000114001607047C046B810004077F7FFD5CA
:100D700077F7FFC08808002AE08EFC07704780B52F
:100D80005AF75AFA80BD80B55AF75FFA80BD000065
:100D9000BCB51C460D46C3481D4A0223214657F7E1
:100DA000F7FE04462B781B48009005220620002BF6
:100DB000114600D00146002B00D01046554A12883B
:100DC000D20500D501466846417013490191FFF7ED
:100DD0002FFF2720C04300280CD000BF00BF00BF5A
:100DE00000BF00BF00BF00BF00BF00BF00BF00BF0B
:100DF000401CF0E75DF77EFF08495DF7F7FF054609
:100E00005DF768FF258020464BF72EFF0020BCBD14
:100E10001AFE000001050A0000030101C08BFC0757
:100E200010B519469F48044A0024234657F7B0FEE0
:100E30004BF71AFF204610BD07FE0000FEB51C460A
:100E40000F4698481F4A0223214657F7A1FE044641
:100E500038780090B8780190FD787F7838465CF754
:100E6000C1FC064628465CF7BDFC304001214140EC
:100E7000218020464BF7F8FE208800281FD1002053
:100E8000029011480299814203DC0299491C0291A7
:100E9000F8E7404E307C00242146224623465CF78A
:100EA00077FCB07C2146224623465CF771FC009813
:100EB0003946019A2B4602F093FC02F0AFFA00206B
:100EC000FEBDC04609FE0000CF070000B0B51D46BC
:100ED0000C46D6480E4A0123294657F759FE0021F1
:100EE00001702278511E13468B412A49CB7409495F
:100EF0000B88DB0507D4531E9A4192024B8D064C9A
:100F00001C40A2184A854BF7AFFE0020B0BDC0467A
:100F10001CFE00002A000050FFF90000B0B51D467D
:100F20000C467F204202F6480423294657F730FE3C
:100F300021785F2904D0332903D10449098800E0CE
:100F40005F2101604BF790FE0020B0BD0200005011
:100F500010B51946EA480D4A082357F719FE04460A
:100F6000EA48807902280ED102F0D6FA0948016DCC
:100F70002180C16D6180816DA1806021405AE08037
:100F800020464BF771FE002010BDC0460DFE00004C
:100F9000B03FFC07E08EFC0770B51946FB48204ABD
:100FA0000124234657F7F4FD1E490A8822400CD13C
:100FB0000B8823430B800B8828251D4350239D431A
:100FC0000D800B8806251D430D800B88DB0701D1A2
:100FD000FF231BE0144B5D885C801D880826B54309
:100FE0001D801D8802262E43A6431E801D880426D0
:100FF0002E431E8000251E88760703D56E1C642DA7
:101000003546F8D31B885B031BB2DB130370002A41
:1010100002D10A88A2430A804BF726FE002070BD49
:1010200016FE0000220000500016005070B5194650
:10103000F2480C4A422357F7ABFD044610250570D1
:10104000801C094E31462A465AF708F96570204639
:10105000223031462A465AF701F920464BF704FE62
:10106000002070BD08FE0000543FFC07B0B51C46D0
:101070000D46E2480C4A0123214657F789FD0446F4
:101080002D7828465CF7AEFB002803D028465CF795
:101090009DFB00E0FF20207020464BF7E5FD00207F
:1010A000B0BDC0460108000013FE0000F0B585B0D9
:1010B0000C46FA485E4A01261946334657F768FD42
:1010C0000290207A0490657AA07A0190E07A0390E9
:1010D000277838465CF786FB62680021032A0FD820
:1010E0007040930001A4E3580C469F460F11FC0783
:1010F000FD10FC070511FC070B11FC07012305E09F
:10110000304604E001235C0201E003231C0200944A
:10111000012D334600D80B46120A022A344600D865
:101120000C46039A642A324601D823401A46049B8F
:10113000012B334600D80B46002A314600D1194610
:10114000002900D10646FF24002E66D1384601F062
:101150006BF9384601F086F90198002817D0012D67
:1011600026D0002D029D59D13348418B0122914355
:101170004183510200243846224623465CF708FB8F
:101180000499481E814138465CF714FB46E0681E0E
:1011900043424341009881B20024384622465CF71E
:1011A000F7FA0499481E814138465CF703FB34E0A6
:1011B000204E0325290217220024384623465CF7D7
:1011C000E7FA0499481E814138465CF7F3FA514822
:1011D0000188082211430180018829430180164DAE
:1011E000688B10436883688B042188436883E936E1
:1011F000019846431148314659F7B6FF401E2880F2
:1012000028886C80411C03984843642159F7ACFF3F
:10121000E881688B012101436983029D2C70284677
:101220004BF722FD002005B0F0BDC04601080000CC
:1012300012FE0000FF0200000834005080841E00EF
:10124000FEB50E46BF482F4A012519462B4657F7D3
:101250009FFC02907478367830465CF7C3FA0746F4
:10126000304601F0E1F8002E02D12748012101802B
:10127000022C00D300252F423BD0244F00200190A8
:10128000F8713E727C7201253D70F879387A03243A
:101290002602102231462B465CF77AFAF879387A22
:1012A000797A4A1E91415CF785FAE9431848028829
:1012B0000A400280174A938B0B40938311880823BE
:1012C0000B43138011882143118001990180FF2174
:1012D0000906114A13688B43E90759181160E8366B
:1012E000468086800D49C18001882943018002988B
:1012F00002E0FF21029801704BF7B6FC0020FEBD12
:101300000108000017FE000000030050B03FFC077A
:1013100000340050040000500CE400E0FFFF000027
:10132000FEB51C460D468748194AF223214657F759
:101330002FFCAC781221002C22D03C2C20D82A88FB
:10134000FF21C90455180190471D0094002C14D0AA
:1013500002AE04222846314601F0C8FEF81E02996A
:101360000170B81E71780170781EB1780170F07844
:101370003870641E2D1D3F1DE8E700210198009C78
:10138000447001704BF770FC0020FEBD01080000A6
:1013900004FE0000BCB51C460D466A48184A0723E7
:1013A000214657F7F5FB044600200190009028786D
:1013B0002070032807D002281AD1611C1248062287
:1013C00001F094FE14E06879A979090208180190E7
:1013D00028790006E97809040818A9780902401854
:1013E00069784018009007486946022201F08FFE94
:1013F00020464BF739FC0020BCBDC0460108000068
:1014000003FE0000D47F0000D47FF807F0B585B05C
:101410001C460D464B48224A0223214657F7B8FB8B
:101420000021039102910195AE781222002E28D05E
:101430003C2E2CD800900198078800242546B54200
:1014400021D23819019909198A7912064B791B049E
:101450009A180B791B02D218CB78D21802928A7A8A
:1014600012064B7A1B049A180B7A1B02D218C97900
:101470005118039102A9012201F049FE0834AD1C64
:10148000DDE70E4603E0019886780022009846705A
:1014900002704BF7E9FB002005B0F0BD0108000029
:1014A00005FE000010B5194626480A4A01242346C5
:1014B00057F76EFB002101704BF7D6FB0648082159
:1014C0000180064844800521018001880906FCD17D
:1014D000002010BD1DFE00000233005000310050FE
:1014E00010B519461748044A0024234657F750FB05
:1014F0004BF7BAFB204610BD0AFE0000B0B51D46F2
:101500000C461048104A0823294657F741FB002192
:10151000417022780270032A10D861687A441279E7
:101520005200974401030609096803E0A2680A60B3
:1015300004E00988416001E0A2680A804BF794FB4F
:101540000020B0BD0108000006FE0000F0B58BB021
:101550001C460D46F348F44A0223214657F718FB70
:1015600004462878F14F3E7D012800D1E8E00028AC
:1015700000D08CE1E8785CF735F9002800D184E1EF
:1015800068795CF72FF9002800D17EE1E8795CF7F3
:1015900029F9002800D178E1687A5CF723F900285E
:1015A00000D172E1687B002805D0E87B5CF71AF96E
:1015B000002800D169E1E878E14FB8476879B84779
:1015C000E879B847687AB847687B002802D0E87B9A
:1015D00000F02AFFA8780028F24F02D1E87800280E
:1015E0001AD02879002802D16879002814D0A87967
:1015F000002802D1E87900280ED0287A002802D1EC
:10160000687A002808D0687B002809D0A87B0028C9
:1016100006D1E87B002803D10120387501F0C4FE13
:10162000E8780023C24A0B28194601D84000815AA5
:1016300068790B28049302D84000805A04900391E3
:10164000E8790B28194601D84000815A0291697A3D
:101650000B29184601D84800805A0190E87B0B28D6
:1016600001D84000835A0593B2488171297A4171AB
:1016700001780122069211403A7BF0231340591859
:10168000027992080E231340591839735CF742FD12
:10169000E8780321090208911C2200230793A94F2F
:1016A000B84768791A2207990B46A64FB847E879D8
:1016B0001B220899079BA34FB847687A1D220899F7
:1016C000069BA04FB847687B002806D0E87B0699A8
:1016D0004902002213465CF75BF8687801280CD1B8
:1016E000E87A0890AF7A01F033FF38465CF754FD92
:1016F00008985CF751FD5CF741FD01F087FFAF7A78
:1017000001F026FF802038435CF746FD002008905A
:101710005CF742FD07465CF731FDF8B22080687B3C
:101720000028A04F00D1DBE008980A907D208000BF
:101730000A99814200DBCFE00A99491C0A91F7E738
:1017400068795CF74FF8002800D19EE0E8785CF7F4
:1017500049F8002800D198E0687B002805D0E87B94
:101760005CF740F8002800D18FE0687900F05CFE5B
:10177000E87800F059FE687B002802D0E87B00F092
:1017800053FE2879002802D1687900280ED0A87865
:10179000002802D1E878002808D0687B002809D00A
:1017A000A87B002806D1E87B002803D101203875EA
:1017B00001F0FAFDE87800225D490B28134601D8B4
:1017C0004000435A68790B28174601D84000475A11
:1017D000A87B0B2801D84000425A05970693079230
:1017E000297B5448818208305CF7E0FEE8780027C6
:1017F000092239465BF7AAFF68790A220897394619
:101800005BF7A4FF01204702687B002805D0E87B36
:101810000022394613465BF7BBFF3B466878474FCB
:1018200001280ED1E87AA97A3A885207FCD5424AB3
:1018300011801843108038884007FCD5388880060E
:10184000FCD401F0E3FEA87A39884907FCD53A4A6E
:10185000108038884007FCD50320000210803449EE
:1018600038898006FCD01088C0B22080687B0028B0
:10187000CE4F1CD0089809907D20800009998142A4
:1018800010DA0999491C0991F8E7FF2020803E757C
:1018900001F08AFD01F0B0FD20464BF7E5F900208C
:1018A0000BB0F0BDE87B5BF791FF20802049E87822
:1018B0000B2802D84000069A425268790B2802D8B9
:1018C0004000059A4252A87B0B2802D84000079A94
:1018D00042525CF7D1FEDAE7E87B5BF777FF2080C6
:1018E000E8780B281249059A02D84000039B43521E
:1018F00068790B2802D84000049B4352E8790B28F2
:1019000002D84000029B4352687A0B2802D840005C
:10191000019B4352A87B0B2801D8400042525CF740
:10192000C7FBB4E70108000011FE0000E08EFC07D1
:10193000063000508C3FFC0710130050701300500D
:101940002924FC0791D7F107B0B51D460C46EA489B
:10195000084A0123294657F71BF905462078EC4928
:10196000087501F021FD00242C7028464BF77CF906
:101970002046B0BD1EFE0000B0B51D460C46EF4827
:10198000074A0123294657F703F9002505704BF74D
:101990006BF92078DE49487340F752FE2846B0BD07
:1019A0001BFE0000E08EFC0710B51946E348054A0F
:1019B000012357F7EDF8002404704BF755F9204642
:1019C00010BDC04618FE0000FEB50E465648574DE5
:1019D000012419462A46234657F7DAF800270770EC
:1019E0004BF742F949F77AFE3078022816D00128E1
:1019F00007D0002800D094E05648C77058480770B8
:101A00008FE001F089FE4B480770B07871780A4684
:101A100002435ED14F480221017165E001F07CFE76
:101A200043490820088043490F7072B6424EB2897C
:101A300004210A43B281B28880239A43B280B288DB
:101A4000402302931A43B2803C4A118032883C4BB7
:101A500013403380FA433B4B1A60328AD206FCD4DF
:101A60007E35F2892A40F281E243374B9D8815404A
:101A70009D80364D2F680F432F60B58A254302277E
:101A8000BD43B582B58A0D4301908543B582B58AC1
:101A9000102028432025A843B082B0892043B0817C
:101AA0001888104018800F2080029A8A02439A8278
:101AB000A0039A8A02439A82F08C254A1688C005B0
:101AC00017D4602006431680988A03220243029F9F
:101AD00017E0204A1471204A4A43192189014143E1
:101AE00088181E49096848621A48C4701C48047066
:101AF00017E02E433846029FBE4316809A8A02435F
:101B0000A2439A82988A019A10439882988A8843BD
:101B10009882188B3843A843188300BF00BF00BFCA
:101B200030BF0020FEBDC0460208000001FE0000DC
:101B3000003300502C8CFC070400005000020050C1
:101B4000FFF7000080E200E00C03005010ED00E021
:101B50005200005020BAFC070077010058B9FC077A
:101B600080BAFC07BCB51C460D46B4480E4A00239B
:101B7000214657F70DF804462878B54D2871A87905
:101B800000280BD162485030122159F780FB297987
:101B900001A8017047F712F90220A87120464BF7FF
:101BA00063F80020BCBDC0460CFE0000E08EFC07C0
:101BB000B0B51946A1480A4A0024234656F7E8FF63
:101BC0000546A3488079052808D101F007FD01F0FA
:101BD000A3FC9E48046028464BF746F80020B0BDA1
:101BE00010FE00007CB51C460D4694481D4A00239B
:101BF000214656F7CDFF04462878954E3071687817
:101C0000F070B079002828D101AD252068703079B6
:101C10002870F078A870FFF797F8284647F754F82F
:101C20000120C20389490B6813430B6082030B68D0
:101C300093430B6002030B6893430B600A680A4BE3
:101C400013400B600521B17100027E490860BFF3AB
:101C50004F8FBFF36F8F01F089FC20464BF704F8DC
:101C600000207CBD0FFE000000FEFFFF80B508785D
:101C7000774A1071487850718878D07008790002DE
:101C8000C9784018108201F029FC002080BDC046B0
:101C90007CB50C461848194A012519462B4656F7BB
:101CA00077FF21780026052900D8354605704AF7C8
:101CB000DBFF49F713FD01960198C82803DA019864
:101CC000401C0190F8E700202056062804D20CA101
:101CD000095C0DA2105C01E00B2108200C4A9175F3
:101CE0005075032240F7E2FC0024204640F73AFDFD
:101CF00040F700FD20467CBD0108000015FE0000F5
:101D00000301060B0001000068341108011A0000ED
:101D1000E08EFC0770B50C46F948094A642519465F
:101D20002B4656F735FF064621462A4659F796FABE
:101D300030464AF799FF002070BDC04601080000F8
:101D400014FE0000F8B50E46ED483D4A0025194640
:101D50002B4656F71DFF0446307854282CD05228C5
:101D600012D04F2868D101F039FC394EB0790628DD
:101D700054D0072856D101F0CFFB0120C0073349CA
:101D80000A6882430A604DE0012000022D49086084
:101D9000BFF34F8FBFF36F8F7578FEF7D5FF68469F
:101DA000057047F70BF82848401C28490A68024389
:101DB0000A60274807212DE0012000022149086020
:101DC000BFF34F8FBFF36F8F7678FEF7BDFF214DC6
:101DD0002846FEF737FF0C20071D342F05D02818A2
:101DE000FEF730FF00283846F6D13820071D582F5F
:101DF00005D02818FEF726FF00283846F6D11648E9
:101E00000321017015483018154A1060154801600B
:101E10000F480621817101F0A9FB0AE01148056015
:101E20005DF7F4FB012000020F4908600F490860CC
:101E3000B57120464AF718FF0020F8BD01080000E0
:101E40000EFE000080E100E0FFFFFF7FE0000040A9
:101E5000B03FFC0770A0FC070510004000016209BC
:101E600004300040AC10004000E100E080E200E0FF
:101E7000F0B58DB00F46A248A24D022619462A465B
:101E8000334656F785FE0446397807291CD87878FA
:101E9000BA7812021218C0467944097949008F4471
:101EA00015181B2E394403039749FE2809905DD16C
:101EB00000200D460C2853D00A880F231340012B15
:101EC00052D0891C401CF5E70026D3E18F480088DA
:101ED00030E08E4802802CE08C48018A01221202F8
:101EE00080320A40802A06D1418AC906FCD47D3559
:101EF000018A2940018203200002401D17E0254687
:101F000090B2FF210C1A81490B8800209C420ADB09
:101F10009A1807E025467D490B8894B20020A34219
:101F200001D39A1A0A802C4604E001204002764927
:101F300048810020208000267549087C4A7CCB7BA4
:101F4000934205D1897C884202D100200990C0E1EA
:101F5000032109020222002309935BF719FCB8E16F
:101F60000C200990FF2000E0099029460296C5B296
:101F700000260C2D01D3304601E0680040180B2DDF
:101F800005902ED8039706880998C7B2384600F006
:101F90004BFA384600F066FA002F0DD1F348C17BAA
:101FA000002909D1007C002806D10120410200202F
:101FB000024603465BF7ECFB0494012210020599EC
:101FC00008800399897800230C930B9301930A935B
:101FD000002908D001293FD1AF218C00D84B1146F0
:101FE00003E0042044E1D54BFA24D64F0A22BA621A
:101FF000FC627B63BA631422FA636E223A64BA6AA3
:10200000BA64FA6AFA647970396C39630B2D23D893
:10201000A90001A251588F464920FC076120FC0706
:102020007120FC078120FC079120FC07A120FC0700
:10203000B120FC07C120FC07D120FC07E120FC07F0
:10204000F120FC071521FC0703210902BA4B1A886D
:102050008A4302431A8064E0039F049C019807E1CD
:1020600003210902B44B5A888A4302435A8058E03C
:1020700003210902B04B9A888A4302439A8050E0B8
:1020800003210902AC4BDA888A430243DA8048E034
:1020900003210902A84B1A898A4302431A8140E0AE
:1020A00003210902A44B5A898A4302435A8138E02A
:1020B00003210902A04B9A898A4302439A8130E0A6
:1020C000032109029C4BDA898A430243DA8128E022
:1020D00003210902984B1A8A8A4302431A8220E09C
:1020E00003210902944B5A8A8A4302435A8218E018
:1020F00003210902904B9A8A8A4302439A8210E094
:102100000108000002FE00000630005002000050EE
:10211000E08EFC0703210902874BDA8A8A430243D7
:10212000DA82049C386BFEF7CDFC2846FEF7C2FB32
:102130000A900A98796B884205D30A98796B401AFD
:10214000B96B884219D90A98796B884205D2786BA5
:102150000A99401AB96B88420FD90A98796B88425C
:1021600013D9F86C0790F86CFEF7ACFC2846FEF724
:10217000A1FB0C900020089012E030373868411C19
:1021800074D0801C039F5FD068E7B86C0890B86C6F
:10219000FEF798FC2846FEF78DFB0B900020079079
:1021A000002406960A9A7B6B386B0A999A4202D9E8
:1021B0000B91089001E00C9107902F466148406B0D
:1021C0000B9B0BA90CAA0C9EB3420B4600D31346E3
:1021D0001B680B9E0C9DAE4200D811460A68D11AAE
:1021E000121A089D0798401B504358F7D3FF401917
:1021F000544E3063306BFEF765FC3D46374628464B
:10220000FEF758FB0A900A98716B8842069E05D328
:102210000A98796B401AB96B88420DD9601C0A99EB
:102220007A6B914205D2796B0A9A891ABA6B9142FC
:1022300002D9092C0446B5D3B878002806D000206E
:10224000FEF740FC039F049C029811E00A98796B0A
:10225000BA6B891A8842049C05D30A98796BBA6BC9
:102260005118884257D90020FEF72CFC0120039F0B
:1022700020803978FE200840062826D102203043ED
:102280001F210140032920D1069604942F4C264695
:102290000998C5B228465BF799FA002804D0761C45
:1022A000F6D301E0641C04D228465BF78FFA0028BD
:1022B000F8D000200C902648049C069E0C99814280
:1022C00003DA0C99491C0C91F8E70998000600D133
:1022D00032E620464AF7C8FC3878FE21014006293C
:1022E00016D1022030431F210140032910D1194D7E
:1022F0000998C4B220465BF769FA002803D1681E2A
:1023000029040546F6D10598002801D005980680D5
:1023100000200DB0F0BD0C4800887864786CB96A74
:10232000884202D8786C0028A0D1786CF96A88427B
:102330009CD2443722E7C0460630005000127A0093
:10234000007C9200B03FFC0702000050E708C9FF84
:10235000120E0000B68C000080B557F783F948F7DD
:1023600060FEE3480121817380BDC046E08EFC071A
:1023700000BE704780B50E4800687F21415C68222E
:10238000805A522242430B4800688018AF22520004
:10239000805A000A401AC0B201F0D8F9002045F76F
:1023A000B2FFD348042181735DF730F980BDC04688
:1023B00050BBFC074CB9FC0780B5012045F7A3FFD3
:1023C00080BD80B548F72DFEFEF782FC80BD000081
:1023D00080B504480068B021405C01F0B7F945F7CA
:1023E000DEFF80BD58B9FC0780B50D480188012289
:1023F000914301800B480078C00702D140F762F991
:1024000004E0002040F7AEF940F774F957F70EF9F1
:1024100040F716F9FEF75CFCB5480021817380BDDA
:1024200008330050CDB9FC070C490A8802280DD0AA
:10243000D205920F052801D1012A07D0012801D128
:10244000022A03D00A2808D1032A06D14888C006E8
:10245000FCD40888024A02400A80704712000050EB
:102460007FFE000080B5002814D1A148017D02291B
:1024700010D0017CC27B13460B4301D102230375AC
:10248000437C934204D1827C8A4201D101210175AF
:1024900000F08AFF80BDC046FEB51446002916D064
:1024A00005460127002B15D02288002D17D008786B
:1024B00028706E1C0220002A0ED0022B0BD3029231
:1024C0004A783270029A012A0DD8AE1C04E000212D
:1024D000084602E02E463846711B2180FEBD0126CB
:1024E000022B3046F8D3C8180290881C4978890618
:1024F0000B0E0090C1180191AE1C02990198884200
:10250000E9D80099002D0CD0A818029030461F463B
:102510001A4658F7A3FEF0190299884204D8002001
:1025200003E000201F4601E001204000F619D3E738
:1025300070B51346024600200C4C102804D0255AD2
:102540009D420BD00830F8E70020094C0546F02DDD
:102550000BD0665B9E4203D00835F8E7201800E0F8
:102560006019001D04681846A04770BD0C3FFC07A9
:102570009C3CFC07FEB51446002905D00546012009
:10258000022B04D22E4641E0002088213FE0CE18E5
:10259000002D12D0029627880A784E786E702A7025
:1025A000AE1C0222022F06D3032B2FD38B7833705D
:1025B000022F11D8EE1C104628E0032B01D2022670
:1025C00024E08A789206170EC919C91CB14201D9B4
:1025D00003261BE0002017E0C91C9A06120E019189
:1025E0008918EE1C029B994210D8E81902903046D7
:1025F0000199174658F732FEF0190299884201D81E
:10260000002000E001204000E919CE1C711B218050
:10261000FEBD000080B53648093006495CF7F6F982
:1026200080BDC04680B53248093002495CF742F9A6
:1026300080BDC046AC3FFC07F8B51B4FBC682046C8
:1026400000F034F82A4D296B00222A630E180C4939
:10265000304658F789FD78610A494143881902D00C
:102660000749081A80B23861386808210143396087
:10267000E86A002802D0A04200D200BEF8BDC046E1
:10268000710200008FFDFFFF80B506480021016048
:1026900000F0EEFE0120C00703490A6882430A6089
:1026A00080BDC046A4B9FC073000004080B502469A
:1026B000C00B09D00E48406C00210B4658F77EFD38
:1026C0008905800A401880BD0948406C4243900A41
:1026D00080BDC04680B5FFF7E9FF80BD80B50449E5
:1026E000096C414303480818034958F73DFD80BD74
:1026F000E08EFC0720A1070040420F0000B597B014
:10270000A64808260680A64D288814AC208020887C
:10271000C046C046208804211191C9433246084270
:1027200002D00020288003E0A88901218843A881E5
:102730002B460F27B802A98B0143A983994D2888FE
:10274000144610432880E88D06229043E885012630
:10275000B003998B014399832888934901402980CC
:1027600068880C9210430794A04368800520099064
:102770000407618D8D4AFF32E88D1040C9050D9622
:102780000F971AD57D21C90018310843E885E88DD7
:1027900087490140F0030818E885988B079F384364
:1027A0009883988B119988439883E88DB043E88586
:1027B000988B40218843988319E039030322520201
:1027C0001043E885E88D0843E885988B079FB84358
:1027D0009883988B042188439883688875490140C1
:1027E0006980E88D3043E885608D4007FCD5988B83
:1027F00003210A910843988328882022104340210E
:10280000C94308402880188C12921043084018844D
:10281000E08A8022089210430840E082208EFF2147
:1028200088432086208F38431421884320876248BC
:10283000119E0680A08861490140A18060490D98E1
:10284000487000045F490860FFF7ECFE022010901A
:102850005BF7F8FF5C4D2868C1B20C20AA2901463D
:1028600000D031462288824388182080C046C04666
:1028700056480088524908875548006848630D98B3
:10288000C046C04653480090534A1432534E5449F0
:10289000544B30465AF7B6FC64200590305A002855
:1028A00003D17D20C000059970526620305A00285F
:1028B000434905D12868C0B2AA28089800D06E20E4
:1028C0000D9D2A020E9208830E465AF795FB7F2033
:1028D000B070FFF79FFE444E37684448444958F7AC
:1028E000D6FC072006900102424858F7D0FC37601A
:1028F000FDF766FC404841490160414841492A22B0
:1029000058F7ACFC40480026C671867146710671C6
:10291000C670867046703F2101703C483CA1402241
:10292000119258F79BFC4A48C67186714571C021C7
:1029300001711299C170302181700B9646700F9908
:102940000170092042014348434958F787FC17208A
:10295000C043424900280AD03E4A12182723DB0010
:10296000D2180B181833E0CBE0C20C30F2E7272066
:10297000C000384908183A4A1E21079F002971D023
:1029800013460F9101460546C1CBC1C508460F99B4
:10299000079F491E0C300C32F0E7C0460033005050
:1029A0000403005052000050FFBF000000F0FFFF82
:1029B000FF0F0000FFF9000000020050FFF70000C9
:1029C000E08EFC0780E200E0D07FF807D87FF807B0
:1029D000D47FF80700000000B03FFC07C08BFC0765
:1029E000A000FC070000000028BAFC0700A0FC07BC
:1029F000AC14000000B9FC072CBAFC07CC39FC076A
:102A0000D0B9FC0794BCF107ABB9FC075CBCFC0770
:102A10002000800000C00000000004000000282208
:102A2000000000000000040000F7C3F77E00000073
:102A300030F0070800000000000400000000000063
:102A40000000000000000000000000000000000086
:102A5000B3B9FC07308CFC075CBBF107F43EFC0704
:102A60008C3DFC073920E1494885E148C862E148CE
:102A70000D9D0570E048E1490160E148E1490160D0
:102A8000E149D7480860D748322104910170D648FF
:102A900009990160FB480560FB480160FB480C99FF
:102AA0000160FB4806990160FA480760FA4EFB484E
:102AB00030600E98801DFA490860FA49086000F0FD
:102AC0003DFB28463FF71BFF5AF7C4F95AF708FAAF
:102AD0005AF722FA30683FF7BDFBF3480B9E0671A8
:102AE000C670A90708680E9A10430F910860FEF798
:102AF000EFF8284600F080FBEC498E711098C87002
:102B00000E712520487104980882E748C670E8488D
:102B10000670CE81E7485030122158F7B8FBE648DE
:102B2000401CE64A116801431160E08A0899084395
:102B300011998843E082FFF7A7FD2846FDF76EFB59
:102B4000E8030C90DE48DF490818DF494018800888
:102B5000401E06902089000600D49FE00F98006B6D
:102B60000C99084200D099E0CF480088C00700D0F7
:102B700094E056F7F4FC0026304600F03DFBCD48CB
:102B8000807B042859D10D9800F036FB139613A8CA
:102B9000042148F79DFB0028C64A4ED00D98CB492A
:102BA000086008680028FCD10F98C069D169884284
:102BB00001D2D6613146411AC90919293DD3D061E4
:102BC000C34801880991458881880491C088039091
:102BD0001596C048149014A8FEF72AF8B348408907
:102BE0005CF732F9B34A91787F291DD0431A59B264
:102BF000C9115B184B4059B2082916DB116A491CF0
:102C0000116202905CF7ECFC00F056FA00F01EFC3A
:102C10005CF724FD5CF7AAFCA04870305CF750FD1F
:102C20005CF7F4FC0298A34A9070A9484580049987
:102C300081800399C18009990180F848C06B9B4D40
:102C4000A979012904D1002802D1AE7100F046FC17
:102C5000E889298A88420DD3A87901280AD1EE8112
:102C6000EF483146EF4A334655F792FF49F7FCFFEC
:102C700000F052FC56F773FC1098C043F1490978F4
:102C8000C91E814203D80598F149086062E7F04AFD
:102C90001068411E1160002800DD5BE7FEF728F890
:102CA000002800D156E772B613A90B9A0A70E448BF
:102CB00000790228104602D0E0480068406A14906B
:102CC000DC4D2E4618363046E24A5CF775F900288E
:102CD00031D1E148806A002803D0D8480068406AB2
:102CE000149000F0C5FB14A930465CF79BF900284E
:102CF00021D14AF7E7F900281AD048F7EBFE00285F
:102D000016D014A85CF7B0F9002814D101205AF7A6
:102D10004FFC149A002A00D11EE10F98006ACF4997
:102D20004018DA28EE4B00D918E1521E149215E132
:102D300013A800210170C34800780128109D00D01D
:102D40000A9D13A800780428B84B00D00546A81E99
:102D500002282DD2208A042630432082022D31D031
:102D6000032D6BD1B9490868304308601889314692
:102D70000D9EB0431881608A102738436082608AB4
:102D8000099108436082FFF74DFC608A38436082F6
:102D90000698B7490860EFF3108086F31088218801
:102DA000089A91432180002830D086F3108830E0C3
:102DB000012D00D0CEE0FDF79BFF002800D1C9E037
:102DC00030BFC7E0A14908683043086018890D99F1
:102DD00088431881608A1021884360822CE0C046B5
:102DE0004C3BFC07AAB9FC075CB9FC07D0B9FC074F
:102DF000308CFC07CDB9FC0750B9FC072A17F20745
:102E000054B9FC07D439FC0758B9FC07002080F3FB
:102E10001088079F854B099E608D0E9908420BD044
:102E20000020E84948720B205AF7F4FB7F4B804999
:102E3000C88D0D9A1043C88500202083608D0E999F
:102E4000084206D17A490888119A1043129A904391
:102E50000880188C11990843129988431884FE2021
:102E60000540022D724D41D1A08C0D998843A0845C
:102E700000201490149914292EDA1499491C1491E5
:102E8000F8E7C04660B9FC0764B9FC0768B9FC07FD
:102E90006CB9FC0770B9FC074CB9FC0700A0FC0733
:102EA00048B9FC0744B9FC0720BAFC07B03FFC074F
:102EB00080BAFC07E08EFC07FFFF1F000002004005
:102EC000943E00001001FC07030004F8FC000040E1
:102ED000001500500104000061890D9A114302227F
:102EE0009143618161894906FCD56080A08AC00652
:102EF00001D54D48078030BFA08A5248007802288B
:102F00000AD1608AC005800F4B490880208D488017
:102F1000A08C8880208CC880608D0E99084208D1D2
:102F2000E88DC00705D02888129908431199884375
:102F30002880188C1299084311998843188400F04E
:102F4000FDF800203E49C8703E4908703F490868B6
:102F5000B043086062B6FDE50022E24B588BE96998
:102F6000081828620F9EF06B3D4F38400843F0630D
:102F7000F06B3C490840696A89020143F16313A878
:102F800004210170F06B30490840296A490508188E
:102F9000F063354882422E4600D300BE986CD96C4F
:102FA0001D46002358F70AF90903000D4018411E79
:102FB000706A421C914200D00846E86220490979B3
:102FC0004A1E914145F7ECFA2848C06A80470F999C
:102FD0000C9A079F086B1042FCD00E99F04D2868A0
:102FE0000842FCD028680899884328600E48408928
:102FF000452805D846210C4A5181081ADC49086346
:103000003FF763F9A868DA49886228680006FCD5AA
:1030100020890899884320818DE6C0467CBBFC0747
:10302000010800000BFE00000033005004030050B4
:1030300052000050B03FFC07A000FC0758B9FC0745
:1030400020BAFC0780BAFC07FFFF1F0010ED00E06C
:10305000883FFC07350DFC071CBEFC07C8FEFFFFC0
:1030600000FCFFFFFF03E0FF40420F0000BFFC0732
:103070002000F40780B548F7CAFD00F031FB80BDA1
:1030800080B549F74AFF00F02BFB80BD70B51446B0
:103090000D460646F4480179012906D1007A03213C
:1030A0000902022200235AF773FB304629462246C2
:1030B00048F72BFB70BDC04680B5EB48437B094801
:1030C0004169094800225AF71FFA80BD80B5E648D9
:1030D000437B04491431044800225AF7E1F980BDCA
:1030E000E08EFC07B03FFC07C08BFC0770B51446B0
:1030F0000D460646FFF796FA02205BF7A3FB28462B
:103100003146224658F7AAF8FFF784FA70BDF8B5A1
:1031100014460D460646002C0FD0FFF783FAB1087F
:10312000012228465BF742FC0746FFF773FA002F9F
:1031300003D0641E2D1D361DEDE7F8BDF8B5E24E37
:1031400000273775AB480780727A1B201E495AF753
:10315000B9FA1E480188802421430180FDF72CF82C
:103160005AF71BFA1A4808220280052000078188B6
:10317000214381800324E10103885B010B40418AE4
:10318000144D0D40E9184182134807210180134D69
:10319000AF802F8083202881707D002801D0B17DF1
:1031A00003E00B21B1757275104622463FF77EFA97
:1031B0002C8100F021F98F4A9089012101439181EE
:1031C000F8BDC046E08EFC07AC3FFC070015005080
:1031D000003300507FFE00008810005004100050A3
:1031E00003480188034A11408918091D018070476E
:1031F00012000050FC7F000080B50146F1480278C3
:10320000012A0ED1074A002903D011884907FCD4AE
:1032100002E01188490704D400210170403059F7B9
:1032200095FE80BD0016005070470000F0B58BB0D1
:103230003022002181541F221204204B1C68944329
:103240000122550464191C601E4C1F4D45611F4D21
:103250001F4E204F204BC36106624462184B8362AD
:10326000C5621E4B07604360D0044D4A1368834318
:103270001360282903D001A84154491CF9E71848D4
:103280000068403001A9282257F7E8FFCD480921FE
:1032900041735CF7A5F9FFF719FFFFF70DFF00F089
:1032A000D5F85CF7DBF95CF7EDF95CF75FF92548D9
:1032B0005CF726FA5CF7AAF90BB0F0BD7400004089
:1032C000ED32FC07E932FC074D33FC0741F6F1070C
:1032D000AD0AFC074933FC071DF6F1072932FC074C
:1032E0004CB9FC07E08EFC070020704770470000D7
:1032F00010B51F2000040124A1074A6F8243600417
:103300001018486708680722904308600C48018835
:1033100008220A4302805CF763F9FFF7D7FEFFF744
:10332000CBFE00F093F85CF799F95CF7ABF9054830
:103330005CF7D6F95CF76AF92046FCF76FFF10BD21
:103340000800005070A0FC0770470000022902D05E
:10335000012900D000BE002802D0FF2804D000BE02
:10336000022901D10C207047E548407B7047C046D8
:10337000E08EFC0780B50A480168C90703D00168E0
:1033800002220A4302600168490204D5012189052D
:1033900002680A43026003485BF7F6FD80BDC04641
:1033A00000020040383CFC0710B5E748007D0128CA
:1033B00012D0002818D15AF71BFB002420465AF7D8
:1033C000CDF9002812D101204102204622465AF7A9
:1033D000BDF90848048010BD064801210180002085
:1033E00006225AF7F3FA10BD5AF702FB01480121F1
:1033F000018010BD0003005010B5074C2078002854
:1034000007D10020032102460B4600F0E9F9012014
:10341000207000F003F810BD2C8CFC0710B5ED4CAB
:10342000A07C012200210B465AF7B2F9207C617C76
:10343000E27B8A4203D1A17C884200D110BD0321E6
:103440000902022200235AF7A3F910BD80B55BF7E9
:1034500033FEC1204001DF49497B090608180349B2
:1034600008605BF7A3FE80BDE08EFC070010004003
:10347000F8B5642013490E5AF64F3C6C3046604351
:1034800012494018124957F76FFE054678833C36BB
:1034900066430E4830180E4957F766FE001D8C49EA
:1034A000C8612818C01D48620A4A1278022A01D150
:1034B00011304862FFF7FAF80749401880B256F712
:1034C000DFF8F8BDC08BFC07E08EFC0720A10700E9
:1034D00040420F0080BAFC07E2040000BCB57C4CFF
:1034E000A079002800D0BCBD0020E081217901A88E
:1034F000017061794170E178817045F7E5FB134D0A
:10350000E86B002805D101A845F7DEFB0028F7D0BD
:10351000FEE70120A071BCBD10B56D4CA07901285B
:1035200008D0A079022805D0A079052802D0A0797A
:10353000072807D10548C06B3FF71DF90020014659
:1035400055F757FD0020A07110BDC0467CBBFC079D
:1035500005480188202291430180BE49097B090763
:10356000490F81847047C04600120050B0B5B94879
:10357000C17C002900D0B0BD23490A880823134329
:103580000B800A88032313430B801E4906220A80FE
:10359000FF2212060C4B1C6894430122D5076419C4
:1035A0001C600A4B4B800A4B8B800A4B43627D2088
:1035B0000001C880D003084B1860088810430880B9
:1035C000B0BDC046E08EFC070CE400E0204E0000D9
:1035D000881300009D36FC0700E100E00120C103D4
:1035E000074A1160BFF34F8FBFF36F8F05490A88F9
:1035F00082430A8004480188082291430180704771
:1036000080E100E0003400500400005010B5124882
:10361000026801218A430260FF22120643681340B8
:103620000E4C1B19436083681340836003680224B7
:10363000A343036003680424A343036003680B43AC
:1036400003600368DB03FCD5836813408360026872
:103650008A43026010BDC04610E000E02F750000F4
:1036600080B51B494989401A7D21C9004143002882
:1036700004DC074A8918C017084001E0054808180B
:10368000054957F787FD8009193040B280BDC04613
:103690002BFDFFFFD5020000AA05000010B50A4C63
:1036A000052020600948082101705BF799FF084850
:1036B0008079401FC1B2022904D840B2800005A120
:1036C0000858206010BDC046AC10004004100040F7
:1036D000B03FFC07000000000300000000000000F5
:1036E00010B55C4C2079012808D106485AF7C5FE70
:1036F000207A012200210B465AF74AF810BDC04635
:10370000E08EFC070010005002480188012291431E
:10371000018070470411005010B54E4CA07C002170
:103720000A460B465AF734F8207C617CE27B8A42D9
:1037300003D1A17C884200D110BD00210A460B466E
:103740005AF726F810BDC046E08EFC07F8B50446CF
:103750006020404F0090385A90211F4A53589421BE
:10376000565C210635D0F1B20A224A43991849889D
:10377000CA060FD07F2211407A6D521C7A65CA07A3
:1037800002D0FA6D521CFA6509071DD5B96D491CA6
:10379000B96519E0114909683A6D090B002A0ED084
:1037A00080B2504389B24018551C29461F4657F72E
:1037B000DBFC3B46274F009978523D6504E00098BA
:1037C0003952012038650846641E711C07260E40D8
:1037D000C7E7F8BDE08EFC07ACBAFC073820004014
:1037E000F8B51D4616460C4607460846FEF71CFE71
:1037F0002846FEF719FE174B9D745E741C74DF7328
:10380000187D022811D02846604031467940014396
:10381000484248412146394301D0002805D00028BC
:1038200001D1022000E000201875FFF7BDFDB7426E
:103830000BD1AC4209D10748047201220271002168
:1038400020460B4659F7A4FFF8BD00200149087136
:10385000F8BDC046E08EFC0710B51946FD200202F7
:103860000E48022355F794F990214170002404700A
:1038700049F7FAF9204610BD10B519460748084A1D
:10388000032355F785F9FF218170912141700024B0
:10389000047049F7E9F9204610BDC0460108000050
:1038A00001FD000002E008C8121F08C1002AFAD179
:1038B00070477047002001E001C1121F002AFBD1B0
:1038C0007047000080B5024858F7E2FF80BDC0464F
:1038D000A000FC0700000000AC39FC07A83FFC0773
:1038E0000100010001FC00004B03FC0702FC00008A
:1038F0006503FC0703FC00008103FC0705FC0000D6
:103900009D03FC0706FC0000B703FC0707FC000052
:10391000D103FC0708FC0000EB03FC0709FC0000D6
:103920000504FC070AFC00002304FC0710FC00004F
:103930003D04FC0739FC0000CB04FC073AFC000006
:103940000D05FC0711FC00004F05FC0730FC0000D2
:103950008905FC0731FC0000B905FC0732FC0000BA
:10396000E905FC0735FC00000D06FC0736FC0000ED
:103970006906FC0737FC00009B06FC0738FC0000CA
:103980001507FC073BFC00006707FC0712FC000062
:103990007F04FC0741FC00001703FC0742FC000009
:1039A000F502FC0705080000B107FC07A439FC0775
:1039B00001000000F401222222CAEA80D00706405A
:1039C00064320000B439FC07148FFC0700000000CB
:1039D000000000002D32FC07F132FC0727B6F0078B
:1039E00085B6F0078DB6F007DDB6F007F5B6F0073F
:1039F0008D30FC072DB7F007ADBAF00751BDF007C9
:103A000091BBF007B1BBF007D1BBF0077530FC07E5
:103A10001FBCF00779D0F00735CEF00753CEF00782
:103A20006FCEF00789CEF0079DCEF0078130FC07FE
:103A300033CFF0077B8FF1070392F107F797F00779
:103A40006DCDF10751CEF1074DCEF10749CEF1070B
:103A50008D21F007E131FC073926FC078926FC0798
:103A6000DD26FC07D526FC07BB70F007896FF00741
:103A70002970F007F965F1070122F10769F9F107EB
:103A8000E9F9F1078DFAF107C9FAF10759FBF107D6
:103A900091FBF10700000000C901FC07DD01FC07F4
:103AA0009BA1F007595AF107C760F107FD64F107C0
:103AB000FD63F107D736F1076545F1075DF9F007BA
:103AC0000DDBF0077D0DFC0785AAF007599AF0077A
:103AD000D19AF0078D9BF007CF2DF007892EF007C4
:103AE0001D73F007E771F0078536F007000000004E
:103AF0007F0DFC07870DFC07790CFC07A785F107F4
:103B00001B86F1079F86F107910CFC07000000005F
:103B100000000000000000000000000000000000A5
:103B20000000000000000000000000000000000095
:103B30000000000000000000000000000000000085
:103B40000000000000000000000000000500000070
:103B50000047FC07000400005093FC0764020000CB
:103B6000448FFC0700040000C095FC0770050000AE
:103B70002003000000A60E0005000000D200000097
:103B8000320000003C0000000100000001000000C5
:103B9000020000000200000004000000030000001A
:103BA000060000000000000002000000020000000B
:103BB00000000000000000000300000003000000FF
:103BC0000500000005000000060000000A000000DB
:103BD0000A000000C8000000B80B0000020000004E
:103BE000B80B0000B80B000010000000D40100006A
:103BF000CC010000700200006A0000000400000018
:103C000001000000200000000A0000000100000088
:103C1000E20400008A020000DC050000AF000000A2
:103C2000C439FC070000000000000000903CFC07C5
:103C3000000000000000000080000000C323FC071B
:103C400002000000D123FC07080000007523FC07D8
:103C500000010000B923FC0700020000F5B0F007E6
:103C600040000000FD82F007100000007F6FF007A9
:103C700004000000E923FC07010000005923FC07B1
:103C8000200000007123FC0700000000000000007D
:103C900000000000000000000000000000FE000026
:103CA0001D0FFC0701FE0000C919FC0702FE000001
:103CB000711EFC0703FE00009513FC0704FE0000C4
:103CC0002113FC0705FE00000D14FC0706FE000092
:103CD000FD14FC0707FE0000210EFC0708FE000093
:103CE0002D10FC0709FE00003D0EFC070AFE000037
:103CF000E114FC070BFE00006D1CFC070CFE00002D
:103D0000651BFC070DFE0000510FFC070EFE0000B6
:103D1000451DFC070FFE0000E51BFC0710FE000020
:103D2000B11BFC0711FE00004D15FC0712FE000040
:103D3000AD10FC0713FE00006D10FC0714FE000020
:103D4000151DFC0715FE0000911CFC0716FE000067
:103D5000990FFC0717FE00004112FC0718FE000037
:103D6000A919FC071AFE0000910DFC071BFE0000BC
:103D70007919FC071CFE0000CD0EFC071EFE00009A
:103D80004919FC071DFE0000A514FC0700FE0700F2
:103D90003D3FFC07523FFC0701FE0700383FFC0790
:103DA0000000000002FE0700243FFC07453FFC071F
:103DB00003FE07002E3FFC072E3FFC0704FE070111
:103DC0003C3FFC079924FC0705FE07027525FC070C
:103DD000393FFC0706FE07004B3FFC07473FFC0747
:103DE00007FE0700000000000000000008FE0700BA
:103DF000000000002A3FFC0709FE0700273FFC07E0
:103E0000453FFC070AFE07003F3FFC07000000009B
:103E10000BFE0700363FFC07000000000CFE070009
:103E20003D3FFC07000000000DFE07000000000001
:103E3000423FFC070EFE0700393FFC070000000070
:103E40000FFE0700393FFC070000000010FE0700CE
:103E5000000000000000000011FE0700323FFC07D8
:103E6000453FFC0712FE07002F3FFC073D3FFC07C4
:103E700013FE07003D3FFC073D3FFC0714FE070013
:103E80001C3FFC071C3FFC0715FE07003D3FFC07DD
:103E90003D3FFC0716FE0700000000003D3FFC0709
:103EA00017FE0700213FFC073D3FFC0718FE0700F7
:103EB0003D3FFC073D3FFC071AFE07003D3FFC0766
:103EC000453FFC071BFE07003D3FFC073D3FFC074D
:103ED0001CFE07003D3FFC073D3FFC071EFE0700A0
:103EE0003D3FFC073D3FFC071DFE07004F3FFC0721
:103EF0003D3FFC0700FD07003D3FFC07393FFC0745
:103F000001FD07003D3FFC07243FFC0700FD0000CA
:103F10005938FC0701FD00007938FC073130304288
:103F2000003242003342003442003636420042360C
:103F3000420031374200424242424200484200427F
:103F40004800484848480042424C00424C4C004E11
:103F5000554C4C00765F362E302E31382E313138AC
:103F6000322E3100A43FFC07A83FFC075807000091
:103F7000B438FC07C08BFC07C08BFC07840300002F
:103F8000B438FC07E0010000640000000000D00726
:103F90000800010048004F00080017000100010060
:043FA000000001011B
:0400000507FC0111E2
:00000001FF
