:0200000407FCF7
:10000000709FFC07B500FC07BD00FC07D500FC078E
:1000100000000000000000000000000000000000E0
:10002000000000000000000000000000ED00FC07E0
:100030000000000000000000EF00FC076D82FC07DC
:10004000F300FC07F300FC078182FC077182FC07C8
:100050002982FC07F300FC07B580FC07F300FC07CE
:10006000F300FC07F300FC07F300FC07F300FC07B8
:10007000F300FC07F300FC07F300FC07F300FC07A8
:10008000F300FC07F300FC07F300FC07C180FC074A
:10009000F300FC07F300FC07F300FC07F300FC0788
:1000A0000348854600F02EF8004800476D84FC07A1
:1000B000709FFC070F4880470F4800470420714697
:1000C000084203D0EFF309800C490847EFF308809A
:1000D0000A49084704207146084203D0EFF309801B
:1000E00007490847EFF3088005490847FEE7FEE7A0
:1000F000FEE7FEE74901FC07A100FC073982FC0787
:100100002582FC07064C0125064E05E0E36807CC76
:100110002B430C3C98471034B442F7D3FFF7C4FF8D
:100120005801FC079801FC0702E008C8121F08C12B
:10013000002AFAD170477047002001E001C1121F68
:10014000002AFBD17047000080B502485CF7A0FB95
:1001500080BDC046D0BFFC079801FC070080FC07AB
:10016000801600002801FC071818FC0700BAFC07DD
:10017000D00500002801FC07E81DFC07D0BFFC07E4
:10018000080000002801FC071818FC078096FC07EF
:10019000F00800003801FC0703460B439B0703D01F
:1001A00009E008C9121F08C0042AFAD203E00B783C
:1001B0000370401C491C521EF9D2704770B50446AA
:1001C000002903D000202022012310E0002801D0C4
:1001D0000020C043C046C0460DE02546D5408D42B4
:1001E00005D30D469540641B1D46954040191546A4
:1001F000521E002DF1DC214670BD000070B50025B7
:1002000004462E46002911D0002C01DA0125444273
:10021000002901DA012649422046FFF7CFFFB54207
:1002200000D04042002D00D0494270BD002C02DABF
:100230000121C90702E0002C00DD03490846C04641
:10024000C046214670BD0000FFFFFF7F014801212D
:10025000018070470E150050FEB5E74C1834204859
:10026000068801200190C004029000271D4D002E39
:1002700034D0042F32D2F0072BD0A889000605D441
:1002800028896989401A4142414100E000210198D2
:10029000B840134A50802889029A134B1A60BFF362
:1002A0004F8FBFF36F8F002907D0A989019A91431F
:1002B000A981A98908229143A9812268002A05D031
:1002C000411C606889B200949047009C0298CC4918
:1002D00008601035083476087F1CC8E7FEBDC046AC
:1002E000823600500036005080E100E0B0B5044690
:1002F000084D0949094A0023284603F04DFC2846C9
:1003000003F0E4FC6D4928460A46234603F00AFE42
:10031000B0BDC0468096FC076094FC077094FC0753
:10032000F8B515460E46044600F0A2FC002800D0A1
:10033000F8BD00951E4DA8887C210143A9801D4869
:10034000076900F05FFC03200006304300F02AFC40
:10035000A8881C21014360208143A980009881194D
:10036000B94200D9B81B494E00903146FFF726FF2D
:1003700005460746002F08D02046314600F076FD9E
:10038000A41900F037FE7F1EF4E70B48684300997C
:10039000401805D081B2204600F068FD00F02AFE2A
:1003A0000020034A90841088202101431180F8BD69
:1003B000001200507498FC070100FFFFFEE70000E8
:1003C000024800880D481021016070472C1300502E
:1003D0000948018904220A430281018840220A4314
:1003E0000280064901220A604189054A11408918A4
:1003F000091D41817047C0460800005080E200E0BE
:10040000FC7F00007047000080B5024800F010FE3D
:1004100080BDC0460011005080B5024800F008FEC3
:1004200080BDC04600100050F8B51649164A5388E2
:100430001B0706D412880E46520606D45A36583187
:1004400005E00E4660365E3101E0563654310F4D00
:1004500068430027C95F4C192146FFF7AFFE0090A3
:10046000F05F68432146FFF7C9FE0099091AA942C7
:10047000084600D32846064A914200D80746B8B23B
:10048000F8BDC046C898FC0700150050FFFF0000EB
:10049000FEFF0100B0B50021C943084A084B0028FF
:1004A00009D01478CDB26540AC001C59090A6140EE
:1004B000521C401EF3E7C843B0BDC0460000FC0715
:1004C0006090FC07F0B50A79530140241C401301E9
:1004D00080251D401609360275192C19D2002025D9
:1004E0001540621910241C4012190B785B00082477
:1004F0001C40121906241C401219CB79DB079B0CF7
:100500004C796508ED07ED0CEB18E407240D1B1979
:10051000134383818A790F2A43D0354A82180423F2
:10052000DA41931E022B1BD3012A3AD8EFF3108332
:10053000012282F310888D792E4C2688F6B2360976
:10054000B54203D12688F0273743278026880F2716
:10055000BE432E432680002B1CD082F3108820E05F
:10056000EFF31083012282F31088224C27880F2694
:1005700037408D79AF4202D12788374327802688BC
:10058000F027BE432D0135432580002B06D082F392
:10059000108806E0002282F3108802E0002282F335
:1005A00010888A680280120C4280CA688280120C0D
:1005B000C2800A8A521E42814A88002A00D10A8AD1
:1005C000521E02814008382202400B4880184A69B6
:1005D00082618969C161FF20000608490A68824377
:1005E0000120C307D2180A60C00405490860F0BDA5
:1005F00000CAFFAF803600503499FC0710E400E0D9
:1006000000E100E0AAB0E649488801252843488077
:10061000FF200E900880FD48082747800780FC4E89
:10062000B0881AAC20802088C046C04620880421AB
:100630001391C943084202D00020B08003E0308A01
:100640000121884330820F218802328C0243328498
:10065000F04802883A430280C28D06239A43C2853D
:10066000AA03348C144334840288EB4C1440048075
:1006700042881A43BA434280052212070692538DDC
:10068000E64CFF34C28D2240EC03DB051295059445
:100690001BD4090303235B021A43C285C28D0A439C
:1006A000C285318CB9433184318C04229143318429
:1006B0004188DB4A0A404280C18D01220A43C2853B
:1006C000069B598D4907FCD516E0A9020A43C2854D
:1006D000C18DD44A0A402243C285318C39433184CA
:1006E000318C139A91433184C18DA943C185318CDA
:1006F000402291433184069B318C03220F92114397
:1007000031840188202421434022D24311400180BA
:10071000B08C039420431040B084D88A80210C917F
:1007200008431040D882188E0E9988431886188F77
:1007300010973843142188431887FB48451CFB4811
:10074000411C2846119156F781F90220029056F774
:1007500045F9F7480068C1B20C20AA29014600D02B
:100760001399069B1A88824388181880129FEF49B4
:100770000F70F04800900A1DEF4EF049F04B3046E4
:1007800054F70CFE6420315A0F9A12020D92002980
:1007900002D10D99E83131523C026620305A0028CE
:1007A00006D1E3480068C0B2AA280C9800D06E2099
:1007B00054F7EEFC2846119F394656F7F3F9012607
:1007C000D84D2E80D84842781B20394655F746F838
:1007D000A8893043A8811AA82030019014A80830B5
:1007E0000C901396B00411908034254604941D2279
:1007F000139F38460D9E3146129BE94DA8470420B1
:100800001C22002431460F922346A8471B22204673
:1008100031462346A84703201A2221462346A847EB
:1008200014AE0E98B075B7711098B0807D2080011D
:10083000708034700C980460446084608481304619
:1008400000F06CFA00F026FAC748119901613046B1
:1008500000F064FA00F01EFA00F00AFA01460A31CC
:1008600037D0C0B2002837D1EC4FB8880F99084371
:1008700060218843B88000F0C5F99F20B24DA84799
:100880002046A8470F902046A84706462046A8477E
:10089000BC843988039A114339800F990906090AE3
:1008A0003206120C5118C0B2081815D08F21CA4355
:1008B0001146A64D0C310CD0AA189423D258904260
:1008C0000A46F7D168188430A74908312CC82CC1D2
:1008D00002E0A548119901611398C0049C49086081
:1008E000BFF34F8FBFF36F8F0720C1031AAD0C22E8
:1008F0002846FFF715FD2878702800D007E16878B2
:10090000522800D003E11C980F901B991AAD402289
:1009100028460891FFF704FDA878AA282146274613
:1009200026462246234617D11AA801787029214667
:1009300027462646224623460ED140785128214696
:10094000274626462246234606D1019803781AA850
:10095000C6781C9A1B99139F079309920A911AADA6
:10096000402228460F99FFF7DBFCA878AA2819D166
:100970001AA80178702915D14078512812D1019810
:1009800000780B90BF1C1AA81C991B9D032F3BD10C
:10099000C078FF2E48D1002846D1129C0E464EE06A
:1009A000003100500B9426462546022F47D0012FD8
:1009B0006ED137460899403162480A9E3246FFF7A9
:1009C000AFFC0798002802D03046FFF78FFC304676
:1009D000FFF760FD0999081A4142414113984440CC
:1009E0000C4355D10F99403156482A46FFF798FCE1
:1009F0000B98002802D02846FFF778FC2846FFF71E
:100A000049FD874244D082E00E46CEE700330050D5
:100A10000003005052000050FFBF000000F0FFFF35
:100A2000FFF90000FF0F0000002E04D1FF2802D1C3
:100A3000129C0E46BDE78642129C0E46B9D20F9913
:100A4000403140482A46FFF76BFC0B98002802D043
:100A50002846FFF74BFC2846FFF71CFD301A4142A1
:100A60004141139844400C4312D108994031354814
:100A70000A9C2246FFF754FC0798002802D0204623
:100A8000FFF734FC2046FFF705FD099981423ED16E
:100A9000C8202249088022481099418000F0C0F8FF
:100AA000129800F063F855F76FF81398410200248C
:100AB0002046224654F716FF1A4804802A48007838
:100AC0000128069A049D07D1108840012840518AC8
:100AD000204B1940014351821A4908680842059B7E
:100AE0000DD0508A1AA908800888029C2043139CC4
:100AF000A04308801A98184308801A985082508A98
:100B00001AA908801A98184308801A98508200F091
:100B100087F8002000F02AF869E6C046003100504E
:100B200000330050000300503499FC077498FC0710
:100B3000D07FF807C189FC07C898FC07D0BFFC0725
:100B4000000000000000FC070D8AFC07DC8FFC079A
:100B500080E100E07FFE0000000F072802D102487C
:100B6000002101707047C0467498FC0770B50346B9
:100B70000120450200240A4E29462246B04704209F
:100B8000294622462346B047204629462246234688
:100B9000B0470320294622462346B04770BDC046D1
:100BA00091D7F10710B5044600F088F8AD490A88DE
:100BB0001F239A430A800A88022313430B800A8862
:100BC000042313430B800A88012313430B8002285C
:100BD00001D3220C0A850C840A8BD204FCD402288F
:100BE00002D3088D020402E0002803D00022888B83
:100BF000104301E0888BC0B218228A5E002AFBD421
:100C000010BDC046E4480188202291430180E1499B
:100C100009780907490F81847047C04600120050C7
:100C200010B5EFF31081012080F310888C4A1388EF
:100C3000054C1C401480002902D080F3108810BDA0
:100C4000002080F3108810BDFFFB000080B5EC4849
:100C50000278D20704D1054A0023D35E002BFBD4CF
:100C60008268002A01D00846904780BD18120050C3
:100C700080B5D64801883C220A4340218A4302803D
:100C80000520000200F0A4F90121014048420D2195
:100C9000884380BD80B5FFF7B5FFD548002181842A
:100CA000018820220A43028081881C220A43602195
:100CB0008A438280AB2000F08BF980BDC348008856
:100CC0004006C00E1CD041080143880808430109B2
:100CD0000143080A0843010C0143C84341080B4A79
:100CE0000A40801A0A49820808400A40801801090F
:100CF00040180849014008484843000E1D3800E0EC
:100D00000320C11740184840C0B27047555555558B
:100D1000333333330F0F0F0F01010101F0B589B0E9
:100D20000646EFF31080012585F31088A9024C4A8E
:100D300013880B431380002802D085F3108802E04B
:100D4000002080F31088AA4C202001902080317967
:100D50000720084000F024F93078A188032291434D
:100D60000007400F0843A0803178A288802082438A
:100D7000C907090E5118A18031782940A04D2A7861
:100D8000FE23134059182B4629700027A78121897B
:100D9000014321813078C00724D11878F121014026
:100DA000307980080E2202408818187071887D20E2
:100DB0000002814202D121897F2009E049001D46BD
:100DC000FFF7FCF92B4621897F229143401EC0B2D8
:100DD00008432081B07D218840229143C007400E06
:100DE00008182080B0685860F06898603069D86052
:100DF0001D4D3246307DC007284601D028462030A0
:100E0000186102AE7780042131703782F7807771E4
:100E10000092517D0C01611D31710897079705976C
:100E200073491C3104913146FFF74CFBE01C3071D3
:100E30000098007DC00701D0303500E010357048C3
:100E400045616B4C20462030059028463146FFF71F
:100E500039FB208801998843208009B0F0BDC04645
:100E6000040000500012005000360050F0B587B06A
:100E70000546634F3878C00700D089E00C46FFF77D
:100E80001DFF5B4E31881F22914331803188022241
:100E90000A433280318804220A43328002281CD15E
:100EA0003088012101433180002081B2A1420FD25C
:100EB000318B8904FCD4002131853184318BC90404
:100EC000FCD4B18B328D1204511802C5401CECE7E2
:100ED0001820305E0028FBD45AE0FFF7EFFE3B6994
:100EE0005A08382104910A403946183105912B4F90
:100EF0008F50471EB84140000627F94303919F8950
:100F00000F40381898819D80280CD880601E019071
:100F100018815881988908210291084398819889FD
:100F200001210091084398813088102303433380C6
:100F3000059880180027476031484569A8894022F4
:100F40009043A8816C0804980440FFF7B7FE059A07
:100F50001751411E88414000A989039B1940081878
:100F6000A88106A82880000C6880019828816881E3
:100F7000A889029B9843A881A88900990843A88161
:100F8000308818433080101947603088084330801B
:100F900007B0F0BD3499FC0700120050B58AFC0779
:100FA0000A49022807D0012809D000280A881C20F5
:100FB0001043602207E00A887C20104304E00A887E
:100FC0003C20104340229043088070470412005098
:100FD00010B50446FFF716FE2046FFF7E3FD04496F
:100FE00000228A840A88202313430B8010BDC04648
:100FF00000120050024800698189C907FCD170477E
:101000003499FC0710B504467D20C00060430649B2
:1010100040180649FFF7D2F8002C02D08009193099
:1010200000E0192040B210BDD5020000AA05000062
:10103000F0B585B004464D48201A411E8841400154
:101040004B490D1828460E30019028461830039061
:10105000284614300090281D0290AE1D28461030FE
:10106000049027467C3720890F210140481E0B2819
:10107000F9D8C04678440079400087444E06051EE2
:1010800005222A0505050532EDE70298008831881A
:10109000814234D22289C0231340C02B03D13A8825
:1010A000920703D4DFE7A28A9206DCD54A1C32807D
:1010B0002B68595C21801146EAE7204600F030F8A1
:1010C000D1E704980268002ACDD0A08A9E21014071
:1010D00004E004980268002AC5D001212046904708
:1010E000C1E7204600F01CF8A08801218843A080B9
:1010F000039801680029B6D0019800880BE0A18808
:1011000002229143A180A18880229143A18000996D
:1011100009680029A7D08847A5E705B0F0BDC046FB
:10112000F8B51249411A4A1E91414901104A551811
:10113000AB89E9892C46083400950E35994209D2CD
:10114000868AF60710D006884F1C2F8022685654D6
:101150003946F3E7828801239A43828000988269A6
:10116000002A01D088B29047F8BDC0460010005058
:101170008898FC07010000001130EF000000020019
:10118000020000001230EF00000004000300000025
:1011900000421F0000000200040000001120C200F5
:1011A00000000200050000001128C200000002003B
:1011B000060000001228C200000004000F0000001A
:1011C0001160850000000200120000001264C800D7
:1011D000000004001300000001431F000000040091
:1011E0001400000001111F000000040015000000A1
:1011F0000C441F0000000800000000009630077734
:101200002C610EEEBA51099919C46D078FF46A70FA
:1012100035A563E9A395649E3288DB0EA4B8DC791A
:101220001EE9D5E088D9D2972B4CB609BD7CB17E9A
:10123000072DB8E7911DBF906410B71DF220B06A6A
:101240004871B9F3DE41BE847DD4DA1AEBE4DD6D7A
:1012500051B5D4F4C785D38356986C13C0A86B647A
:101260007AF962FDECC9658A4F5C0114D96C06639A
:10127000633D0FFAF50D088DC8206E3B5E10694C7A
:10128000E44160D5727167A2D1E4033C47D4044BBA
:10129000FD850DD26BB50AA5FAA8B5356C98B2429A
:1012A000D6C9BBDB40F9BCACE36CD832755CDF451A
:1012B000CF0DD6DC593DD1ABAC30D9263A00DE514A
:1012C0008051D7C81661D0BFB5F4B42123C4B3563A
:1012D0009995BACF0FA5BDB89EB802280888055FBA
:1012E000B2D90CC624E90BB1877C6F2F114C68581A
:1012F000AB1D61C13D2D66B69041DC760671DB0108
:10130000BC20D2982A10D5EF8985B1711FB5B606D9
:10131000A5E4BF9F33D4B8E8A2C9077834F9000F19
:101320008EA8099618980EE1BB0D6A7F2D3D6D08B9
:10133000976C6491015C63E6F4516B6B62616C1CA9
:10134000D83065854E0062F2ED95066C7BA5011BD9
:10135000C1F4088257C40FF5C6D9B06550E9B71279
:10136000EAB8BE8B7C88B9FCDF1DDD62492DDA1539
:10137000F37CD38C654CD4FB5861B24DCE51B53A59
:101380007400BCA3E230BBD441A5DF4AD795D83D59
:101390006DC4D1A4FBF4D6D36AE96943FCD96E3499
:1013A000468867ADD0B860DA732D0444E51D033379
:1013B0005F4C0AAAC97C0DDD3C710550AA41022789
:1013C00010100BBE86200CC925B56857B3856F2059
:1013D00009D466B99FE461CE0EF9DE5E98C9D929B9
:1013E0002298D0B0B4A8D7C7173DB359810DB42EF9
:1013F0003B5CBDB7AD6CBAC02083B8EDB6B3BF9A45
:101400000CE2B6039AD2B1743947D5EAAF77D29DD0
:101410001526DB048316DC73120B63E3843B6494B0
:101420003E6A6D0DA85A6A7A0BCF0EE49DFF0993B0
:1014300027AE000AB19E077D44930FF0D2A3088720
:1014400068F2011EFEC206695D5762F7CB676580D0
:1014500071366C19E7066B6E761BD4FEE02BD389D0
:101460005A7ADA10CC4ADD676FDFB9F9F9EFBE8E30
:1014700043BEB717D58EB060E8A3D6D67E93D1A170
:10148000C4C2D83852F2DF4FF167BBD16757BCA650
:10149000DD06B53F4B36B248DA2B0DD84C1B0AAFF0
:1014A000F64A0336607A0441C3EF60DF55DF67A870
:1014B000EF8E6E3179BE69468CB361CB1A8366BC00
:1014C000A0D26F2536E2685295770CCC03470BBB50
:1014D000B91602222F260555BE3BBAC5280BBDB250
:1014E000925AB42B046AB35CA7FFD7C231CFD0B5F0
:1014F0008B9ED92C1DAEDE5BB0C2649B26F263ECE2
:101500009CA36A750A936D02A906099C3F360EEBEF
:101510008567077213570005824ABF95147AB8E2AF
:10152000AE2BB17B381BB60C9B8ED2920DBED5E58F
:10153000B7EFDC7C21DFDB0BD4D2D38642E2D4F1DF
:10154000F8B3DD686E83DA1FCD16BE815B26B9F66F
:10155000E177B06F7747B718E65A0888706A0FFFCF
:10156000CA3B06665C0B0111FF9E658F69AE62F88F
:10157000D3FF6B6145CF6C1678E20AA0EED20DD78F
:101580005483044EC2B30339612667A7F71660D0AF
:101590004D476949DB776E3E4A6AD1AEDC5AD6D9EF
:1015A000660BDF40F03BD83753AEBCA9C59EBBDE0F
:1015B0007FCFB247E9FFB5301CF2BDBD8AC2BACABF
:1015C0003093B353A6A3B4240536D0BA9306D7CD2F
:1015D0002957DE54BF67D9232E7A66B3B84A61C44F
:1015E000021B685D942B6F2A37BE0BB4A18E0CC30F
:1015F0001BDF055A8DEF022D06A9214036B8A15BED
:10160000512E03D5341200063DAFBA429D9EB43030
:10161000B422DA802C9FAC4152096AD53036A53805
:10162000BF40A39E81F3D7FB7CE339829B2FFF87CA
:10163000348E4344C4DEE9CB547B9432A6C2233DAE
:10164000EE4C950B42FAC34E082EA16628D924B25F
:10165000765BA2496D8BD12572F8F6648668981680
:10166000D4A45CCC5D65B6926C704850FDEDB9DADF
:101670005E154657A78D9D8490D8AB008CBCD30ACD
:10168000F7E45805B8B34506D02C1E8FCA3F0F02A9
:10169000C1AFBD0301138A6B3A9111414F67DCEA78
:1016A00097F2CFCEF0B4E67396AC7422E7AD3585F1
:1016B000E2F937E81C75DF6E47F11A711D29C589FB
:1016C0006FB7620EAA18BE1BFC563E4BC6D27920DD
:1016D0009ADBC0FE78CD5AF41FDDA8338807C731E6
:1016E000B11210592780EC5F60517FA919B54A0DDE
:1016F0002DE57A9F93C99CEFA0E03B4DAE2AF5B053
:10170000C8EBBB3C83539961172B047EBA77D6266E
:10171000E169146355210C7D637C777BF26B6FC5A7
:101720003001672BFED7AB76CA82C97DFA5947F0E4
:10173000ADD4A2AF9CA472C0B7FD9326363FF7CCC0
:1017400034A5E5F171D8311504C723C31896059A5D
:10175000071280E2EB27B27509832C1A1B6E5AA080
:10176000523BD6B329E32F8453D100ED20FCB15B6B
:101770006ACBBE394A4C58CFD0EFAAFB434D3385D4
:1017800045F9027F503C9FA851A3408F929D38F5A8
:10179000BCB6DA2110FFF3D2CD0C13EC5F974417DF
:1017A000C4A77E3D645D197360814FDC222A908856
:1017B00046EEB814DE5E0BDBE0323A0A4906245CE2
:1017C000C2D3AC629195E479E7C8376D8DD54EA947
:1017D0006C56F4EA657AAE08BA78252E1CA6B4C613
:1017E000E8DD741F4BBD8B8A703EB5664803F60E6C
:1017F000613557B986C11D9EE1F8981169D98E945B
:101800009B1E87E9CE5528DF8CA1890DBFE6426873
:1018100041992D0FB054BB16F0B587B00026002BB0
:1018200007D0012B7DD102920827012203920E22BC
:1018300003E0029204270A220396478002800346AF
:101840000833BE421AD20C7824064D782D042C1988
:101850008D782D026419CD7864191D1F2C600C79C8
:1018600024064D792D042C198D792D026419CD791A
:1018700064191C6008310833B61CE2E791000422A9
:101880000A430692BC0028A10491019006460597E0
:10189000069887423DD2355938460599FCF7CEFA6D
:1018A000002918D0081F41424141039801400129F5
:1018B00028D1E8B2244A105C290AC9B2515C090255
:1018C0000818290CC9B2515C09044018290E515C52
:1018D0000906451816E0E8B21B4A105C0002290A06
:1018E000C9B2515C09040818290CC9B2515C090637
:1018F0004018290E515C4018049A11780D06454095
:10190000521C04923019716869404160361D7F1C79
:10191000BEE7792080000199081810220299FCF78F
:101920007BFA07B0F0BDC0460102040810204080D9
:101930001B366CD8AB4D9A2F5EBC63C697356AD404
:10194000B37DFAEFC59100008095FC07FCB50188D6
:1019500014308900052935DB076801903A461B4899
:101960000240D309D21A009117490A407C0025464B
:10197000174B1D4055406E0032460240D309D31A22
:101980000B400440E209A21A0A400099104C26407C
:101990005640720022405A4033466B4053407A40D2
:1019A00008241746E7415F4055401823DD417D403C
:1019B00072401023DA416A40019804C001900198F6
:1019C000491EC7E7FCBDC0461B1B1B1B80808080D7
:1019D000FEFEFEFEF0B599B01C4601920E4679213E
:1019E0008900039041180DA802900491029D8DC9B1
:1019F0008DC50020102806D00DA9095809BA11AAD2
:101A00001150001DF6E7039F019D0F2C2ADD103CAD
:101A100009A810223146FCF7FFF90020102809D050
:101A200011A9095809AA125812BA4A4015A90A5010
:101A3000001DF3E715A9384600F024F8002010280F
:101A400008D015A9095811AA115009BA05AA1150B0
:101A5000001DF4E705A910222846FCF7DDF9103532
:101A60001036D2E70020102806D011A9095809BA6B
:101A70000DAA1150001DF6E70DA8049D1EC81EC535
:101A800019B0F0BDF0B590B00C46011D028800926F
:101A900000220294102A08D08B58029CA4585C4063
:101AA000029B9C50029C121DF4E78018031D0098B5
:101AB000401E08900027009887426ED001930326AD
:101AC0000CAA25460997072E59D00B920A95E8785B
:101AD000334A155CB007000F205C105C711E89074B
:101AE000090F61184978535CB11E8907090F611805
:101AF0008978515C089A97422FDA02466A4054006E
:101B00001B27120600D57C4006940C4607956C40B6
:101B100002465A4055001206059700D57D400495AF
:101B20001F4667404B405D001A0601D5059A554097
:101B3000039503466340784041406200240601D586
:101B4000059C6240029C069D6F40049D6B40039D76
:101B50006940079D6840504001E0074628460B9ABF
:101B60000A9D0006C9B209044018D9B209024018FA
:101B7000F9B2401801C22D1D761C099FA3E7002071
:101B8000019B102806D00CA909581A584A40225027
:101B9000001DF6E71B187F1C8DE710B0F0BDC04696
:101BA0008095FC07F0B59DB01C4601920E46792148
:101BB0008900039041180DA802900491029D8DC9DF
:101BC0008DC50020102806D00DA9095809BA15AAFC
:101BD0001150001DF6E7039F019D0F2C2DDD103CD9
:101BE00009A810223146FCF717F90020102808D068
:101BF00009A9095809BA19AA115011AA1150001DB2
:101C0000F4E711A9384600F029F8002010280CD07C
:101C100015A90A5819AB1B580B5011A90958514066
:101C200009BA05AA1150001DF0E705A9102228469F
:101C3000FCF7F2F810351036CFE70020102806D058
:101C400015A9095809BA0DAA1150001DF6E70DA8EB
:101C5000049D1EC81EC51DB0F0BDC046F0B593B0B2
:101C60000E4601880191090140180C210A1D06D079
:101C7000725843185B6853407350091FF6E74018C9
:101C8000083008900FA80C3000900198401E069074
:101C9000002302960198834200D1A1E00422009C17
:101CA0000793002A00D184E00E949007000F305C67
:101CB0004C490F5C501C8007000F301840780D5CB9
:101CC000901C8007000F301880780C5C521E900723
:101CD000000F3018C078095C069883425ADA0D95D7
:101CE00025464D406B001B2628060C9600D57340F8
:101CF0000D9844406600200601D50C9846403046B9
:101D00000A965840460000060B9101D50C984640B3
:101D100009960D9E384631467040460000060493F1
:101D200001D50C98464030460E4603900A9B584019
:101D30004300000601D50C984340099918464840D5
:101D400041000006059201D50C98414030465840AC
:101D500068403A460B9E72405600120601D50C9A16
:101D60005640704048404F407D4003994D40099A8D
:101D700055407C4004994C40544021060B9A5740F2
:101D80000D9A57400A9A57405F40FAB21304029ED8
:101D9000059A03E008462104030638460E9C0B43CF
:101DA000E9B209021943C0B208432060241F079B0F
:101DB00077E7102000280DD00FA90918091F09681E
:101DC000089A1218143A12684A403118091F0A601A
:101DD000001FEFE708990918103908915B1C59E7B3
:101DE00013B0F0BD8094FC07000000008E070E00C9
:0400000507FC00A153
:00000001FF
