:0200000407FCF7
:10000000E861FD07B500FC07BD00FC07D500FC0753
:1000100000000000000000000000000000000000E0
:10002000000000000000000000000000ED00FC07E0
:100030000000000000000000EF00FC07F147FD0792
:10004000F300FC07F300FC070548FD07F547FD0733
:10005000A547FD07F300FC07F300FC07F300FC07CE
:10006000F300FC07F300FC07F300FC07F300FC07B8
:10007000F300FC07F300FC07F300FC07F300FC07A8
:10008000F300FC07F300FC07F300FC07F300FC0798
:100090003546FD07F300FC07F300FC07F300FC07FF
:1000A0000348854600F02EF8004800478D49FD07BB
:1000B000E861FD070F4880470F480047042071465C
:1000C000084203D0EFF309800C490847EFF308809A
:1000D0000A49084704207146084203D0EFF309801B
:1000E00007490847EFF3088005490847FEE7FEE7A0
:1000F000FEE7FEE74901FC07A100FC07B547FD0745
:10010000A147FD07064C0125064E05E0E36807CC34
:100110002B430C3C98471034B442F7D3FFF7C4FF8D
:100120008801FC07A801FC0702E008C8121F08C1EB
:10013000002AFAD170477047002001E001C1121F68
:10014000002AFBD1704700000D48062101800120E4
:10015000C1030C4A1160BFF34F8FBFF36F8F0221B1
:100160001160BFF34F8FBFF36F8F1060BFF34F8FDE
:10017000BFF36F8F052000070021018062B6704732
:100180000034005080E100E0A801FC070040FD07BA
:10019000681900002801FC07101BFC076859FD07BF
:1001A000800800003801FC07F0B587B00026002B5E
:1001B00007D0012B7DD102920827012203920E2243
:1001C00003E0029204270A22039647800280034636
:1001D0000833BE421AD20C7824064D782D042C190F
:1001E0008D782D026419CD7864191D1F2C600C794F
:1001F00024064D792D042C198D792D026419CD79A1
:1002000064191C6008310833B61CE2E7910004222F
:100210000A430692BC0028A1049101900646059766
:10022000069887423DD235593846059900F0B6FA0E
:10023000002918D0081F414241410398014001297B
:1002400028D1E8B2244A105C290AC9B2515C0902DB
:100250000818290CC9B2515C09044018290E515CD8
:100260000906451816E0E8B21B4A105C0002290A8C
:10027000C9B2515C09040818290CC9B2515C0906BD
:100280004018290E515C4018049A11780D0645401B
:10029000521C04923019716869404160361D7F1C00
:1002A000BEE779208000019908181022029900F019
:1002B00063FA07B0F0BDC046010204081020408078
:1002C0001B366CD8AB4D9A2F5EBC63C697356AD48B
:1002D000B37DFAEFC59100006458FD07FCB50188B5
:1002E00014308900052935DB076801903A461B4820
:1002F0000240D309D21A009117490A407C002546D2
:10030000174B1D4055406E0032460240D309D31AA8
:100310000B400440E209A21A0A400099104C264002
:100320005640720022405A4033466B4053407A4058
:1003300008241746E7415F4055401823DD417D40C2
:1003400072401023DA416A40019804C0019001987C
:10035000491EC7E7FCBDC0461B1B1B1B808080805D
:10036000FEFEFEFEF0B599B01C4601920E467921C4
:100370008900039041180DA802900491029D8DC937
:100380008DC50020102806D00DA9095809BA11AA58
:100390001150001DF6E7039F019D0F2C2ADD103C34
:1003A00009A81022314600F0E7F90020102809D0F2
:1003B00011A9095809AA125812BA4A4015A90A5097
:1003C000001DF3E715A9384600F024F80020102896
:1003D00008D015A9095811AA115009BA05AA115037
:1003E000001DF4E705A91022284600F0C5F91035D4
:1003F0001036D2E70020102806D011A9095809BAF2
:100400000DAA1150001DF6E70DA8049D1EC81EC5BB
:1004100019B0F0BDF0B590B00C46011D02880092F5
:1004200000220294102A08D08B58029CA4585C40E9
:10043000029B9C50029C121DF4E78018031D00983B
:10044000401E08900027009887426ED00193032633
:100450000CAA25460997072E59D00B920A95E878E1
:10046000334A155CB007000F205C105C711E8907D1
:10047000090F61184978535CB11E8907090F61188B
:100480008978515C089A97422FDA02466A405400F4
:100490001B27120600D57C4006940C4607956C403D
:1004A00002465A4055001206059700D57D40049536
:1004B0001F4667404B405D001A0601D5059A55401E
:1004C000039503466340784041406200240601D50D
:1004D000059C6240029C069D6F40049D6B40039DFD
:1004E0006940079D6840504001E0074628460B9A46
:1004F0000A9D0006C9B209044018D9B20902401881
:10050000F9B2401801C22D1D761C099FA3E70020F7
:10051000019B102806D00CA909581A584A402250AD
:10052000001DF6E71B187F1C8DE710B0F0BDC0461C
:100530006458FD07F0B59DB01C4601920E46792126
:100540008900039041180DA802900491029D8DC965
:100550008DC50020102806D00DA9095809BA15AA82
:100560001150001DF6E7039F019D0F2C2DDD103C5F
:1005700009A81022314600F0FFF80020102808D00A
:1005800009A9095809BA19AA115011AA1150001D38
:10059000F4E711A9384600F029F8002010280CD003
:1005A00015A90A5819AB1B580B5011A909585140ED
:1005B00009BA05AA1150001DF0E705A91022284626
:1005C00000F0DAF810351036CFE70020102806D0FA
:1005D00015A9095809BA0DAA1150001DF6E70DA872
:1005E000049D1EC81EC51DB0F0BDC046F0B593B039
:1005F0000E4601880191090140180C210A1D06D000
:10060000725843185B6853407350091FF6E740184F
:10061000083008900FA80C3000900198401E0690FA
:10062000002302960198834200D1A1E00422009C9D
:100630000793002A00D184E00E949007000F305CED
:100640004C490F5C501C8007000F301840780D5C3F
:10065000901C8007000F301880780C5C521E9007A9
:10066000000F3018C078095C069883425ADA0D955D
:1006700025464D406B001B2628060C9600D573407E
:100680000D9844406600200601D50C98464030463F
:100690000A965840460000060B9101D50C9846403A
:1006A00009960D9E38463146704046000006049378
:1006B00001D50C98464030460E4603900A9B5840A0
:1006C0004300000601D50C9843400999184648405C
:1006D00041000006059201D50C9841403046584033
:1006E00068403A460B9E72405600120601D50C9A9D
:1006F0005640704048404F407D4003994D40099A14
:1007000055407C4004994C40544021060B9A574078
:100710000D9A57400A9A57405F40FAB21304029E5E
:10072000059A03E008462104030638460E9C0B4355
:10073000E9B209021943C0B208432060241F079B95
:1007400077E7102000280DD00FA90918091F0968A4
:10075000089A1218143A12684A403118091F0A60A0
:10076000001FEFE708990918103908915B1C59E739
:1007700013B0F0BD6457FD0703460B439B0703D03E
:1007800009E008C9121F08C0042AFAD203E00B7856
:100790000370401C491C521EF9D2704770B50446C4
:1007A000002903D000202022012310E0002801D0DE
:1007B0000020C043C046C0460DE02546D5408D42CE
:1007C00005D30D469540641B1D46954040191546BE
:1007D000521E002DF1DC214670BD0000FEB5D24C4A
:1007E0001C34204806880120019000050290002753
:1007F0001D4D002E34D0042F32D2F0072BD0A88903
:10080000000605D428896989401A4142414100E027
:1008100000210198B840134A50802889029A134B4E
:100820001A60BFF34F8FBFF36F8F002907D0A989DC
:10083000019A9143A981A98908229143A98122683B
:10084000002A05D0411C606889B200949047009C42
:100850000298B74908601035083476087F1CC8E74D
:10086000FEBDC046823600500036005080E100E0F8
:10087000F8B504460E4D0F490F4A00232846FFF7EE
:1008800093FC2846FFF72AFD564E0D4D002C0DD443
:10089000012047020648314632463B46FFF74AFEF2
:1008A000FF20064908806419F619EFE7F8BDC04635
:1008B0007459FD074457FD075457FD070031005098
:1008C00000FEFFFFF8B515460E46044600F0DAFBC1
:1008D000002800D0F8BD19488768022000F0FAFC13
:1008E00000F098FB03200006304300F069FB002075
:1008F00000F0F0FCA819B84200D9BD1B104E2846E4
:100900003146FFF74BFF07460090002F08D02046E6
:10091000314600F045FCA41900F0FCFC7F1EF4E712
:10092000084800994843401905D081B2204600F09C
:1009300037FC00F0EFFC00F05FFBF8BD6859FD07E5
:10094000FFFF00000100FFFFFEE7000002480088F3
:100950000F481021016070472C1300500B4801898B
:1009600004220A430281018902220A43028101888A
:1009700040220A430280064901220A604189054A51
:1009800011408918091D41817047C0460800005078
:1009900080E200E0FC7F00007047000080B5024864
:1009A00000F0C0FC80BDC0460011005080B5024878
:1009B00000F0B8FC80BDC04600100050B0B500216A
:1009C000C943084A084B002809D01478CDB26540C5
:1009D000AC001C59090A6140521C401EF3E7C84391
:1009E000B0BDC0460000FC074453FD07F8B50B79C5
:1009F0005A01402414401D0180222E4616401F0932
:100A00003F02BE193419DB0020261E40A319102412
:100A10002C401B190C786400082525405B1906251D
:100A200025405B19CC79E407A40C4D796E08F607D4
:100A3000F60C3419ED072D0D64191C4384818B7954
:100A40000F2B47D0364BC3180424E3419C1E022CC5
:100A50001DD3012B3ED8EFF310830093012383F3C2
:100A600010888E792F4D2F88FFB23F09BE4203D1E7
:100A70002C88F02727432F802F880F24A743374344
:100A80002F80009C002C1ED083F3108822E0EFF30F
:100A900010830093012383F31088224D2C880F27A5
:100AA0003C408E79B44202D12C883C432C802C8867
:100AB000F027BC43360126432E80009C002C06D034
:100AC00083F3108806E0002383F3108802E00023FC
:100AD00083F310888B6803801B0C4380CB68838072
:100AE0001B0CC3800B8A5B1E43814B88002B00D1FB
:100AF0000B8A5B1E03814008382303400A48C01854
:100B00004B69C361896901620848016811437F220A
:100B1000914301600120000505490860F8BDC04609
:100B200000CAFFAF80360050A85BFD0714E400E068
:100B300000E100E0AAB0D54948880122059210439F
:100B40004880FF200880D24808214180129101800E
:100B5000D0480088C046C046CF48018807220F927F
:100B60009143018005210E910B07598D89050CD504
:100B70000188FE4A0A400E994903511801800188F4
:100B800040220A4338218A4302805888598C059AAA
:100B90001143598400271A971A99142903DA1A99CC
:100BA000491C1A91F8E75989059A114302220292C9
:100BB0009143598159894906FCD558801A971920C3
:100BC00080011A99814203DA1A98401C1A90F6E7BC
:100BD000588903218843588158890006FCD5588CD0
:100BE0001D46059B98436884E1480760698A402256
:100BF00011436982698A1092914369824761DD4A93
:100C000082621B04C3622C8880210C4304952C80D3
:100C10001A971A9C632C03DC1A9C641C1A94F8E73C
:100C2000059C04600760049D6C8A109E34436C82AE
:100C30006C8AB4436C8247618262C3622A880A4329
:100C40002A801A971A9A632A03DC1A9A521C1A925B
:100C5000F8E702680F9B9A43049B02601888884358
:100C60001880188A029988431882988A0007FCD550
:100C7000588A20210D9108435882A220D882588C8E
:100C8000A02101431098814359841AA82030019073
:100C900015A8001D0C900598C403800413900394BC
:100CA000E24A901E12990180B349881C10810120EC
:100CB00014901080481C508010981080D1810D989D
:100CC00010800C9807604760876087810E9890813C
:100CD000AB48159015AC204600F0EEF900F0E0F9B5
:100CE0001398A8498860204600F0E6F900F0D8F98A
:100CF00000F0C8F901460A312ED0C0B200282ED12A
:100D00000024204600F0E6FA00F084F99F209E4E71
:100D1000B0472046B0470006050A2046B04700020B
:100D200080B245192046B047C0B22C1800F064F9D3
:100D3000002C14D08F20C1430846944B0C300BD0AC
:100D40005918942289588C420146F7D118188430DA
:100D50008C491CC81CC102E013988A498860149809
:100D600000058B490860BFF34F8FBFF36F8F0F985B
:100D7000C1031AAC0C222046FFF7A4FD207870288E
:100D800000D0DDE06078522800D0D9E01C981190A6
:100D90001B991AAD402228460791FFF793FDA878CA
:100DA000AA2839463E463C463A463B4617D11AA841
:100DB0000178702939463E463C463A463B460ED1BC
:100DC0004078512839463E463C463A463B4606D195
:100DD000019803781AA8C4781C9A1B99149E06934C
:100DE000089209911AAD402228461199FFF76AFD31
:100DF000A878AA2819D11AA80178702915D14078A5
:100E0000512812D1019800780A90B61C1AA81C9992
:100E10000B911B9D032E0BD1C078FF2C00D095E0C9
:100E2000002800D092E0059E39E00A970B973D46D6
:100E3000022E33D0012E3C465BD1079940314F48FA
:100E4000099E3246FFF73EFD0698002802D0304644
:100E5000FFF70EFD3046FFF7B1FD0899081A414231
:100E60004141149844400C4343D1119940314348C7
:100E70002A46FFF727FD0A98002802D02846FFF7E8
:100E8000F7FC2846FFF79AFD0B9930E0003100503F
:100E90000033005042000050820000503E4611993D
:100EA000403136482A46FFF70DFD0A98002802D047
:100EB0002846FFF7DDFC2846FFF780FD0B99081A4E
:100EC00041424141149846400E4312D107994031A6
:100ED0002A48099C2246FFF7F5FC0698002802D014
:100EE0002046FFF7C5FC2046FFF768FD08998142C0
:100EF00026D1C8201B4908801B481299418000F068
:100F000097F8059800F046F81C4908680842049ACA
:100F1000039C0DD0508A1AA908800888029B1843A8
:100F2000149B984308801A98204308801A9850828E
:100F3000508A1AA908801A98204308801A9850826B
:100F400000F076F8002000F025F8A9E6002C03D187
:100F5000FF2801D1059C70E78442059E34469ED34C
:100F60006BE7C0460031005000330050FF0F000017
:100F70000000F407204F101A060300000000FC07D1
:100F8000200000036859FD07194EFD07C052FD07F8
:100F900080E100E02549002803D0881E0822028055
:100FA00001E008200880012042020A8108804A806E
:100FB00040200880CA81202008808A817047C0466E
:100FC000CC490A8902231343012293430B810B88E6
:100FD000DB0501D5030C8B80130248800888800450
:100FE000FCD5CA800888184202D08888020400E034
:100FF0000022488810437047C9490A79012090406F
:101000000978032900D104214901014A8852704717
:1010100002300050C2490A79012090400978032922
:1010200000D104214901014A885270470430005020
:10103000B0B5EFF31085012484F31088AD48018822
:10104000A143018054480188064A0A400280FFF704
:10105000D3FF002D02D084F31088B0BD002080F3B0
:101060001088B0BDFFF7000080B505480288120760
:10107000FCD4AB48C268002A01D00846904780BD26
:101080000812005010B50124204600F023F9052075
:10109000000200F033F9204040420D21884310BD8A
:1010A00080B5FFF7B7FFFFF7A7FF002000F012F9A8
:1010B000AB2000F023F980BDF0B589B004468078FC
:1010C000974E3070E0783071FFF796FFEFF31080A5
:1010D000012585F31088E9022F4A13880B431380FA
:1010E000002802D085F3108802E0002080F31088E9
:1010F0002078410878220A400E210140C007400EA6
:101100004018104361784A07920D10188909C907E1
:10111000490C4018774B188018890321884318819F
:10112000E06830610195DD806068B060A068F060C3
:101130001A4D207CC007284601D028462030706117
:1011400002AE00217180042232703182F18071710F
:10115000627C17017A1D3271089107910591991CE3
:10116000009104913146FFF741FCF81C3071207C5E
:10117000C00701D0303500E01035019C6848009967
:101180008561059128463146FFF730FC59490888AA
:101190002043088009B0F0BD040000500036005024
:1011A000F0B587B00191534B1C8819890325A943D9
:1011B00019811988490600D588E00122E1050490CB
:1011C0004BD411020091564D6C69AE69600838210C
:1011D000084003901C353E4F2F5070080840059082
:1011E0000021029129500098803019880140481E42
:1011F00081414F0000970620C343A1891940C919B6
:10120000A1810498A080010CE1800198411E2181F8
:101210006181B0894027B843B081B0891840009BF4
:10122000C018B08106A83080000C708031817181B7
:10123000B08908218843B081B0891043B0810398F8
:101240002818029B4360A0890843A08105982818AC
:101250004360A0891043A08138E0E109059154035F
:101260000027039002900199BEB28E4225D200263B
:101270005E801E882642FCD0059E2E40012E07D09F
:10128000002E0FD15E8802980670401C029011E07B
:101290005E8828461546049A1680921C04922A46B7
:1012A000054607E05E88998809048919039802C0F9
:1012B00003900199DA807F1CD6E718890007FCD4D7
:1012C00001E05888DA8018882042FAD107B0F0BDD2
:1012D000C14EFD0710B507490A8801239A430A80C9
:1012E0000A88054C1440C001204308800888184330
:1012F000088010BD001200507FFE000010B50446AB
:10130000FFF788FE2046FFF75BFE0446FFF774FEFA
:10131000204610BD024840698189C907FCD1704749
:10132000A85BFD07F0B585B004464D48201A411E64
:10133000884140014B490D1828460E30019028463F
:1013400018300390284614300090281D0290AE1DDE
:1013500028461030049027467C3720890F21014011
:10136000481E0B28F9D8C0467844007940008744CD
:101370004E06051E05222A0505050532EDE70298F1
:1013800000883188814234D22289C0231340C02B87
:1013900003D13A88920703D4DFE7A28A9206DCD50C
:1013A0004A1C32802B68595C21801146EAE72046AE
:1013B00000F030F8D1E704980268002ACDD0A08A66
:1013C0009E21014004E004980268002AC5D0012152
:1013D00020469047C1E7204600F01CF8A088012174
:1013E0008843A080039801680029B6D0019800883E
:1013F0000BE0A18802229143A180A1888022914321
:10140000A180009909680029A7D08847A5E705B001
:10141000F0BDC046F8B51249411A4A1E9141490132
:10142000104A5518AB89E9892C46083400950E35C9
:10143000994209D2868AF60710D006884F1C2F8061
:10144000226856543946F3E7828801239A43828002
:1014500000988269002A01D088B29047F8BDC04642
:1014600000100050685BFD07010000001130EF0024
:1014700000000200020000001230EF000000040033
:101480000300000000421F000000020004000000F2
:101490001120C20000000200050000001128C20057
:1014A00000000200060000001228C2000000040034
:1014B0000F00000011608500000002001200000013
:1014C0001264C800000004001300000001431F0064
:1014D000000004001400000001111F0000000400BF
:1014E000150000000C441F00000008000000000070
:1014F000963007772C610EEEBA51099919C46D0721
:101500008FF46A7035A563E9A395649E3288DB0E7B
:10151000A4B8DC791EE9D5E088D9D2972B4CB6095E
:10152000BD7CB17E072DB8E7911DBF906410B71D3B
:10153000F220B06A4871B9F3DE41BE847DD4DA1A74
:10154000EBE4DD6D51B5D4F4C785D38356986C13A5
:10155000C0A86B647AF962FDECC9658A4F5C01141E
:10156000D96C0663633D0FFAF50D088DC8206E3BFC
:101570005E10694CE44160D5727167A2D1E4033C0E
:1015800047D4044BFD850DD26BB50AA5FAA8B53535
:101590006C98B242D6C9BBDB40F9BCACE36CD83224
:1015A000755CDF45CF0DD6DC593DD1ABAC30D926CB
:1015B0003A00DE518051D7C81661D0BFB5F4B421CE
:1015C00023C4B3569995BACF0FA5BDB89EB80228CB
:1015D0000888055FB2D90CC624E90BB1877C6F2F50
:1015E000114C6858AB1D61C13D2D66B69041DC764B
:1015F0000671DB01BC20D2982A10D5EF8985B17124
:101600001FB5B606A5E4BF9F33D4B8E8A2C90778D2
:1016100034F9000F8EA8099618980EE1BB0D6A7F69
:101620002D3D6D08976C6491015C63E6F4516B6B22
:1016300062616C1CD83065854E0062F2ED95066CD7
:101640007BA5011BC1F4088257C40FF5C6D9B0654C
:1016500050E9B712EAB8BE8B7C88B9FCDF1DDD62A9
:10166000492DDA15F37CD38C654CD4FB5861B24D0F
:10167000CE51B53A7400BCA3E230BBD441A5DF4AD9
:10168000D795D83D6DC4D1A4FBF4D6D36AE969439C
:10169000FCD96E34468867ADD0B860DA732D044447
:1016A000E51D03335F4C0AAAC97C0DDD3C71055072
:1016B000AA41022710100BBE86200CC925B5685719
:1016C000B3856F2009D466B99FE461CE0EF9DE5E62
:1016D00098C9D9292298D0B0B4A8D7C7173DB35913
:1016E000810DB42E3B5CBDB7AD6CBAC02083B8EDA4
:1016F000B6B3BF9A0CE2B6039AD2B1743947D5EAB1
:10170000AF77D29D1526DB048316DC73120B63E3DF
:10171000843B64943E6A6D0DA85A6A7A0BCF0EE43E
:101720009DFF099327AE000AB19E077D44930FF0F9
:10173000D2A3088768F2011EFEC206695D5762F7F0
:10174000CB67658071366C19E7066B6E761BD4FE2D
:10175000E02BD3895A7ADA10CC4ADD676FDFB9F90A
:10176000F9EFBE8E43BEB717D58EB060E8A3D6D6CC
:101770007E93D1A1C4C2D83852F2DF4FF167BBD1FA
:101780006757BCA6DD06B53F4B36B248DA2B0DD8FD
:101790004C1B0AAFF64A0336607A0441C3EF60DFA0
:1017A00055DF67A8EF8E6E3179BE69468CB361CB89
:1017B0001A8366BCA0D26F2536E2685295770CCCAE
:1017C00003470BBBB91602222F260555BE3BBAC5EF
:1017D000280BBDB2925AB42B046AB35CA7FFD7C2E0
:1017E00031CFD0B58B9ED92C1DAEDE5BB0C2649BD1
:1017F00026F263EC9CA36A750A936D02A906099C04
:101800003F360EEB8567077213570005824ABF9576
:10181000147AB8E2AE2BB17B381BB60C9B8ED292F9
:101820000DBED5E5B7EFDC7C21DFDB0BD4D2D38650
:1018300042E2D4F1F8B3DD686E83DA1FCD16BE81C3
:101840005B26B9F6E177B06F7747B718E65A088894
:10185000706A0FFFCA3B06665C0B0111FF9E658F25
:1018600069AE62F8D3FF6B6145CF6C1678E20AA0CF
:10187000EED20DD75483044EC2B30339612667A755
:10188000F71660D04D476949DB776E3E4A6AD1AEA4
:10189000DC5AD6D9660BDF40F03BD83753AEBCA933
:1018A000C59EBBDE7FCFB247E9FFB5301CF2BDBDA0
:1018B0008AC2BACA3093B353A6A3B4240536D0BAA9
:1018C0009306D7CD2957DE54BF67D9232E7A66B346
:1018D000B84A61C4021B685D942B6F2A37BE0BB4F3
:1018E000A18E0CC31BDF055A8DEF022D06A92140E6
:1018F00036B8A15B512E03D5341200063DAFBA4273
:101900009D9EB430B422DA802C9FAC4152096AD536
:101910003036A538BF40A39E81F3D7FB7CE33982E4
:101920009B2FFF87348E4344C4DEE9CB547B943233
:10193000A6C2233DEE4C950B42FAC34E082EA1667B
:1019400028D924B2765BA2496D8BD12572F8F66452
:1019500086689816D4A45CCC5D65B6926C704850CD
:10196000FDEDB9DA5E154657A78D9D8490D8AB0082
:101970008CBCD30AF7E45805B8B34506D02C1E8FAB
:10198000CA3F0F02C1AFBD0301138A6B3A911141E7
:101990004F67DCEA97F2CFCEF0B4E67396AC7422D0
:1019A000E7AD3585E2F937E81C75DF6E47F11A714E
:1019B0001D29C5896FB7620EAA18BE1BFC563E4B87
:1019C000C6D279209ADBC0FE78CD5AF41FDDA83349
:1019D0008807C731B11210592780EC5F60517FA989
:1019E00019B54A0D2DE57A9F93C99CEFA0E03B4DB8
:1019F000AE2AF5B0C8EBBB3C83539961172B047E2C
:101A0000BA77D626E169146355210C7D637C777B18
:101A1000F26B6FC53001672BFED7AB76CA82C97DEA
:101A2000FA5947F0ADD4A2AF9CA472C0B7FD93267B
:101A3000363FF7CC34A5E5F171D8311504C723C37F
:101A40001896059A071280E2EB27B27509832C1AC3
:101A50001B6E5AA0523BD6B329E32F8453D100ED1D
:101A600020FCB15B6ACBBE394A4C58CFD0EFAAFB01
:101A7000434D338545F9027F503C9FA851A3408FC9
:101A8000929D38F5BCB6DA2110FFF3D2CD0C13ECE1
:101A90005F974417C4A77E3D645D197360814FDC76
:101AA000222A908846EEB814DE5E0BDBE0323A0A5A
:101AB0004906245CC2D3AC629195E479E7C8376DDE
:101AC0008DD54EA96C56F4EA657AAE08BA78252E03
:101AD0001CA6B4C6E8DD741F4BBD8B8A703EB5668C
:101AE0004803F60E613557B986C11D9EE1F898117D
:101AF00069D98E949B1E87E9CE5528DF8CA1890D6C
:101B0000BFE6426841992D0FB054BB16000000009B
:0400000507FC00A153
:00000001FF
