:0200000407FCF7
:10000000E866FC072501FC072D01FC074501FC07FC
:1000100000000000000000000000000000000000E0
:100020000000000000000000000000005D01FC076F
:1000300000000000000000005F01FC077D25FC07B8
:100040001921FC074D53FC071D27F0078125FC07EC
:100050009924FC076301FC07D520FC076301FC071A
:10006000E120FC076301FC073923FC074323FC075D
:100070004D23FC075723FC076123FC074725FC079A
:10008000C525FC076301FC076301FC076301FC074E
:100090006301FC076301FC076301FC076301FC07C4
:0200000407FCF7
:100110000348854601F0AAFE004800476144FC07F9
:10012000E866FC070F4880470F48004704207146E7
:10013000084203D0EFF309800C490847EFF3088029
:100140000A49084704207146084203D0EFF30980AA
:1001500007490847EFF3088005490847FEE7FEE72F
:10016000FEE7FEE72958FC071101FC07A924FC075C
:100170003D24FC073EB50D4D6D1E14D002880A4289
:10018000FAD16D1E0FD002880A42FAD0084A1368CD
:100190000124234313606D1E05D002880A42FAD160
:1001A000044A10683EBD00203EBD0000C0C62D00C0
:1001B00010E000E018E000E070B50E4604460022B2
:1001C000032151F7C8FB054652F794FD6880284685
:1001D00051F7D2FB52F78EFD7188884200D3084652
:1001E0000146204651F7AFFC002070BD0246FF4B90
:1001F00092009A580120126900290ED0517F5E2387
:100200009B5C002B0BD0052906D1517E090702D536
:10021000917C090700D400207047917DEFE7022907
:10022000F9D00429F7D00529F6D10020EDE70246E0
:1002300030B59300ED4A0120D2581269137DD47E67
:10024000157F2340547D2C40012901D0022909D17A
:10025000957C527E15402A0704D41A462243D207C1
:1002600000D10020032901D0042904D1590702D468
:10027000610700D4002030BDF8B514460D46104685
:100280005BF74BFE240A002830D0D949A2008B58D6
:1002900001271E8BBF023E431E83132826D014283D
:1002A00024D0152811D088582D210A5C0123D106AD
:1002B00000290CDA0146A0318E7D002E07D08B7507
:1002C0003D21204646F796F810E00220F8BD1107C0
:1002D00003D50021A0308175F7E7A0308375204653
:1002E00043F782FD2946204643F7C1FD0020F8BDB3
:1002F000FFB581B01546170A10465BF70EFE0028C1
:1003000038D0132836D0142834D0290A8C00B84E9F
:10031000152815D0FF20294603305BF7E5FE30593C
:100320002D21095CC90603D5A030C07D00280ED060
:100330003D026D1CA8B25BF7F0FD19280CD00FE050
:1003400030590121A030C175022005B0F0BD3D211A
:10035000384646F74FF80DE0A8B201215BF7ABFD38
:1003600030590122018B5202914301833846029990
:1003700043F77DFD0020E8E7F0B59D498700C959A6
:10038000002680314A8C8B8C1B2A00D21B228C8B3E
:10039000944200D222468A849A4200D001260B8CD5
:1003A000CD8C1B2B00D21B23CC8B9C4200D223462E
:1003B000CB84AB4200D001260B8ECD8D9C46FF2313
:1003C00049339D4201D21C4600E02C460D8DA542CA
:1003D00000D325460D86654500D001264C8EA446E7
:1003E0008C8D9C4200D21C464B8DA34200D21C46F1
:1003F0004C86644500D00126EB080B3B9BB29A4229
:1004000000D213468B86522379495843794BCA59F7
:100410001C6880320419D28C8034E285C9591A686C
:1004200080318018498E803001863046F0BD10B58D
:1004300004467148008D8007800F012800D00020FD
:100440006071002807D058F7D1F801460622A01D98
:100450005DF72CFE10BD06226849A01DF8E770B5B7
:100460000546002442F787FA2855641C082CF9DB5E
:1004700070BDF8B5022707700126044646700D4688
:1004800088795F49C96988472A2108552879002158
:100490000007000FA07003005DF75CFE0705070969
:1004A000100D100B1000A1700AE0A67026E00320CA
:1004B00002E0A77004E00420A07001E001281DD034
:1004C000A888000A801FC0B2A0721F2800D9A1729C
:1004D000284642F705FB811D2046A27A0B305DF7C6
:1004E000E5FD284642F7FCFA01460622201D5DF78D
:1004F000DDFD28794006C00FE070F8BDA172F0E77D
:10050000F7B544688CB02546243503950546074663
:1005100024354CF7F9FB06464420405B5221484302
:10052000344909684018C03040896946088401216F
:10053000384647F728FB4CF75CFA09900E9800699B
:100540008088000AC1002F480818298940182D49C1
:100550005B315DF731FD01466868039D4718403502
:10056000288906900090A0680099381A4001400937
:100570005DF722FD0A910098C019401A4001400918
:100580006946A060098C4900C919891C49014909BB
:10059000884204D20699401840014009A0600146F3
:1005A0000998081A400118494009884215D90020C5
:1005B0002B89A268401CD21852015209A260EA8914
:1005C000521CEA81A368099A9A1A520152098A4276
:1005D000EED801B20D9847F777FBA1680998081A81
:1005E0004201607D5209824221D80FE02C7EFD0736
:1005F0001879FD074C76FD074C7EFD07CF79FD0786
:10060000B47FFD0716020000FFFFFF032A89891847
:1006100049014909A1602A890A99511A814206D9DA
:1006200001210D9847F750FBE889401CE881298992
:10063000A0685DF7C1FCF1802889B080208A3081F4
:10064000A88870810020B081C807C00FB073A88847
:10065000522148438E30308230464CF760FB03987D
:10066000466320460FB0F0BDFFB5002093B00646AC
:100670000124FE4949680A7821460C2A0CD06A46B2
:10068000117300221192002E09D015990291169D26
:100690001F2D54D9402052E0002422461194139972
:1006A0000291149DF4E7029989184978012905D02F
:1006B000172903D0182901D0192912D1631E04E08B
:1006C00003AFFF5C8F4204D05B1E5BB2002BF7DAF6
:1006D00003E0002B01DB4A2003E003AB1955641C47
:1006E000E4B20B005DF736FD1D261010101010103F
:1006F00010101026262626262626262626262626DC
:100700001010101010102600119B03E00BAFFF5CBF
:100710008F4204D05B1E5BB2002BF7DA03E0002BA4
:1007200001DB4A2006E0119F0BABD9551199491CFA
:10073000C9B211910299895C521C89188AB2AA42E5
:1007400001D20028AFD0AA4200D04A20761CF6B2CF
:10075000022E01D2002894D017B0F0BD10B50022AF
:10076000134607E084186478012C07D0845C521C7F
:10077000A21892B28A42F5D3184610BD8018837829
:10078000FAE7F0B50646A9B01546002084006318C4
:10079000DA789F7812025B783A4352BA1B041A4304
:1007A0000B5D07241B061A43231A9F0020AB401C35
:1007B000DA510828EAD300218A0090190746C37845
:1007C00080781B02034378785BBA00040343B05C73
:1007D00010AA00060343601A8000135038462230E6
:1007E000437800781B0203433846203047785BBAD1
:1007F0003F0400783B43000603430F27781A80002C
:10080000491C13500829D7D35CF7E4FA0146304657
:100810005CF75DFF00282DD05CF7DCFA034620AAC8
:1008200010A968465DF75EFB00226846A11A8B009E
:100830009600C75C7119CF70C75A3F0A8F70C758AE
:100840003F0C4F70C35820311B0EAB550F239B1A22
:100850009B00C65CCE70C65A521C360A8E70C658B3
:10086000360C4E70C3581B0E0B70082ADED30020C6
:1008700029B0F0BD0120FBE7F7B500251746064675
:1008800041232A4629460A205BF792F90446002EA6
:1008900010D0012E02D0022E0CD105E02022611CC6
:1008A000002042F781F804E0621C3946019842F7C3
:1008B0002BF8207020465BF794F92846FEBDF8B56A
:1008C0006B48009007680C46002F7BD005461C350E
:1008D000287E002876D0012802D0022872D102E0BA
:1008E0002078002819D038896249002688423AD1F8
:1008F00007204BF701FE002835D042233E2200217D
:100900005D485BF755F9082101702178002913D063
:10091000032141702178817043E055480226611C13
:1009200014302E76202204465DF7C0FB2246534940
:10093000304641F7F3FF45E0002146701F22531A6D
:100940001B1947185B78491CBB702029F7DB002175
:100950003F22531A47181B1920375B78491CBB707C
:100960002029F6DB1DE043493889491C88421AD109
:1009700008204BF7C1FD002815D022233E2200217C
:100980003D485BF715F909210170217800291BD03A
:10099000122141700021FF224318491C9A7020291E
:1009A000FADB4EF7B5F82E7640205BF784FD009811
:1009B00042F7B8F85BF73FF900980068002801D0CB
:1009C00041F7A7FF0020F8BD002146701F22531AEF
:1009D0001B1947185B78491CBB702029F7DBE0E73F
:1009E00070B5087800250C46012809D01D2810D0C4
:1009F0002B2812D04022194656F79AF8284670BD87
:100A00005BF743FC1948012504601D4857F723FC98
:100A1000F4E71C4841F7E6FEF0E71B4801680029AF
:100A2000ECD101210160194841F7E2FFE6E770B51A
:100A3000104D174C223DAB422ED10F4809232A46B8
:100A40000021C01E5BF7B4F8044608221149401C7F
:100A50005DF72CFB207908210843207100252570C3
:100A600020464EF755F8284670BD00004C7EFD0725
:100A7000287AFD07252000000408000089E7F10717
:100A8000030C0000C3C3C3C35077FD07CC7DFD0733
:100A90000DC3F0075CE5F107A047E5E7F1B584B0C9
:100AA0000498FF4980000C5804980502A81D029084
:100AB000002C15D06068818804290CD34188861DDC
:100AC0000C38009101903146049858F79AF9F5498D
:100AD000884206D160680C385BF7ADF80020606092
:100AE00033E4F178B2780F02019928431743C880A4
:100AF000384640383F2819D803223946049854F71D
:100B000007FA0600E6D0B07B0128E3D13420B073A9
:100B100029460A310423E448029A5BF749F8B1896F
:100B20004180102101705BF75CF8D3E761683420E5
:100B30000870022100985AF72DFF05463146009AA9
:100B40005DF7B4FA68782978000208436168C880C4
:100B5000E878A978000208436168062F08810BD065
:100B6000042F09D06068052F10D00C385BF763F8AC
:100B700028465AF78AFFB1E760688188052913D3B0
:100B8000297981726168287988720DE08188052948
:100B90000AD32979817261682879887260688188AE
:100BA000062901D36979C17260685BF71AF8DFE73B
:100BB000FFB587B00E4609985BF7AFF90999090AA6
:100BC0000391002876D08800B54905900D58B749A3
:100BD000B079096B0A225043B478081841F780FFB6
:100BE00001906868002808D0012C2DD00398FFF7E9
:100BF00055FF6868002802D026E0022C5AD1B08840
:100C00000127022805D30198417800780C0204439B
:100C100002E052F76FF8044652F76CF8A04201D296
:100C20000224002720464C3083B29E49A048099AEE
:100C30005AF7BEFF241D68604480002F01D00020B9
:100C400000E034206968087068680028BAD0811D07
:100C50000091B2880199841C071D01928088238825
:100C600082189A4209D8009A8018019A5DF71EFAF4
:100C7000398801980818388009E01A1A009BC018B2
:100C80005DF714FA20883880696834200870388845
:100C900004280FD300984178027808021043218875
:100CA000001D884207D280B220803988814207D94E
:100CB000388002E068E0884202D969683420087010
:100CC0003888218888425FD1686800990C38019083
:100CD000039858F796F869680978002951D1714945
:100CE00088424ED003990F0201993843C88020886A
:100CF000022101905AF74EFE0490228800995DF778
:100D0000D5F9049800283FD06968002088800198B0
:100D100002226B46039907C36868049B821C011D6D
:100D2000801D41F7B7FD6968087004985AF7ADFE59
:100D300068684188002902D00178002954D00189CF
:100D400040393F2944D8017830291ED00146544A01
:100D500005980C391058083041F700FF696803986E
:100D6000891D41F7A8FD4628686801891FD0032224
:100D7000039854F7CDF800282CD0808A00282CD076
:100D800028E00398FFF78AFE42E04A49098D0906E8
:100D9000C90F07D048490C380968099A898D89B26A
:100DA0005AF73CFF68680C385AF745FF12E00322F7
:100DB000039854F7ADF804000CD039460A310423E7
:100DC0003948099A5AF7F4FEA1894180102101702F
:100DD0005AF707FF002068601AE06868002201895E
:100DE000039841F763FDF5E70189084640383F283D
:100DF0000ED80322039854F78BF8002808D0808A75
:100E0000002805D1686800220189039841F74EFD4A
:100E1000B07941F758FE00200BB0F0BDFFB58BB0A4
:100E2000064616980027022821D00D9801881498AC
:100E300081427DD37188084640383F2802D81598F2
:100E400054F7A7F80C98361D0088149A80190E994B
:100E50005DF72CF90C980188149808180C990880F3
:100E60000D9801881498081A0D99088069E10020EE
:100E70000E9D079069782C78090221433180E9782A
:100E8000AC780902214371808C46403904242D1D21
:100E9000024603468E46402900D3287861460DE07D
:100EA000AC7DFD07FFFF0000260E0000E078FD0787
:100EB000010A00004C7EFD075876FD0704291FD06B
:100EC000052914D0062918D070463F283ED8159819
:100ED00054F75FF80006000E04D0FC48008D0006B1
:100EE000C00F31D002230120F94A002712E06978AF
:100EF00000290FD0F74A17230CE0F74A0F2309E027
:100F0000522802D0D22802D002E0142000E015209E
:100F1000F24A1F23002A7DD098427BD280001058CD
:100F200004900028F7D0002008900590708800E019
:100F300006E14038402803D32878052430716D1C21
:100F4000701D00900498AFE03027EDE03327EBE010
:100F5000522864D00CDC4B283FD004DC41286AD0F6
:100F600042285AD111E04C2820D0502855D140E0D9
:100F7000632830D004DC572818D061284DD19BE07D
:100F80006C2864D0772848D109E00098297801704E
:100F90000098641C401CA4B26D1C009081E0049871
:100FA000401C04900178089881427AD10098A41CD2
:100FB000401C41084900881C009068782A7800028B
:100FC000104308800599AD1CA4B2002969D008908F
:100FD0000020059065E00120FBE7102229460098DB
:100FE0005DF764F8009810341030A4B2103500900A
:100FF00057E0204640301499039088420DD8402293
:10100000294600985DF752F8009840300090039808
:1010100084B200E079E0403543E0342741E0082223
:10102000294600985DF742F8009808340830A4B2C9
:101030000835009035E00622294600985DF736F81D
:101040000098A41D801DA4B2AD1D009029E0149845
:10105000001B80B203903088001B001D81B201206C
:1010600007900498401C04900098401C40084000E1
:1010700000900498007857281CD04228CDD10098C1
:101080000170090A417000982946801C0090039A5B
:101090005DF70CF803980399201884B20098401863
:1010A00000900498401C04900078002820D0002F65
:1010B00019D01DE04908E2E71498001B80B20390A4
:1010C0000098039A401C41084900012000910790B4
:1010D000294600985CF7EAFF03980099201884B22B
:1010E00003980818DCE70D990988A14200D32FE77F
:1010F0000D980088A04208D304990978002904D1EA
:101100000799002903D1A04201D034270CE00D99A2
:10111000001B08800C9801880098801B001F08188D
:101120000C99002F08800CD07088042809D006285C
:1011300007D04038402804D30E984079707100E001
:10114000342738460FB0F0BDFFB581B01F461646B4
:101150000C4610465AF7E1FE00253F2802D02189AF
:10116000062908D03B4632462146019854F79DFA9D
:1011700005462846B4E4000701D50225F9E72078A2
:101180000028F6D1300AA11D41F79FFAF1E7F3B527
:1011900081B00198524C850060590F464068CE8856
:1011A00001462431009147F7C1F800994D4A40317A
:1011B0000091C989701A80B2904214D2B14212D003
:1011C00060593146406846F76AF960590522791C32
:1011D0001F305CF76BFF019805210002401C80B2B4
:1011E0005AF769FEFEBD60590522791C1F305CF775
:1011F0005DFF0098808842F745F9FEBDF8B53A4C8E
:10120000064685000F4660594821095C24290ED105
:1012100000691022791D2E305CF748FF61592520A6
:101220004031087200221146304653F717F86059D2
:101230004821095C0C291FD100691022791D2E302C
:101240005CF734FF60595F210069095C09072DD400
:1012500001462E3110221E305CF74CFF00280CD0C6
:101260006059092140300172304653F715FD01469F
:101270000022304652F77DFBF8BD0421684601701C
:101280006A460521304652F71FFD68460178602006
:10129000014368460170304653F7FEFC014668463C
:1012A00002780123304652F779FCF8BD304653F7F7
:1012B000F3FC01281AD06059072140300172002246
:1012C0001146304652F7CAFFF8BD00004C7EFD07BC
:1012D00014F3F1071CF3F10778F3F107B4F3F10706
:1012E0001879FD07FF7F00002C7EFD076159002063
:1012F0000969C031887160590421026930461E3283
:1013000052F7E2FC605901694031897F002907D01A
:101310001A21403001720021304653F729F8D3E7F3
:101320001B2140300172304653F777F8CCE7F8B50F
:10133000E64C05468600A0594822125C192AC3D102
:1013400040224930491D5CF7B1FEA0594022E049D6
:1013500049305CF7CFFE002805D0DD49284620390A
:101360005AF727F9B0E70B21684601706A46052154
:10137000284652F7A9FC6846017860200143684678
:101380000170284653F788FC01466846027801231D
:10139000284652F703FC97E7FFB581B003980C4647
:1013A000060A00255AF7B9FD002818D0132816D0D0
:1013B000142814D0C748B700C0592030407BC0065D
:1013C00028D503985AF7A9FD15280CD0A07941F724
:1013D0007AFB304645F791FF032806D015E0A07947
:1013E00041F771FB1FE002251DE0BA48C0592030CB
:1013F000407B400704D53D21304641F79CFF04E087
:101400003D220021304641F7A4FF3D21304644F7FC
:10141000F1FF08E020460C38AF498180C6802046A5
:101420004DF776FB01252846A4E6F1B58EB00E985F
:1014300041F756FB04460E98694600794006C00FF6
:101440000A9006900A208883628BA449101A884269
:101450007ED2E08A06287BD31921C901884277D839
:10146000238BFF21F5318B4272D85B1C99005918F0
:101470004143491C0A2349105A43914268DC217FA9
:1014800000290CD1617F002909D1A17F002906D153
:10149000E17F002903D12021095DC90658D02746E4
:1014A00020377978C906C90E491F0C2950D2A18A64
:1014B00081424DD8E17C00294AD0421E082A01D938
:1014C000082000E0401E814242D805A844F77AFF78
:1014D00000283DD1824D0622E861214608A85CF72C
:1014E000E5FDA8782E46803E00287ED060798009F0
:1014F00001280AD020460A994BF7A2F800285ED0AE
:101500003821095C002954D059E020464BF705F9F1
:10151000E861002804D10BA920464BF714F9E861D3
:10152000F16A887A012801D0042810D1E8690028DE
:101530000ED00622253010315CF7DCFD002807D1E3
:10154000E869F16A2030C07AC97B884200D100E0A6
:10155000A2E0E969002932D0062208A825315CF70B
:10156000A5FDE8692B21095C07AA253006914AF7F9
:1015700049FF00280FD0E8692030C07A002811D137
:1015800068465849808B49F7EFFE07AA0121554864
:101590004AF738FF06E007AA01210BA84AF732FFF5
:1015A00000280CD0E9696846808B323149F7F2FE99
:1015B00005E04218527D002A08D010296CDBF06A41
:1015C000407A022806D0032804D00EE0491C1029D6
:1015D000EFDBF4E76846808B0A2806D307AA20468B
:1015E0000A994AF70FFF002856D0002205A9204685
:1015F0004AF7B2FF00284FD1F06A407A02280BD098
:10160000032809D000236846828A08A806994AF769
:10161000C4FF002802D02EE00123F4E7E18A6846E7
:101620000180218B4180618B81807878062241097D
:10163000684681737878C106C90E684641732146B1
:10164000801D5CF733FD0E9800794006C10F684697
:101650000173838A2146B26D45F761FE0146B0658C
:10166000684641F707FD0020B065214668461C31F9
:10167000808A44F7FAFE47F798FE194C2034207907
:10168000002805D0002109205AF72EFD00202071E6
:10169000002108465AF70FFC54E510B57022124994
:1016A00012485CF703FD10493822383910485CF7BE
:1016B000FDFC0E480F49A03001600B4970394160B4
:1016C0000A490D482039086010BD70472C7EFD077F
:1016D000EC7DFD071879FD0706080000770C000077
:1016E000E479FD0704E5F107D858FC07200008401D
:1016F000C000FC078CBFF107FF3F1000F8B53E4C5F
:101700006088C6076088F60FC005C50F608840086E
:10171000400060806088FF270137B843608041F750
:101720004FF941F753F900220821022041F742F90D
:10173000002800D001206188A188618849084900FB
:101740003143618061882A02B94311436180F8BD49
:1017500070B5012529492A020A60BFF34F8FBFF3F4
:101760006F8F27490A6027490B681C0A240240230F
:101770001C430C60214980390A601F494C880626A9
:10178000B443241D4C804C882C434C804C88382515
:101790002C434C804C889C434C8001280FD14888B6
:1017A00033021843488048881043488048882A02FA
:1017B000104348804888012292039043488070BDBE
:1017C00010B5114CE18A114ACBB21189248BC9049E
:1017D000890E6404640E001B093141430120C002DC
:1017E000401A80B2584340031189000E090A0902C9
:1017F0000143118110BD00002020005080E100E075
:1018000080E200E008E400E000230050002C0050DB
:1018100010B50F4903205AF71CFB002103205AF78B
:101820004AFB10BD10B5044601230A4A00210A48AC
:101830005AF7BEF909498C4201D1032103E0084956
:101840008C4201D1002101704DF762F910BD0000FA
:101850004859FC0711FC000001080000A5A5A5A53A
:10186000C3C3C3C3F8B50202054641230921344866
:101870000A325AF79DF927210170044600201F23E0
:101880003049AA008F581E1A4936BE5D2718401CE1
:101890007E702028F6DB00203F238E581F1A493720
:1018A000F65D27182037401C7E702028F5DB5BF79B
:1018B00091FA0146601C5BF70AFF002812D10A204A
:1018C00000906A460521284652F7FEF9284653F74C
:1018D000E3F9009960221143CAB201460123284668
:1018E00052F75CF920465AF77CF9F8BD70B5054609
:1018F0000446008914490C3488B088421AD100206B
:101900001F216E460A1AA25C3254401C2028F9DBC3
:101910002022314620465CF7C9FB00203F210A1AED
:10192000A25C3254401C2028F9DB20226946A01812
:101930005CF7BCFB284649F7D8FC08B070BD000036
:10194000270D00002C7EFD072620000010B50C4658
:101950000123FE4A0021FE485AF72AF9FD4A217860
:101960001170002101704DF7D3F8002010BD10B5A3
:10197000F64A0C460123521E0021F5485AF718F981
:10198000F54A21781170002101704DF7C1F800204F
:1019900010BD10B5ED4A0C460123921E0021EC4803
:1019A0005AF706F9ED49A288CA8722884A870A466B
:1019B000E3884032138062888A87002101704DF7E6
:1019C000A7F8002010BD10B51A4682230021E04878
:1019D0005AF7EEF8112101704DF79AF8002010BD6A
:1019E000DA4A10B50123413A0021D9485AF7E0F804
:1019F000112101704DF78CF8002010BDD34A10B5AD
:101A00000123403A0021D2485AF7D2F8112101703F
:101A10004DF77EF8002010BD10B51A4602230021B4
:101A2000CB485AF7C5F8112101704DF771F8002025
:101A300010BD10B51A4601230021C5485AF7B8F861
:101A4000112101704DF764F8002010BD10B51A4641
:101A500001230021BE485AF7ABF8112101704DF760
:101A600057F8002010BD10B51A4682230021B8484F
:101A70005AF79EF8112101704DF74AF8002010BD69
:101A800010B51A4682230021B1485AF791F8002177
:101A90004170112101704DF73BF8002010BD10B5C9
:101AA0001A4601230021AA485AF782F81121017031
:101AB0004DF72EF8002010BDA44A10B50823333A84
:101AC0000021A3485AF774F80446031DC21C811C68
:101AD000401C59F745FE0146002000290BD011217A
:101AE00021706070A070E070A080E08020464DF70B
:101AF0000FF8002010BD2070F7E77FB508460C38BE
:101B00005AF799F85AF741F800246D460390204699
:101B10005AF735F861004919641CE4B24880042C76
:101B2000F5D38A4A1023313A002189485AF740F800
:101B30006D461ECD1EC00021103801704CF7E8FF25
:101B4000012004B070BDF8B5804A0F4608230A3A58
:101B500000217F485AF72CF8814D0446286B6E12FD
:101B6000B043304328637F493888496A88476060BA
:101B7000286BB0430021286338886080217020469C
:101B80004CF7C6FF0020F8BDF8B5704A0D46042397
:101B9000093A00216E485AF70BF8714E0446306B33
:101BA0007712B843384330636E4A2888926A69686E
:101BB0009047306BB84300213063288860802170E3
:101BC00020464CF7A5FF0020F8BD70B518460D461D
:101BD0005E4A01460123323A5D4859F7E9FF04465F
:101BE0002878002802D0012805D101E05E4800E0F5
:101BF0005E4840F7F7FD1220207020464CF788FF22
:101C0000002070BD10B518460C46504A0146082306
:101C1000133A4F4859F7CCFF2188012292078918BF
:101C20000968416021884180002101704CF770FFF4
:101C3000002010BD10B518460C46444A0146042346
:101C4000123A434859F7B4FF228801239B07D21860
:101C50006168116021884180002101704CF758FFB4
:101C6000002010BD10B51C4608464AF73EFC374A16
:101C70000123113A2146364859F79AFF0021017095
:101C80004CF746FF002010BD70B50C88184616466C
:101C9000082C00D30824CA788B78150252225443AA
:101CA000334A1D431368E31880331D830B79116891
:101CB000611880314A8B120A12021A434A83234A5E
:101CC000014601230E3A224859F772FF00210170A4
:101CD0004CF71EFF002130465AF7EDF8002070BD8A
:101CE00010B588781C46002801D0012200E00022AF
:101CF0000888114644F7C2FB144A01230D3A2146D5
:101D0000134859F755FF002101704CF701FF0020DF
:101D100010BD70B518460C460C4A014601230C3A1A
:101D20000B4859F745FF227852214A4310490023B6
:101D30000D685219C0321382227852256A430D6809
:101D40005219C03253822278522413E043FC00001F
:101D500001080000B476FD07DD76FD07A479FD07D4
:101D600040000040B47FFD07C3C3C3C3A5A5A5A51C
:101D70004C76FD07096862435118C0318B820021FF
:101D800001704CF7C5FE002070BD70B518460C46BA
:101D900001460123314A324859F70AFF227852217D
:101DA0004A43304900230D685219C03253812278CA
:101DB00052256A430D685219C03293812278522409
:101DC000096862435118C031CB81002101704CF782
:101DD0009FFE002070BD70B5184616460D461F4A7E
:101DE00001460123D21C1E4859F7E2FE044628880A
:101DF000082800D3082046F78BFA002805D00021D8
:101E00002170A9786430017701E01220207020460B
:101E10004CF77EFE002130465AF74DF8002070BD89
:101E2000F8B50E4610491C4615460020C2008A5AD5
:101E3000A24209D1C00040184768002F07D02A46A7
:101E400031461846B84702E0401C1928EED3224616
:101E50003146284602F0C8F9F8BD000038FC000001
:101E6000010800004C76FD075859FC07064C012577
:101E7000064E05E0E36807CC2B430C3C9847103432
:101E8000B442F7D3FEF748F90060FC072060FC0776
:101E9000F0B51FB40646002082B0054640240191EB
:101EA00000901BE0019922460F46304600F0BFF833
:101EB000049A059B801A994110D310461946224670
:101EC0005CF738F9361A8F4101972246012000212C
:101ED000009F5CF72FF938184D4100902046641E92
:101EE0000028DFDC019B00982946324607B0F0BD90
:101EF000024670B54A40D30FDB0740002DD04A00A0
:101F00002AD0010E140E000212020919400A520AC8
:101F10008418E50104465443000A120A2E04504373
:101F2000A4194219200CC543AA18120C0125AD03AF
:101F3000521C521912047F39240400D0521C104341
:101F400001D44000491EC2B20C06C0092018401C32
:101F50004008802A02D003E0002070BD4008400005
:101F6000002900DA0020184370BD70B502464A40CF
:101F7000D50F40004A00ED0740085208002814D051
:101F8000002A12D0C40DD30D41020120C005520217
:101F9000490A520AE41A091812187D34914201D3F1
:101FA000641C00E04900002C01DA002070BD002311
:101FB000914201D3891A0343400849000028F7D110
:101FC00000290AD0914202D10121C90705E09142BE
:101FD00001D2012101E00121C943E005C0184019E7
:101FE00000F036F870BDC217C10F504010B5401850
:101FF000CA079623002100F033F810BDC20F41003C
:1020000040020123400ADB05D207090EC0187F29D0
:1020100001DA00207047962903DC9623591AC8403C
:1020200001E096398840002AF4D04042704710B54C
:10203000202A04DB0846203AD040002110BD0B4680
:10204000D340D0402024A21A91400843194610BD25
:10205000002904DA401C490001D1400840007047C3
:1020600070B40024050C05D11024000402D100290D
:1020700021D01124050E01D100020834050F01D131
:102080000001241D850F01D18000A41C002801DB64
:102090004000641C002908D020252E1B0D46F54069
:1020A000A14000D001212943084301061B1B000A5F
:1020B000DB1D02D5002070BC7047DB0518188018A6
:1020C0000029F8DA401C4900F5D170BC40084000F6
:1020D0007047000001480121018070470815005039
:1020E0000C4881880088CA0708D0C20706D0664A13
:1020F00003235372894AD3895B1CD381890708D58E
:10210000C00506D560480221417284488189491C76
:102110008181704722200050F8B5584F0820388040
:1021200005252C0760898007554E22D0A08A4007DC
:1021300001D502F0F1FE218C802001432184FF2192
:10214000718004213180218830220A432280218835
:1021500003220A4322804B49F288B3881204D21822
:102160008A42F9D335804849098B6180218C8143AB
:10217000218438894007FCD420883021884320807E
:1021800022880320824322800022009001231A40EB
:102190003E4F3A702A064CD06D1E328802271743F4
:1021A0009F43378004227280378817433780228804
:1021B0000A4322802288024322803288520701D5B6
:1021C00000BFFAE722888A43228022888243228045
:1021D000F288B7881204D2192D481218042A11D98E
:1021E0000022294842830779002F02D019221701C3
:1021F0002548026A921CBA4200D33A4602621A4645
:102200000098C3E72048418B491C418389B21429B7
:1022100000980ED300211C4A5183117A002900D066
:102220001321126A521E8A4200D80A4616480262D8
:1022300000986189890706D0618981436181608C3A
:102240000121884360842089802101432181208AE3
:10225000042188432082A08A8007FCD540F78FF8AC
:102260000948406A0B4908600B480168490700D5D6
:1022700000BE01684907FCD5F8BDC04600330050D8
:1022800000160050E9030000C84DFD073460FC074C
:1022900061F8FFFF0802004010000040FEB5044650
:1022A0001E4DA878401CA87000200290272C33D81F
:1022B0001B4E1C48706000200190B0603068042103
:1022C000014331600A2120465BF776FE810016A2A9
:1022D00052580921C94341430819C0B2EFF310878E
:1022E000012484F3108821468140C9B21046FDF7CD
:1022F00041FF02903068A0433060002F02D084F389
:10230000108802E0019880F3108802990548401A6D
:1023100068614A424A416A70FEBDC0466860FC0777
:1023200010E000E0FFFFFF000030005020300050C0
:10233000403000508030005080B50A2000F05CF83A
:1023400080BD80B50B2000F057F880BD80B50C2013
:1023500000F052F880BD80B50D2000F04DF880BD32
:1023600080B50E2000F048F880BD000070B503284D
:1023700001D0044600E004246401074D049E002EB1
:1023800003D001268E40665303E02C1901258D40B1
:10239000658000F025F870BD02300050012800D1A2
:1023A0000831CBB29A4001219940064B002802D057
:1023B0004000C01800E0981C03888B43134303803F
:1023C0007047C0466E300050032800D10420400101
:1023D000024A825ACA400120104070470030005023
:1023E0001A43032800D1042040014900081801497C
:1023F000425270470630005070B5C0B203460A3BE7
:1024000001210A469A4093B20A4C1C195C406608A6
:10241000094B1C880025360402D06D1C760CFAE7A7
:102420009443AAB20D46954025431D808140404803
:10243000016070BDFFFF01000E14005014490A88AE
:10244000802313430B800368124A13604368536070
:1024500083689360C368D360036913614369536100
:1024600083699361C369D36110623448036853621E
:10247000436893628368D36243691363C368536399
:10248000006990634888800600D4FEE700BE70476C
:10249000120000500000FD07024800882448102167
:1024A000016070472C13005020490A89042313430C
:1024B0000B810A89022313430B810A8840231343AB
:1024C0000B801B4A012313601A4A082313804A8990
:1024D000802313434B810368174A1360436853609A
:1024E00083689360C368D360036913614369536170
:1024F00083699361C369D3611062104803685362B2
:10250000436893628368D36243691363C368536308
:10251000006990638889800600D4FEE700BE488980
:10252000074A10408018001D48817047080000507D
:1025300080E200E0003300505000FD0728ED00E08D
:10254000FC7F000070477047411EFF2901D2012027
:1025500000020749884200D3084606490880064819
:10256000002803D000BF00BF401EF9E77047C046F7
:10257000FF07000002000050E20D0000704700005D
:1025800010B50F4CA1880F200840022806D004285F
:102590000BD00C280CD00128F4D110E020880221A7
:1025A000884320802088802106E003F081F8E9E755
:1025B00003F07EF82088012188432080E2E710BDE7
:1025C000041100500520000701883022914301804A
:1025D00001880322914301800421415E002906D530
:1025E0000E490A88520702D50A88D2070DD1808881
:1025F000C00609D50A480188090605D50121818050
:10260000018880229143018070470888022202439A
:102610000A80088801229043088070470002005019
:10262000000100509A48018802220A4302800549AD
:10263000491C02D202889207FAD400210181408904
:102640007047C0465F79FEFFFEB50546144802900C
:1026500002AC204600F028F8142000F05DF80720B6
:102660008601002D00D08036894F38880D490840FA
:1026700080193880FFF7D6FF0190012000F04CF858
:102680000025A570204600F00FF83888054908405D
:1026900080193880FFF7C6FF3D8001994018FEBDC4
:1026A000010001013FFCFFFF10B57949164A0A807D
:1026B00000224A80154A40231360BFF34F8FBFF3B7
:1026C0006F8F00281ED00A88114B13400278D20267
:1026D0001A430A800F4A134640330C881C40437843
:1026E0009B0123430B800B881340827892021A438C
:1026F0000A8009224A804A8802239A43C07840000F
:102700001043488010BDC0460140000080E100E059
:10271000FFF70000FFFBFFFF00280CD000BF00BF49
:1027200000BF00BF00BF00BF00BF00BF00BF00BFB1
:1027300000BF401EF0E77047B0B50C460025202DC5
:1027400004D040F718F960556D1CF8E70020B0BDC3
:10275000B84814214180018803220A43028001887D
:1027600004220A4302809E48012101707047C0463E
:1027700080B50D480078C00708D1052059F7CDFB7A
:1027800000280FD12A200A49085C04E00748417D4F
:10279000012907D1007D41424141C21E50425041B2
:1027A000084380BD002080BDF976FD07507DFD0700
:1027B000F87CFD07704780B55BF766FC80BD80B58F
:1027C0005BF76BFC80BD0000F0B585B019460127B2
:1027D000FC02601C2D4A022359F7EAF904902C4DA3
:1027E000288820432880B803298801432980288825
:1027F000384328801420FFF78FFF7802A8800390C9
:10280000E8803803298801432980BC022888A04336
:102810002880FFF707FF2988029421432980F94384
:1028200041430320400201900E18B0B2870A1A4CAF
:10283000FFF7F8FE002F00D000BE164F791CAA88C3
:102840000A403243AA8044430198201882B2029B76
:102850009A4200D300BEEA880A400243EA802888F0
:102860003840288028880D49014029800C4800887C
:1028700003990840411E8841FFF7E6FE049908804D
:1028800008464CF745F9002005B0F0BD1AFE0000DF
:1028900000150050FFFB0000FEFF0000FFEF0000EE
:1028A0002A00005010B51946F348044A0024234674
:1028B00059F77EF94CF72CF9204610BD07FE0000B1
:1028C000F0B585B01C460F46EB48264A0223214648
:1028D00059F76EF90446FE78BD7879783F78032F72
:1028E00003D8E748C05D884201D2002000E0012003
:1028F000032D039109D8E2494A5D0121B2420A46FB
:1029000000D300224840104300E0012020802046F0
:102910004CF7FEF82088002821D1002404941248A6
:102920000499814203DC0499491C0491F8E702965A
:102930002B4E317BF07A009422462346FFF716FD9A
:10294000B17B707B009422462346FFF70FFD38468B
:1029500003992A46029B02F01DFF02F0D1FD0020E0
:1029600005B0F0BD09FE0000CF070000B0B51D4660
:102970000C467F204202C0480423294659F718F923
:1029800021785F2904D0332903D10449098800E064
:102990005F2101604CF7BCF80020B0BD0200005080
:1029A00010B51946F1480D4A082359F701F90446B4
:1029B000F148807902280ED102F0F8FD0848016D37
:1029C0002180C16D6180816DA1806021405AE080CD
:1029D00020464CF79DF8002010BDC0460DFE0000BB
:1029E000C84DFD0710B51946E048114A0124234699
:1029F00059F7DEF80F494A884C800A8802231343AE
:102A0000A3430B800A88042313430B8000220B8806
:102A10005B0703D5531C642A1A46F8D30988490377
:102A200009B2C90B01704CF773F8002010BDC04605
:102A300016FE00000016005070B51946EE480C4A0C
:102A4000422359F7B5F8044610250570801C094E3D
:102A500031462A465BF72AFB657020462230314614
:102A60002A465BF723FB20464CF752F8002070BD46
:102A700008FE0000F05FFC0770B51C460D46DE48FE
:102A8000114A0123214659F793F804462E78F5B2EE
:102A90000A2128465BF790FA0146FF20272D0CD823
:102AA0000922D2434A439319CAB2B2498D5CD9B2C2
:102AB0008D4202D31046FFF787FC207020464CF76A
:102AC00027F8002070BDC04613FE0000F0B587B0A7
:102AD0000E46ED48694A01241946234659F768F81D
:102AE00003903578EFB20A2138465BF765FA092181
:102AF000C943414349190491F17A0591B17A029190
:102B0000757A317A0691272F224609D8C1B2994A9F
:102B1000515C049AD2B2914201D3002200E001221A
:102B200076680021032E0FD8B30002A7FB580F468A
:102B30009F46C046572BFC07452BFC074D2BFC0737
:102B4000532BFC07012305E0224604E001235F022A
:102B500001E003231F020197012D274600D80F46ED
:102B6000330A022B234600D80B46059E642E2646C8
:102B700001D81F403E46069B012B234600D80B463A
:102B8000002E214600D11946002900D11446FF2706
:102B9000002C69D1C6B20498C4B23046214601F077
:102BA000C5FA0298002819D0012D2BD0002D039DC5
:102BB0005BD13548018901229143018100270097AB
:102BC0005202304621463B46FFF7D0FB069A501E84
:102BD000824130462146FFF7E1FB46E0681E414254
:102BE00041410091019882B20027304621463B4680
:102BF000FFF7BCFB069A501E824130462146FFF784
:102C0000CDFB31E00027009703252A021723304629
:102C10002146FFF7ABFB069A501E82413046214603
:102C2000FFF7BCFB5648018808220A43028001884E
:102C300029430180144C20890421884320811149B3
:102C4000E9310298414311485BF7B6F9401EE08034
:102C5000E088411C0598484364215BF7ADF920806A
:102C60002089012101432181039D2F7028464BF7C4
:102C70004FFF002007B0F0BD0108000012FE000069
:102C8000B45FFC07FF0200000834005080841E007F
:102C9000F0B585B01C460F46EE48354A0123214663
:102CA000039358F785FF04903D78ECB20A21204643
:102CB0005BF782F906460920C04370434519272C6B
:102CC00048D878780290F4B2EFB22046394601F045
:102CD0002DFA2848005DB84202983FD302283DD221
:102CE000254F3E727D72B872039D3D70387A797AB5
:102CF00000950324260210233246FFF737FB387A6B
:102D0000797ABA7A531E9A41FFF748FB1B4801882B
:102D1000A94301801A498A8B802313438B830A8835
:102D2000082313430B800A8822430A800021018074
:102D3000FF210906134A13688B43E90759181160EC
:102D4000E836468086801049C18001882943018089
:102D5000049806E0F0B2E9B201F0E8F9FF21049826
:102D600001704BF7D5FE002005B0F0BD0108000052
:102D700017FE0000B45FFC076860FC0700340050D9
:102D8000040000500CE400E0FFFF0000FEB51C460C
:102D90000D46C848194AF223214658F709FFAC7876
:102DA0001221002C22D03C2C20D82A88FF21C904D3
:102DB00055180190471D0094002C14D002AE042237
:102DC0002846314602F052F8F81E02990170B81EEA
:102DD00071780170781EB1780170F0783870641ED7
:102DE0002D1D3F1DE8E700210198009C44700170F3
:102DF0004BF78EFE0020FEBD0108000004FE00001F
:102E0000BCB51C460D46AB48204A0723214658F75F
:102E1000CFFE0446287820700021019100910328FC
:102E20002DD8C046784400794000874401050C1332
:102E3000611C184802220AE06878A978090208187B
:102E40000090134818E013489030611C062202F0ED
:102E50000DF814E06879A979090208180190287919
:102E60000006E97809040818A97809024018697869
:102E70004018009006489030694602F007F8204656
:102E80004BF746FE0020BCBD0108000003FE000019
:102E900018FF000018FFF807F0B585B01C460D4676
:102EA00084481F4A0223214658F782FE0195AE78D6
:102EB0001221002E27D03C2E2BD800900198078895
:102EC00000242546B54220D23819019909198A797A
:102ED00012064B791B049A180B791B02D218CB7877
:102EE000D21802928A7A12064B7A1B049A180B7A2D
:102EF0001B02D218C9795118039102A901F0C6FF2B
:102F00000834AD1CDEE7002603E001988678002136
:102F10000098467001704BF7FBFD002005B0F0BD36
:102F200005FE000010B5194662480A4A01242346EE
:102F300058F73EFE002101704BF7EAFD06480821D4
:102F40000180064844800521018001880906FCD1E2
:102F5000002010BD1DFE0000023300500031005063
:102F600070B50E4653483C4A002519462B4658F783
:102F70001FFE04463078082866D8C0467844007999
:102F8000400087440430292D343853595C003548BB
:102F9000058003210902C180018141818181C181B4
:102FA00001824182818230480580C1800181418156
:102FB0008181C1810182284602F0EBF8284602F0A7
:102FC000B3F8284602F088F8284602F0D5F82846DB
:102FD00002F095F8284635E0B07802F07DF833E04D
:102FE000708802F0C9F8708802F09EF82CE0B07882
:102FF00002F0CFF828E07688284602F065F8012034
:1030000002F062F8154805607D21C9017143144A38
:10301000914200D31146416085600521016001683D
:10302000C903FCD5002002F04FF80DE0708802F0D3
:1030300066F87088002804D002F030F804E0B07818
:1030400000E0002002F068F820464BF761FD002008
:1030500070BDC046010800000AFE000010E000E05C
:10306000FFFFFF008030005040300050B0B51D46DB
:103070000C461048104A0823294658F799FD0021AC
:10308000417022780270032A10D861687A4412795C
:103090005200974401030609096803E0A2680A6028
:1030A00004E00988416001E0A2680A804BF730FD26
:1030B0000020B0BD0108000006FE0000F0B58FB092
:1030C0001C460D460127FE02701CF44A02232146CD
:1030D00058F76EFD04462878012800D1A2E00028A8
:1030E00000D0BAE0A878032800D9B4E0EC4A135C19
:1030F000E9788B4200D2AEE02B79032B00D9AAE00D
:10310000D35C0C976F79BB4200D2A4E0AB79032B60
:1031100000D9A0E0D35CEF79BB4200D29BE02B7AD0
:10312000032B00D997E0D35C6F7ABB4200D292E0C8
:103130006B7B002B08D0AB7B032B00D98BE0D25CE0
:10314000EB7B9A4200D286E0D64FB847697928795E
:10315000B847E979A879B847697A287AB847687B87
:10316000002803D0E97BA87B00F0E0FF03200B9050
:10317000285600232528194606D88000CA49085831
:103180000028194600D001880591052028562528D9
:1031900019460C9F06D88000C349085800281946D4
:1031A00000D001880491072028562528194606D802
:1031B0008000BD4908580028194600D001880391B5
:1031C000092008902956C8B225281A4606D8890031
:1031D000B54A515800291A4600D00A880F2169566D
:1031E0002529029205D88900AF4A5158002900D0FC
:1031F0000B880993AD490870AD49C870287AAD4A6B
:10320000D071887002F00AFAEFF3108087F310880B
:10321000A94A118831431180002800D14EE187F37B
:1032200010884EE12879032815D89D4A135C6979E6
:103230008B4210D3AB78032B0DD8D35CEE78B3421E
:1032400009D36B7B002B10D0AB7B032B03D8D25C54
:10325000EB7B9A4209D2FF20208002F023F920461E
:103260004BF756FC00200FB0F0BD00F05FFFE9788F
:10327000A87800F05BFF687B002803D0E97BA87B7F
:1032800000F054FF032008902856002325281A46F2
:1032900006D88000E849085800281A4600D002885D
:1032A0000520079028562528099307D88000E24971
:1032B00008580028099301D0008809900E20069034
:1032C00028562528039205D88000DB490858002895
:1032D00000D00388297BD9484182EFF3108187F31E
:1032E0001088D748028820260B9632430280002996
:1032F000049302D087F3108802E0002181F3108844
:10330000D04E3188B94331803188C907FCD1CE4BCA
:1033100000200A901886482199824F21198308219C
:1033200099831721198419880622914319801F2136
:10333000C9439A8F0A409A871A8F0A401A87BF4852
:10334000408A059018883843188018884022024324
:103350001A8018880B9A104318801A88102082430C
:103360001A8019463F2292029B881340059A134304
:103370008B803188394331803188C907FCD0B3490B
:103380000A68802313437F2293430B60B04908608F
:10339000A97804200329024600D00A465101EA78A0
:1033A00052005218AB49092353522A79032A00D0FC
:1033B000104640016A79520010180A224252687B76
:1033C000002806D0E97BA87B0A9B00937A02FEF7CF
:1033D000CDFF687801280DD1E87AA97AB288520722
:1033E000FCD5994A11821082B0884007FCD5B0887C
:1033F0008006FCD402F032F9A87AB1884907FCD5DE
:1034000091490882B0884007FCD538020882B0890B
:103410008006FCD0088AC0B22080687B00280FD0CC
:103420000A980D907D2080000D99814203DA0D9954
:10343000491C0D91F8E7E97BA87BFEF7C5FF2080CA
:1034400008982856252806D880007B490858002867
:1034500001D00399018007982856252806D88000B6
:1034600075490858002801D0099901800698285606
:10347000252806D8800070490858002801D00499F2
:1034800001803088B84330803088C007FCD16C4957
:1034900008880B9A90430880DFE6C04611FE0000C2
:1034A000B45FFC072D41FC07D85CFC072460FC07D7
:1034B000C84DFD076860FC0704000050002080F341
:1034C0001088654900260E8008890B9A9043088170
:1034D000CF80088838430880E978A87800961202DF
:1034E0000A92072307935D4FB847697928790096B8
:1034F000052332460693594FB847E979A8790096D3
:1035000006230A9A554FB847697A287A0C9A00928E
:1035100008230A9A514FB8470C9F687B002806D0B1
:10352000E97BA87B00967A023346FEF71FFF687896
:1035300001280CD1E87A0A90AE7A02F07FF8304682
:1035400002F04EF80A9802F04BF802F067F802F029
:1035500085F8AE7A02F072F88020304302F040F82D
:1035600000200A9002F03CF8064602F057F8F0B24C
:103570002080687B00280FD00A980E907D20800064
:103580000E99814203DA0E99491C0E91F8E7E97B06
:10359000A87BFEF719FF20800B9828562528099A4A
:1035A00006D8800024490858002801D005990180D8
:1035B00006982856252806D880001F490858002854
:1035C00001D00499018007982856252806D8800044
:1035D00019490858002801D00399018008982856F5
:1035E000252806D8800014490858002801D00299DF
:1035F00001800E202856252805D880000E4908583D
:10360000002800D00280EFF3108587F3108812495C
:103610000888B84308800A4A10881149014011807F
:1036200001F0FCFF002D02D087F3108815E60A9800
:1036300080F3108811E6C046D85CFC076860FC0780
:10364000040000506C1300500013005004E400E02C
:1036500000E100E006300050001200506D23FC072E
:10366000FFF70000F8B50E460125EF02781C294A45
:1036700019462B4658F79CFA0446002020703078F3
:1036800000281DD001283ED12348C1892943C1818A
:103690002903028BD2000A40C189624B0B40991862
:1036A000C181C18928220A4350218A43C281C1892C
:1036B00006220A43C281018808220A43028024E0CC
:1036C0001548418AB0220A4340218A434282418AF6
:1036D000124A0A404282418A0F2291434182A90242
:1036E000428A0A434282418A394341822903428AFB
:1036F0000A4342820188082291430180FFF728F89B
:1037000001F050FD01E0FF20207020464BF700FA49
:103710000020F8BD18FE000012000050FFFC000061
:10372000F8B50E463848394D012419462A46234635
:1037300058F73EFA002707704BF7EAF949F760FEA1
:103740003078022808D0012840D000285AD13748C4
:10375000C7703948077055E001F0B2FF2C480821C6
:1037600001802C48077072B62B48028904210A4355
:103770000281028880239A430280028840231343F7
:103780000380264A13680B4313604189202291432A
:103790004181018902220A4302810189204A0A40AB
:1037A0000281FE35418B29404183018B1D4A0A402D
:1037B00002830189A14301811B480780F843C44962
:1037C000086000BF00BF00BF30BF1BE001F078FF02
:1037D00010480770B07871780A46024303D1134845
:1037E000022101710AE0114A1471114A4A43192158
:1037F0008901414388180F49096848620B48C47021
:103800000D4804700020F8BD0208000001FE000011
:1038100000330050084BFD070800005010ED00E099
:10382000FFF00000FFEF0000000100505877FD0797
:10383000007701005876FD07B477FD07BCB51C463C
:103840000D469D480E4A0023214658F7B1F904461B
:103850002878A04D2871A87900280BD15F485030F6
:1038600012215AF73CFC297901A8017046F74FFC58
:103870000220A87120464BF74BF90020BCBDC04682
:103880000CFE0000B0B519468B48094A00242346B7
:1038900058F78EF905468F488079052806D101F042
:1038A00085FE2348046028464BF732F90020B0BD5E
:1038B00010FE00007CB51C460D46F2481B4A002352
:1038C000214658F775F904462878824E3071687899
:1038D000F070B079002823D101A8252141703179F9
:1038E0000170F178817046F798FB0120C2031049FE
:1038F0000B6813430B6082030B6893430B60020356
:103900000B6893430B600A680A4B13400B60052158
:10391000B17100026A490860BFF34F8FBFF36F8F28
:1039200020464BF7F5F800207CBDC0460FFE000096
:10393000E000004000FEFFFF80B50878654A107186
:10394000487850718878D07008790002C97840189A
:10395000108201F00DFE002080BDC0467CB50C46F3
:103960001848194A012519462B4658F721F921789C
:103970000026052900D8354605704BF7C9F849F7E8
:103980003FFD01960198C82803DA0198401C019078
:10399000F8E700202056062804D20CA1095C0DA2ED
:1039A000105C01E00B2108200C4A1174D073032233
:1039B0003EF7B8FE002420463EF710FF3EF7D6FE45
:1039C00020467CBD0108000015FE00000301060B27
:1039D0000001000068341108011A0000C84DFD07FD
:1039E00070B50C46A748084A642519462B4658F777
:1039F000DFF8064621462A465AF758FB30464BF771
:103A000087F8002070BDC04614FE0000B0B50C461B
:103A10009C482A4A002519462B4658F7C9F82178B0
:103A2000542910D0522927D04F2942D125490D8041
:103A30000D84254903220A8001210902234A1160CD
:103A4000234A116031E001210B021D4A1360BFF3CC
:103A50004F8FBFF36F8F1B4A15881D431580138846
:103A6000FF25AB4364781B1913808903164B19801B
:103A700004211184022116E001210B02104A136077
:103A8000BFF34F8FBFF36F8F0E4A15881D4315800C
:103A90001388FF25AB4364781B1913808B030A4CF2
:103AA000238011840821118406250A498D714BF762
:103AB0002FF80020B0BDC046010800000EFE000037
:103AC00080E100E000200050042C005000E100E004
:103AD00080E200E06860FC07F0B58FB00E466948F0
:103AE000694A02241946234658F762F80546307899
:103AF000072836D809947478B17809020919C046A4
:103B000078440079400087442E33353D4650030306
:103B1000FE2C52D10795069600225C4811460A9267
:103B20000A234B430B91042403294FD8455CD6B29A
:103B3000AE424FD89C18E7B2252F04D867B2BF0019
:103B40005349CF5900E000273F880F213940012910
:103B500045D0AE420B9901D0521CE4E7491C0A9AA9
:103B6000DEE70027DDE14B480088288000271BE0C6
:103B7000484816E0484801210160032000024749F7
:103B800048810FE0434802888BB29B189CB29C424C
:103B900008D1511805E03F4802888BB29A4201D300
:103BA000511A018000272F80EDE13B480027076074
:103BB0000120400239494881F5E7E0B20A215AF76D
:103BC000FBF90921C94341430A190BE00A9A0892FB
:103BD000174601E000270897069E079D9FE1069E75
:103BE000079D0B980B90E0B2042300270590252831
:103BF00057D860B2800026490858002850D0079551
:103C0000078804460B98C0B20A92D1B200F08EFA2F
:103C10000120029000020894049020800598252835
:103C200000D90CE105984000784480884000874422
:103C300025003B003F00430047004B004F0053006E
:103C40000601060157006000690072007B008400D5
:103C500006010601060106018D00910095009900FC
:103C60009D00A100A500A900AD00B600BF00C800DE
:103C7000D100DA00E300EC00F500FE0003200002B2
:103C8000064998E00108000002FE0000B45FFC074E
:103C9000D85CFC0702000050F030005006300050A5
:103CA000002708971C463AE103200002FD498BE0FB
:103CB00003200002FE4990E003200002FC4995E049
:103CC00003200002FA499AE003200002F8499FE02D
:103CD00003200002F649A4E003200002F449A9E011
:103CE00003200002F2490A8C8243049802430A84AA
:103CF000A5E003200002EE494A8C82430498024367
:103D00004A849CE003200002E9498A8C824304989B
:103D100002438A8493E003200002E549CA8C82436F
:103D200004980243CA848AE003200002E0490A8D15
:103D30008243049802430A8581E003200002DC49A3
:103D40004A8D8243049802434A8578E003200002AA
:103D5000D64930E003200002D44935E003200002B8
:103D6000D2493AE003200002D0493FE0032000029C
:103D7000CE4944E003200002CC4949E00320000280
:103D8000CA494EE003200002C84953E00320000264
:103D9000C6490A8A8243049802430A824FE00320FC
:103DA0000002C2494A8A8243049802434A8246E09A
:103DB00003200002BC490A888243049802430A8017
:103DC0003DE003200002B8494A8882430498024338
:103DD0004A8034E003200002B3498A888243049871
:103DE00002438A802BE003200002AF49CA88824345
:103DF00004980243CA8022E003200002AA490A89EB
:103E00008243049802430A8119E003200002A64974
:103E10004A898243049802434A8110E00320000249
:103E2000A1498A898243049802438A8107E00320DA
:103E300000029D49CA89824304980243CA811C201A
:103E40009C4C9D4D482808D0211800220A6329184F
:103E50001C390A602250001DF4E798486065606DC7
:103E6000FEF772FB0598FEF719FAE8606078002803
:103E70004FD192490696E868914E5036B0421BDD0C
:103E8000AF208000019060652165606DFEF75CFBEE
:103E90000598FEF703FAA860E8682062A8686062E7
:103EA000A868B04231DD2E1D08352046543001216E
:103EB0000A02039601991AE06165192080010190B8
:103EC0002065206DFEF740FB0598FEF7E7F92861B5
:103ED00028692062E86860622869B04215DA2E46D7
:103EE000103614352046503076490395019A6265A4
:103EF00021650068FEF728FB0598FEF7CFF90399C6
:103F00000860286820623068606260780028069E39
:103F10005ED00020FEF718FB079D099C0A9A2C80B2
:103F20003078FE21014006290A922CD10220384324
:103F30001F210140032926D1039707950696644C5B
:103F400026460B98C7B20A98C5B238462946FEF7EE
:103F50003BFA002804D0761CF3D301E0641C05D2A0
:103F600038462946FEF730FA0028F7D000200C909A
:103F70005848069E079D039F0C99814203DA0C99CD
:103F8000491C0C91F8E728464AF7C2FD3078FE211B
:103F90000140062919D1022038431F21014003297D
:103FA00013D14D4E0B98C4B20A98C5B2204629468B
:103FB000FEF70AFA002803D1701E31040646F5D137
:103FC0000898002801D00898078000200FB0F0BDA5
:103FD000039724263A4BA759D81B5030FEF703F815
:103FE0000546206AC01BFDF7FEFF01462846FDF787
:103FF000BCFFA5192F6B216D0C90C81BFDF7F3FFBB
:1040000001460C98FDF774FF0C900C98FDF7F6FF35
:1040100038180499884200DC04982A49884200D361
:1040200028486863686BFEF78FFA0598FEF736F943
:1040300068606868361D442E214B04D0184646300F
:1040400069688142C7DB0020A07061691A46A83206
:10405000914201DC994208DA0020FEF775FA069ECB
:10406000079D0A9A039F029C59E717490988A16195
:10407000A1694A1C069E079D039F0ED08A1C00D191
:104080004BE73278072A0AD100240D9488B20C90AD
:104090000E480CA900F0FAFE40E70A9AE3E704464E
:1040A0003CE7C04606300050863000504630005095
:1040B000063000506860FC073860FC077E04000092
:1040C000AC117A00FF0700000200005018FF00004A
:1040D000E708C9FF120E0000B68C000070B5114948
:1040E0000A88088801242043088008881E239843F2
:1040F0000880A5020C4845800525058005886D07C8
:10410000FCD480880D8814262E430A25AE430E80E9
:104110000D88A5430D801A400C889C43A2180A8084
:1041200070BDC046220000500016005001280BD17F
:10413000FE200140042907D1044841888906FCD4A7
:1041400001888022914301807047C04612000050D0
:10415000FEB51446002916D005460127002B15D0C0
:104160002288002D17D0087828706E1C0220002AA3
:104170000ED0022B0BD302924A783270029A012A97
:104180000DD8AE1C04E00021084602E02E46384659
:10419000711B2180FEBD0126022B3046F8D3C818C2
:1041A0000290881C497889060B0E0090C118019175
:1041B000AE1C029901988842E9D80099002D0CD0D4
:1041C000A818029030461F461A4659F76FFFF0199B
:1041D0000299884204D8002003E000201F4601E035
:1041E00001204000F619D3E770B5134602460020BF
:1041F0000C4C102804D0255A9D420BD00830F8E70B
:104200000020094C0546D82D0BD0665B9E4203D09A
:104210000835F8E7201800E06019001D046818460A
:10422000A04770BDA45FFC07705DFC07FEB5144697
:10423000002905D005460120022B04D22E4641E07C
:10424000002088213FE0CE18002D12D0029627884A
:104250000A784E786E702A70AE1C0222022F06D3A6
:10426000032B2FD38B783370022F11D8EE1C1046FE
:1042700028E0032B01D2022624E08A789206170E4A
:10428000C919C91CB14201D903261BE0002017E05F
:10429000C91C9A06120E01918918EE1C029B9942C4
:1042A00010D8E819029030460199174659F7FEFEDA
:1042B000F0190299884201D8002000E00120400056
:1042C000E919CE1C711B2180FEBD000018B52A49DA
:1042D00000220A6005200007438A402423434382CA
:1042E000438AA34343824A611B4B8B6201231B0415
:1042F000CB62048880231C4304800092009A632AC6
:1043000002DC009A521CF8E70A680724A2430A60FC
:1043100001889943018018BD18B5174A0020106024
:10432000052109074B8A402423434B824B8AA34330
:104330004B825061084B936201231B04D3620A88AD
:10434000802313430B8000900098642802DA0098C1
:10435000401CF8E718BDC046204F101A0520000782
:104360000088000600D400BE03480188490700D039
:1043700000BE0121016070470000F407F8B5254F29
:10438000BC68204600F048F8324EF16A0022F26222
:104390000D181549284659F70FFE78611349414316
:1043A000491919200001002902D0411AE13189B2CE
:1043B0003961396808220A433A60B16A002911D08C
:1043C0008C420FD90A4A1278002A0BD13279002A7E
:1043D00000D11046611A326A8918891D814200D3C2
:1043E00001463162F8BDC046710200008FFDFFFF3B
:1043F0003460FC0780B506480021016001F09AF89E
:104400000120C00703490A6882430A6080BDC04694
:10441000AC76FD073000004080B50246C00B09D0E5
:104420000C48806B00210B4659F7F0FD8905800A86
:10443000401880BD0748806B4243900A80BDC0464B
:1044400080B50449096B414303480818034959F7EB
:10445000B3FD80BDC84DFD0720A1070040420F00FD
:1044600000B593B0644808210A9101806348008830
:10447000C046C046624A10880721079188431080D1
:1044800001200F900F24230205252F07788D80052A
:104490000CD51846FF3011880140680308181080B9
:1044A00010884021014338208143118078880F997A
:1044B000890200280694039101D108465A300F9AC8
:1044C000510202914F4C2083798C11437984002151
:1044D0000D9112911299142902DA1299491CF8E7E8
:1044E00079890F9A114302220E9291437981798939
:1044F0004906FCD578800D981290192080011299F8
:10450000814202DA1298401CF6E71095788903215F
:1045100005918843788178890006FCD5788C0F99BD
:1045200088437884384D0D9A2A60788A4026304333
:104530007882788A0996B04378826A613348A862A3
:1045400008040890E862388880210C91084338807C
:104550001292109D1298632803DC1298401C12904E
:10456000F8E70B93FFF7FAFE294800880999605293
:1045700028480068E06328480188A182408860825A
:10458000FFF7A4FE2548264959F7A9FD69022548E9
:1045900059F7A5FDFDF799F8234824492A2259F730
:1045A00085FD4B2082002248224959F77FFD1720C4
:1045B000C043214900280AD01D4A121851239B00EC
:1045C000D2180B18183370CB70C20C30F2E75120A0
:1045D000800017490818194A1B21002930D0119171
:1045E00001460346144661CC61C308461199491E31
:1045F0000C300C32F1E7C04600330050420000504E
:1046000082000050C84DFD070000F407204F101A2B
:10461000ACFFF807A8FFF80710FEF807005CFD07DD
:10462000781600000076FD07FC76FD0758ECF107D0
:104630000C4BFD0714EBF1078C5FFC07485EFC0791
:104640003A20C9494885C948C862C9480F9D0570C4
:10465000C848C9490160C948C9490160C949CA482F
:104660000860CA480A210170C9480D990170C948FB
:10467000322101910170C84810990160C748056056
:10468000C7480160C74806210160C7480799016013
:10469000C6480A9C0460C64EC64830602802049092
:1046A000801DC5490860C549086000F035FC2846F2
:1046B0003EF767F9388930218843388138890C9A68
:1046C00010433881388928430E99884338813889C6
:1046D00020433881388C10433884788AA04378820C
:1046E0003889099908433881388A0425A8433882D3
:1046F000B88A8007FCD5B88CB02101430998C34320
:104700001940B984B88CAE490140B984B88C069977
:104710008843B884B88C03990843B8840F9AD102AF
:10472000B88C06910843B8841003B98C0143B9844E
:10473000788A0A9988437882388C90433884388CF8
:104740000C99884338843889039318403881788DD0
:104750000299084202D09B48109941809A4837300C
:104760000F998C070A462168014021603F204002D2
:10477000964B196881435003081818609448411CEF
:10478000109118680843186030683DF793FD914810
:104790000D9E0671C670206804990843119420602C
:1047A000FDF7D6FF00F0FEFC8B498E710E9CCC709D
:1047B0000E7125204871019808828648C670874886
:1047C0000670CE81864850301221019159F787FC3E
:1047D0007E490868109A104308608248018829437E
:1047E000A143018001880F9C214301800188382268
:1047F0000A4302800188039A114001800599490209
:1048000002880A4302800188049B194301800799AA
:10481000C90202880A4302800188734A0A40028062
:104820007248036072480168FF2291430160714839
:104830000360FFF7DFFD6A48047104720146FE82DF
:104840004F200862788CA0210143039801407984AD
:104850002046FCF77DFFE003109067486749081881
:10486000674940188008401E0790464E3889000668
:1048700000D4D8E01198006B1099084200D0D2E023
:1048800054480088C00700D0CDE057F7A6FD544833
:10489000407A04283AD100F085FC0D98129012A8B5
:1048A000042148F7A7FB002830D00F98554908602D
:1048B00008680028FCD11198C069494CE169884218
:1048C00001D20D99E1616278012A0DD1E0610D9864
:1048D0006070FFF703FCE082FCF710FF002815D1A1
:1048E0000F983F49487011E0411A474A91420DD94B
:1048F0003B4CE061FFF7F2FBE28A111A00D2811A09
:1049000089B2182902D33649C882E5E73F48806D4D
:10491000314A9179012906D1002804D10D9890716E
:1049200000F026FE2C4AD089118A88420ED3907955
:1049300001280BD10D99D1810698401C344A0B46B1
:1049400057F736F94AF7E4F800F030FE57F745FD1F
:104950000E98C04321490978C91E81425CD8642061
:104960002C49086082E7C046FC76FD070C4BFD072A
:10497000F976FD075076FD073E5AFC075476FD0791
:10498000985AFC075876FD071C5CFC07B476FD07B7
:10499000B576FD07DD76FD075C76FD076076FD07E1
:1049A0006476FD076876FD076C76FD077076FD0777
:1049B0004C76FD07005CFD074876FD074476FD0751
:1049C000FFFC000082000050C8FEFFFF0002004014
:1049D000FFFF1F005877FD076860FC07B477FD07ED
:1049E000C84DFD0722200050FFBF000000E100E09D
:1049F00008E400E080E200E0185F00001001FC071E
:104A0000030004F8FC0000407F0C00006479FD07FF
:104A10000BFE00002060FC07D84A1068411E1160A0
:104A2000002800DD22E7FDF7A3FE002800D11DE7E6
:104A300072B6CD48007900240228204601D03068A3
:104A4000406A1290C1480089C0075CD156F77FFECA
:104A5000002858D0C448C07800280F9854D0B88A8D
:104A6000C00700D06AE1C048008800280F984BD1E9
:104A7000C348806A002802D03068406A129000F073
:104A800059FDB948817812A857F76CFB00280F9898
:104A90003AD01198006940060F9835D4B248817811
:104AA00012A848F7A7FA00280F982DD04AF74BFA1A
:104AB000002828D048F7A8FE0028204624D0AA487D
:104AC000817812A857F74EFB0028119800D1ABE06F
:104AD0000069400600D5A7E0A348817812A848F7EE
:104AE00089FA1199002800D19EE000BE129A002A8E
:104AF00000D1A7E0086A99494018DA2800D9A2E055
:104B0000521E12929FE02046811E022933D2398A1A
:104B100029433982022836D0032854D1964A116895
:104B200029431160798A202291437982398A0E9A29
:104B3000114339827A8A10210A437A827A8A2A4377
:104B40007A820022F34C22607B8A099E33437B8267
:104B50007B8AB3437B8262617D4BA362089BE362E5
:104B60003B880C9C23433B801292129A632A1BDCE5
:104B7000129A521CF8E7012854D1FDF7F9FD0028DC
:104B800050D030BF4EE07C4A116829431160798AC9
:104B9000202291437982398A0E9A11433982798A87
:104BA0001022914379820AE07A8A0A437A82D949AB
:104BB000079A4A6139880C9A91433980664E398A3E
:104BC0000B9A1143398280071BD56948F430798CE0
:104BD00001407984788C0F990843788400201290E2
:104BE0001299142903DA1299491C1291F8E779896C
:104BF0000F9A11430E9A9143798179894906FCD520
:104C00007880B88A800602D5E4480A99018030BFCE
:104C10000020564908705449C870B88A5649086837
:104C2000A843086062B621E64A480078C00702D16E
:104C30003DF784FD04E000203DF7D0FD3DF796FDF3
:104C40000F9861E70022788D0299084201D000BEDA
:104C5000129A039247489E30D3490C6B60434949EE
:104C60004018494959F7A8F901464848444345487E
:104C700020180C46444959F79FF9201A119AD16B14
:104C8000434B19400143D16311463848007802284C
:104C900001D0019800E023200019009080020A460C
:104CA000C96B3C4B19400143D163D06B2D4908407F
:104CB00061054018D0633448039A824200D300BE95
:104CC000B94CA06CE16C002359F7A0F90903000D61
:104CD0004018401E009A511C884200D00246A26231
:104CE00021480179481E8141104644F758F92A4865
:104CF000C06A80471199109A086B1042FCD0049941
:104D0000174C20680842FCD020680C99884320602A
:104D1000A2484089452805D84621A04A5181081A51
:104D2000A149C8623DF7FFFAA0689F494862206820
:104D30000006FCD538890C99884338810B480078E7
:104D400001280E9800D1DFE60598DDE6003300501B
:104D5000204F101AF976FD075876FD07C8FEFFFFB1
:104D600000020040FFFF1F005877FD07B477FD07E2
:104D70000BFE00007F0C000010ED00E02060FC073F
:104D8000787EFD0720A1070040420F00540B000071
:104D900000FCFFFFFF03E0FFB47FFD070120704729
:104DA000F8B515460C4601464039042915D8880047
:104DB00001A108588746C046CD4DFC07FD4DFC07B4
:104DC000074EFC07114EFC071B4EFC0720780228FB
:104DD0002ED307206870D02032E0072825D0012884
:104DE00029D1714F3C371D4906263846324659F7BE
:104DF00081F9002828D02846394629E02078002863
:104E000016D006200DE02078002811D0402008E0C0
:104E1000207800280CD0642003E02078002807D0F8
:104E2000322028700020012616E02078022804D2C3
:104E30000420002610E00120F8BD01206870F42055
:104E400028700020022607E00548811C0626284617
:104E5000324659F72BF900202670F8BD90E1F10792
:104E6000305AFC07002070470120704770B5144687
:104E70000D460646FFF750FAFFF770FA284631460E
:104E8000224659F713F9FFF721FA70BDF8B50C4621
:104E9000054605200007009001201E4FC00732D0B4
:104EA000FFF73AFA00980088000600D400BE388860
:104EB000400700D000BE280C00D000BEE80840002B
:104EC000386101207861396804220A4303218A434A
:104ED0003A60002102290BD00F221202BB68134056
:104EE000C2029342F8D08A00A258BA61491CF1E785
:104EF000B8684006FCD5BE68FFF7E8F9B00702D4F1
:104F000008350020CAE7009A108880218843108065
:104F1000F8BDC0460000F40770B505200507288AD3
:104F2000022188432882A88A0007FCD501200002BC
:104F3000698C01436984FCF7B0FB288830218843E1
:104F4000288028880324A04328801448082202804F
:104F5000A88880210843A880688A0843688210488E
:104F6000072101800F4E0020B080308083203081E7
:104F7000DC4BD87B002801D0197C03E00B2119748D
:104F8000DA73104622463DF7CDFB348100F08AFAF1
:104F9000688A20210143698270BDC04600330050F9
:104FA0008810005004100050C84DFD0703480188C8
:104FB000034A11408918091D0180704712000050F2
:104FC000FC7F00004020704770477047B0B52B4908
:104FD0001431C3B22124FF22641E06D00D8818317B
:104FE0009D42F8D11639098800E0114690430843E4
:104FF000B0BDC046B0B521491631C3B22124FF224D
:10500000641E06D00D8818319D42F8D11A390988DE
:1050100000E0114690430843B0BDC046B0B5174C00
:10502000002816D016342025002D25D0FF20208002
:10503000204608380021018020460E3801602046B5
:1050400012380160A01E007856F77AFF6D1E1834E2
:10505000EAE71025302D0FD0FF20E082A582002046
:1050600020606060A060E0602061E8B2214656F7F1
:10507000F0FE6D1C1834EDE7B0BDC0460848FD07D2
:105080002020C1433A4A13880B40138013880343FE
:1050900013801088084010807047C046F8B5092476
:1050A0000025074E20462946B047064FB847012144
:1050B0002046B047B84720462946B047B847F8BD14
:1050C0004551FC078150FC0780B501460A2000F0DD
:1050D00039F8FFF7D5FF80BD10B50446002803D08E
:1050E000601E012181408CB2E1B2042000F02AF858
:1050F000210A052000F026F8FFF7C2FF10BD10B509
:105100000446C1B2062000F01DF8210A072000F075
:1051100019F8FFF7B5FF10BD80B501460B2000F070
:1051200011F8FFF7ADFF80BD10B50446C1B20220F3
:1051300000F008F8210A032000F004F8FFF7A0FFB0
:1051400010BD0000B0B51024E243094B1D88154086
:105150001D80084D29800F2108401D888D43281887
:105160001880188820431880188810401880B0BD17
:10517000403000508030005010B50446C1B20020CD
:10518000FFF7E0FF210A0120FFF7DCFFFFF778FFC0
:1051900010BD80B5012101400820FFF7D3FFFFF7C4
:1051A0006FFF80BDB0B5F04D287801281BD10E48A7
:1051B00001884907FCD4C188808800232B7009042A
:1051C0000C183520800630212246FCF761FEA864C9
:1051D000E9640648214658F7EFFE2863A001142130
:1051E00058F7EAFEA863B0BD0016005000D01213B5
:1051F00070470000F0B58BB01F2109041B4A1368EB
:105200008B4301214C041B191360CB04184A14680A
:105210009C431460184C194D194E4661194E1A4F93
:105220001A4BC36106624462124B8362C562184B1B
:1052300007604360880411688143116000202828BA
:1052400003D001A90854401CF9E792480068403097
:1052500001A9282258F72AFF00F020F8FEF73EFFA8
:10526000F449C882FCF74AFA0BB0F0BD7400004064
:10527000000200409952FC079552FC073953FC0785
:105280004953FC074525FC072D53FC072F53FC070A
:10529000F151FC0700207047704700000B480C4993
:1052A00001600C480C4901800C48418802220A43E5
:1052B00004218A4342800A4963220A80E5494A8AD6
:1052C000094B1A80898A01807047C04680000040DF
:1052D0004C0554076A280050EBE6000000260050F9
:1052E000062C0050C84DFD071028005010B51F2097
:1052F00000040124A1074A6F824360041018486724
:105300000868072290430860074801882143022269
:1053100091430180018808220A430280FFF7BEFF03
:105320002046FCF715FA10BD0800005070474008F1
:105330007038C0B2704700000248016807220A4373
:10534000026070473000004000207047F8B501242B
:105350002002009066024B4F384608380568002D41
:1053600000D18DE0280605D58020386047F7EBFC9A
:10537000FDF7EEF9A80709D5022038604348006818
:10538000B021405C00F0B6F943F7A3FC280719D51B
:10539000082038603E4800687D21415C6822805AC0
:1053A000522242433B4800688018DC22805A000A9F
:1053B000401AC0B200F09EF9002043F74AFC0420D6
:1053C000F24948720098054204D00098386020469F
:1053D00043F73FFC354202D03E6047F71DFD6806AB
:1053E00003D54020386043F72FFCE80603D5102092
:1053F000386042F764F868070ED4E80706D03C60CE
:1054000057F76AF847F79FFCEB484472A806A3D504
:105410002020386000BE9FE7042038601A490888C1
:10542000A04308801C480078C00702D13DF786F9E8
:1054300004E000203DF7D2F93DF798F957F730F82E
:105440003DF73AF9FDF784F90020DB49487213482B
:1054500000888005D1D5D848807A0028CDD1D6489B
:1054600084720F480088C007C7D12046FDF7ECF8CA
:1054700031462C318842C0D90220CF498872BCE71E
:10548000F8BDC04618000040083300505876FD07AC
:105490003879FD074C76FD07F976FD072A000050A4
:1054A0000015005010B5144C2078002820D1134866
:1054B000007806281AD8C04678440079400087440E
:1054C000031507150B150F000020012301460AE004
:1054D00002210020032306E004210020052302E02E
:1054E000062100200723024600F054F90120207015
:1054F00000F006F810BDC046084BFD072860FC0709
:10550000BCB5AD4DA97B687B0024009401232246E5
:10551000FCF72CFF297BE87A6A7B904203D1AA7BB7
:10552000914200D1BCBD0094032212020223FCF779
:105530001DFFBCBD80B5A048006A573801D80020C7
:1055400006E081B2C90B401800B241103D2048432B
:10555000C10700D01F3082B204498A4200D80846F1
:1055600080B256F7C7FF80BDC84DFD07E2040000BA
:10557000BCB5194CA079002800D0BCBD0020E0814A
:10558000217901A8017061794170E178817044F757
:1055900044FD124DA86D002805D101A844F73DFD3A
:1055A0000028F7D0FEE70120A071BCBD10B50A4C61
:1055B000A079012805D0A079022802D0A079052879
:1055C00007D10648806D3DF712F90020014656F7D5
:1055D00072FC0020A07110BD6860FC076479FD07B3
:1055E0000D490A8902231343012293430B810B883F
:1055F000DB0501D500238B801302488008888004D6
:10560000FCD5CA800888184202D08888020400E0CD
:105610000022488810437047001200506649CA783B
:10562000012090408978032900D104214901024AD0
:1056300088527047C84DFD07023000505E49CA7855
:10564000012090408978032900D104214901024AB0
:1056500088527047C84DFD070430005010B51248FD
:10566000026801218A430260FF2212064368134048
:105670000E4C1B1943608368134083600368022447
:10568000A343036003680424A343036003680B433C
:1056900003600368DB03FCD5836813408360026802
:1056A0008A43026010BDC04610E000E02F75000084
:1056B0000248018801229143018070470411005083
:1056C000BCB53D4DA97B687B00240094224623464F
:1056D000FCF74CFE297BE87A6A7B904203D1AA7BD7
:1056E000914200D1BCBD009422462346FCF73EFE09
:1056F000BCBDC046F0B585B0044613200001224968
:10570000085804904D2080000E5C2B4B1D6D5A6D87
:105710009F6DD86D0390200634D0F0B20A2141432A
:10572000049840184088C1060ED07F210840521CC2
:105730005A65C10703D00399491C0391D965000735
:105740001BD57F1C9F6518E011480088000A294678
:10575000002D0ED001976027D95B694308186D1C96
:105760002946029258F728FC134B029AD853019FFE
:1057700002E06021585201251D65641E701C072639
:105780000640C8E705B0F0BDE077FD07C84DFD074E
:1057900002290050F8B51C4615460E460746FEF78E
:1057A000C5FC28462146FEF7C1FC034884734573B7
:1057B0000673C772F8BDC046C84DFD0710B519463F
:1057C000FD2002020E48022356F7F2F990214170A3
:1057D0000024047049F79CF9204610BD10B5194605
:1057E0000748084A032356F7E3F9FF218170912106
:1057F00041700024047049F78BF9204610BDC04663
:105800000108000001FD000002E008C8121F08C1E5
:10581000002AFAD170477047002001E001C1121F31
:10582000002AFBD1704700000D48062101800120AD
:10583000C1030C4A1160BFF34F8FBFF36F8F02217A
:105840001160BFF34F8FBFF36F8F1060BFF34F8FA7
:10585000BFF36F8F052000070021018062B67047FB
:105860000034005080E100E001001D017902FC07D6
:1058700006000608B10BFC0701001E01F102FC073F
:105880000900020DE109FC07000005082F0AFC07CA
:10589000010000019913FC07000000000000000057
:1058A000B901FC076518FC07ED01FC072F02FC0796
:1058B0002F04FC075D07FC075F04FC070105FC07DC
:1058C0007304FC076906FC078F11FC072B14FC0707
:1058D000FD11FC072F13FC07750BF10700000000FA
:1058E000B3B5F107000000003B3FF10700000000E6
:1058F0004538F107000000005791F1070000000053
:105900001584F107000000005764F0070000000054
:105910007985F00700000000C397F0070000000041
:10592000B97AF10700000000A145F007000000006F
:105930002D94F00700000000E393F1070000000041
:105940004796F1070000000000000000285AFC07FD
:105950003060FC070100010001FC0000C719FC07D2
:1059600002FC0000E119FC0703FC0000FD19FC0724
:1059700005FC0000191AFC0706FC0000331AFC079E
:1059800007FC00004D1AFC0708FC0000671AFC0722
:1059900009FC0000811AFC070AFC00009F1AFC07A2
:1059A00010FC0000B91AFC0739FC0000471BFC077B
:1059B0003AFC0000891BFC0711FC0000CB1BFC0714
:1059C00030FC0000051CFC0731FC0000351CFC0706
:1059D00032FC0000651CFC0735FC0000891CFC073C
:1059E00036FC0000E11CFC0737FC0000131DFC071F
:1059F00038FC00008B1DFC073BFC0000D71DFC079A
:105A000012FC0000FB1AFC0741FC00009319FC0784
:105A100042FC00006F19FC0743FC00004D19FC0715
:105A200005080000211EFC07205AFC0701000000A9
:105A3000F401222222CAEA80D0070640643250468E
:105A400000030003983A6400F401B80BB80BB80BDC
:105A5000000CB80B120030003000CD009A0112008B
:105A6000240030006400B00018002800120012006A
:105A7000D0070000FFFF000000006400C800000025
:105A8000D0070002444131343538350000000000B1
:105A90000000000000000000F551FC07ED52FC077B
:105AA0004BD3F007A9D3F007B1D3F00701D4F00727
:105AB00019D4F0072FD4F00751D4F007E1D7F0073D
:105AC00081DAF007C1D8F007E1D8F00701D9F00773
:105AD0003FD9F0074FD9F007FBEEF007D5ECF00700
:105AE000F3ECF0070FEDF00729EDF0073DEDF007BF
:105AF000BFEDF007D7EDF0073FBEF10749C0F10752
:105B000073AFF007A14DFC07694EFC079D4DFC07E4
:105B1000654EFC07ED21F007AD4FFC077D43FC0708
:105B2000F543FC074144FC071944FC07FF75F007E7
:105B3000C974F0076B75F0077190F1071F40F1070A
